{"abi":[{"type":"constructor","inputs":[{"name":"stableToken_","type":"address","internalType":"address"},{"name":"treasury_","type":"address","internalType":"address"},{"name":"releaseApprover_","type":"address","internalType":"address"},{"name":"backendFulfillmentSigner_","type":"address","internalType":"address"},{"name":"billListingFee_","type":"uint256","internalType":"uint256"},{"name":"scholarshipListingFee_","type":"uint256","internalType":"uint256"}],"stateMutability":"nonpayable"},{"type":"function","name":"BPS_DENOMINATOR","inputs":[],"outputs":[{"name":"","type":"uint256","internalType":"uint256"}],"stateMutability":"view"},{"type":"function","name":"approveScholarshipRelease","inputs":[{"name":"goalIds","type":"uint256[]","internalType":"uint256[]"}],"outputs":[{"name":"","type":"bool","internalType":"bool"}],"stateMutability":"nonpayable"},{"type":"function","name":"backendFulfillmentSigner","inputs":[],"outputs":[{"name":"","type":"address","internalType":"address"}],"stateMutability":"view"},{"type":"function","name":"billListingFee","inputs":[],"outputs":[{"name":"","type":"uint256","internalType":"uint256"}],"stateMutability":"view"},{"type":"function","name":"billServices","inputs":[{"name":"","type":"uint256","internalType":"uint256"}],"outputs":[{"name":"","type":"address","internalType":"address"}],"stateMutability":"view"},{"type":"function","name":"billSuccessFeeBP","inputs":[],"outputs":[{"name":"","type":"uint256","internalType":"uint256"}],"stateMutability":"view"},{"type":"function","name":"claimScholarshipFunds","inputs":[{"name":"goalId","type":"uint256","internalType":"uint256"},{"name":"recipient","type":"address","internalType":"address"}],"outputs":[{"name":"","type":"bool","internalType":"bool"}],"stateMutability":"nonpayable"},{"type":"function","name":"createBillGoal","inputs":[{"name":"targetAmount","type":"uint256","internalType":"uint256"},{"name":"description","type":"string","internalType":"string"},{"name":"serviceType","type":"string","internalType":"string"},{"name":"extraInfo","type":"string","internalType":"string"},{"name":"billServiceIndex","type":"uint8","internalType":"uint8"}],"outputs":[{"name":"","type":"bool","internalType":"bool"}],"stateMutability":"nonpayable"},{"type":"function","name":"createGoal","inputs":[{"name":"targetAmount","type":"uint256","internalType":"uint256"},{"name":"description","type":"string","internalType":"string"},{"name":"extraInfo","type":"string","internalType":"string"}],"outputs":[{"name":"","type":"bool","internalType":"bool"}],"stateMutability":"nonpayable"},{"type":"function","name":"createScholarshipGoal","inputs":[{"name":"targetAmount","type":"uint256","internalType":"uint256"},{"name":"description","type":"string","internalType":"string"},{"name":"extraInfo","type":"string","internalType":"string"}],"outputs":[{"name":"","type":"bool","internalType":"bool"}],"stateMutability":"nonpayable"},{"type":"function","name":"defaultListingFee","inputs":[],"outputs":[{"name":"","type":"uint256","internalType":"uint256"}],"stateMutability":"view"},{"type":"function","name":"flagGoal","inputs":[{"name":"goalId","type":"uint256","internalType":"uint256"}],"outputs":[],"stateMutability":"nonpayable"},{"type":"function","name":"fulfillGoal","inputs":[{"name":"goalId","type":"uint256","internalType":"uint256"},{"name":"status","type":"uint8","internalType":"enum ImpactPay.GoalStatus"}],"outputs":[{"name":"","type":"bool","internalType":"bool"}],"stateMutability":"nonpayable"},{"type":"function","name":"fundGoal","inputs":[{"name":"goalId","type":"uint256","internalType":"uint256"},{"name":"amount","type":"uint256","internalType":"uint256"},{"name":"extraInfo","type":"string","internalType":"string"}],"outputs":[{"name":"","type":"bool","internalType":"bool"}],"stateMutability":"nonpayable"},{"type":"function","name":"getGoal","inputs":[{"name":"goalId","type":"uint256","internalType":"uint256"}],"outputs":[{"name":"data","type":"tuple","internalType":"struct ImpactPay.GetGoal","components":[{"name":"bill","type":"tuple","internalType":"struct ImpactPay.BillGoal","components":[{"name":"serviceType","type":"bytes","internalType":"bytes"},{"name":"billService","type":"address","internalType":"address"}]},{"name":"scholarship","type":"tuple","internalType":"struct ImpactPay.ScholarshipGoal","components":[{"name":"refundedAmount","type":"uint256","internalType":"uint256"},{"name":"milestoneDeadline","type":"uint64","internalType":"uint64"},{"name":"milestone","type":"uint8","internalType":"enum ImpactPay.Milestone"},{"name":"disputed","type":"bool","internalType":"bool"}]},{"name":"common","type":"tuple","internalType":"struct ImpactPay.CommonData","components":[{"name":"id","type":"uint256","internalType":"uint256"},{"name":"creator","type":"address","internalType":"address"},{"name":"targetAmount","type":"uint256","internalType":"uint256"},{"name":"raisedAmount","type":"uint256","internalType":"uint256"},{"name":"withdrawnAmount","type":"uint256","internalType":"uint256"},{"name":"description","type":"bytes","internalType":"bytes"},{"name":"status","type":"uint8","internalType":"enum ImpactPay.GoalStatus"},{"name":"goalType","type":"uint8","internalType":"enum ImpactPay.GoalType"},{"name":"flagsCount","type":"uint8","internalType":"uint8"},{"name":"lockedForReview","type":"bool","internalType":"bool"}]},{"name":"funders","type":"tuple[]","internalType":"struct ImpactPay.Funder[]","components":[{"name":"amount","type":"uint256","internalType":"uint256"},{"name":"id","type":"address","internalType":"address"},{"name":"extraInfo","type":"bytes","internalType":"bytes"},{"name":"fundedAt","type":"uint64","internalType":"uint64"}]},{"name":"treasury","type":"address","internalType":"address"},{"name":"releaseApprover","type":"address","internalType":"address"},{"name":"backendFulfillmentSigner","type":"address","internalType":"address"},{"name":"billListingFee","type":"uint256","internalType":"uint256"},{"name":"scholarshipListingFee","type":"uint256","internalType":"uint256"},{"name":"defaultListingFee","type":"uint256","internalType":"uint256"},{"name":"scholarshipFeeBP","type":"uint256","internalType":"uint256"},{"name":"billSuccessFeeBP","type":"uint256","internalType":"uint256"},{"name":"goalCounter","type":"uint256","internalType":"uint256"},{"name":"maxGoal","type":"uint256","internalType":"uint256"},{"name":"billServices","type":"address[]","internalType":"address[]"}]}],"stateMutability":"view"},{"type":"function","name":"goalCount","inputs":[{"name":"","type":"address","internalType":"address"}],"outputs":[{"name":"","type":"uint256","internalType":"uint256"}],"stateMutability":"view"},{"type":"function","name":"goalCounter","inputs":[],"outputs":[{"name":"","type":"uint256","internalType":"uint256"}],"stateMutability":"view"},{"type":"function","name":"goals","inputs":[{"name":"","type":"uint256","internalType":"uint256"}],"outputs":[{"name":"cData","type":"tuple","internalType":"struct ImpactPay.CommonData","components":[{"name":"id","type":"uint256","internalType":"uint256"},{"name":"creator","type":"address","internalType":"address"},{"name":"targetAmount","type":"uint256","internalType":"uint256"},{"name":"raisedAmount","type":"uint256","internalType":"uint256"},{"name":"withdrawnAmount","type":"uint256","internalType":"uint256"},{"name":"description","type":"bytes","internalType":"bytes"},{"name":"status","type":"uint8","internalType":"enum ImpactPay.GoalStatus"},{"name":"goalType","type":"uint8","internalType":"enum ImpactPay.GoalType"},{"name":"flagsCount","type":"uint8","internalType":"uint8"},{"name":"lockedForReview","type":"bool","internalType":"bool"}]},{"name":"bill","type":"tuple","internalType":"struct ImpactPay.BillGoal","components":[{"name":"serviceType","type":"bytes","internalType":"bytes"},{"name":"billService","type":"address","internalType":"address"}]},{"name":"scholarship","type":"tuple","internalType":"struct ImpactPay.ScholarshipGoal","components":[{"name":"refundedAmount","type":"uint256","internalType":"uint256"},{"name":"milestoneDeadline","type":"uint64","internalType":"uint64"},{"name":"milestone","type":"uint8","internalType":"enum ImpactPay.Milestone"},{"name":"disputed","type":"bool","internalType":"bool"}]}],"stateMutability":"view"},{"type":"function","name":"hasFlagged","inputs":[{"name":"","type":"uint256","internalType":"uint256"},{"name":"","type":"address","internalType":"address"}],"outputs":[{"name":"","type":"bool","internalType":"bool"}],"stateMutability":"view"},{"type":"function","name":"level3Verified","inputs":[{"name":"","type":"address","internalType":"address"}],"outputs":[{"name":"","type":"bool","internalType":"bool"}],"stateMutability":"view"},{"type":"function","name":"maxGoal","inputs":[],"outputs":[{"name":"","type":"uint256","internalType":"uint256"}],"stateMutability":"view"},{"type":"function","name":"milestoneDeadline","inputs":[],"outputs":[{"name":"","type":"uint256","internalType":"uint256"}],"stateMutability":"view"},{"type":"function","name":"milestonePercent","inputs":[{"name":"","type":"uint8","internalType":"enum ImpactPay.Milestone"}],"outputs":[{"name":"","type":"uint8","internalType":"uint8"}],"stateMutability":"view"},{"type":"function","name":"onVerificationSuccess","inputs":[{"name":"user","type":"address","internalType":"address"}],"outputs":[],"stateMutability":"nonpayable"},{"type":"function","name":"owner","inputs":[],"outputs":[{"name":"","type":"address","internalType":"address"}],"stateMutability":"view"},{"type":"function","name":"pause","inputs":[],"outputs":[],"stateMutability":"nonpayable"},{"type":"function","name":"paused","inputs":[],"outputs":[{"name":"","type":"bool","internalType":"bool"}],"stateMutability":"view"},{"type":"function","name":"reactivateGoal","inputs":[{"name":"goalId","type":"uint256","internalType":"uint256"}],"outputs":[{"name":"","type":"bool","internalType":"bool"}],"stateMutability":"nonpayable"},{"type":"function","name":"refundScholarship","inputs":[{"name":"goalId","type":"uint256","internalType":"uint256"}],"outputs":[],"stateMutability":"nonpayable"},{"type":"function","name":"relayBillFundsToService","inputs":[{"name":"goalId","type":"uint256","internalType":"uint256"},{"name":"amount","type":"uint256","internalType":"uint256"}],"outputs":[],"stateMutability":"nonpayable"},{"type":"function","name":"releaseApprover","inputs":[],"outputs":[{"name":"","type":"address","internalType":"address"}],"stateMutability":"view"},{"type":"function","name":"renounceOwnership","inputs":[],"outputs":[],"stateMutability":"nonpayable"},{"type":"function","name":"restriction","inputs":[{"name":"target","type":"address","internalType":"address"},{"name":"status","type":"bool","internalType":"bool"}],"outputs":[{"name":"","type":"bool","internalType":"bool"}],"stateMutability":"nonpayable"},{"type":"function","name":"restrictions","inputs":[{"name":"","type":"address","internalType":"address"}],"outputs":[{"name":"","type":"bool","internalType":"bool"}],"stateMutability":"view"},{"type":"function","name":"scholarshipFeeBP","inputs":[],"outputs":[{"name":"","type":"uint256","internalType":"uint256"}],"stateMutability":"view"},{"type":"function","name":"scholarshipListingFee","inputs":[],"outputs":[{"name":"","type":"uint256","internalType":"uint256"}],"stateMutability":"view"},{"type":"function","name":"setBackendFulfillmentSigner","inputs":[{"name":"newSigner","type":"address","internalType":"address"}],"outputs":[],"stateMutability":"nonpayable"},{"type":"function","name":"setBillListingFee","inputs":[{"name":"newListingFee","type":"uint256","internalType":"uint256"}],"outputs":[{"name":"","type":"bool","internalType":"bool"}],"stateMutability":"nonpayable"},{"type":"function","name":"setBillService","inputs":[{"name":"newBillService","type":"address","internalType":"address"}],"outputs":[{"name":"","type":"bool","internalType":"bool"}],"stateMutability":"nonpayable"},{"type":"function","name":"setDefaultListingFee","inputs":[{"name":"newListingFee","type":"uint256","internalType":"uint256"}],"outputs":[{"name":"","type":"bool","internalType":"bool"}],"stateMutability":"nonpayable"},{"type":"function","name":"setMaxGoal","inputs":[{"name":"max","type":"uint256","internalType":"uint256"}],"outputs":[],"stateMutability":"nonpayable"},{"type":"function","name":"setReleaseApprover","inputs":[{"name":"newApprover","type":"address","internalType":"address"}],"outputs":[],"stateMutability":"nonpayable"},{"type":"function","name":"setScolarshipListingFee","inputs":[{"name":"newListingFee","type":"uint256","internalType":"uint256"}],"outputs":[{"name":"","type":"bool","internalType":"bool"}],"stateMutability":"nonpayable"},{"type":"function","name":"stableToken","inputs":[],"outputs":[{"name":"","type":"address","internalType":"contract IERC20"}],"stateMutability":"view"},{"type":"function","name":"transferOwnership","inputs":[{"name":"newOwner","type":"address","internalType":"address"}],"outputs":[],"stateMutability":"nonpayable"},{"type":"function","name":"treasury","inputs":[],"outputs":[{"name":"","type":"address","internalType":"address"}],"stateMutability":"view"},{"type":"function","name":"unpause","inputs":[],"outputs":[],"stateMutability":"nonpayable"},{"type":"event","name":"BillGoalFulfilled","inputs":[{"name":"goalId","type":"uint256","indexed":true,"internalType":"uint256"},{"name":"service","type":"address","indexed":true,"internalType":"address"},{"name":"creator","type":"address","indexed":true,"internalType":"address"},{"name":"amount","type":"uint256","indexed":false,"internalType":"uint256"},{"name":"serviceType","type":"bytes","indexed":false,"internalType":"bytes"},{"name":"reputation","type":"uint256","indexed":false,"internalType":"uint256"}],"anonymous":false},{"type":"event","name":"Funded","inputs":[{"name":"goalId","type":"uint256","indexed":true,"internalType":"uint256"},{"name":"donor","type":"address","indexed":true,"internalType":"address"},{"name":"amount","type":"uint256","indexed":false,"internalType":"uint256"},{"name":"totalRaised","type":"uint256","indexed":false,"internalType":"uint256"},{"name":"goalType","type":"uint8","indexed":false,"internalType":"enum ImpactPay.GoalType"},{"name":"extraInfo","type":"string","indexed":false,"internalType":"string"}],"anonymous":false},{"type":"event","name":"GoalCreated","inputs":[{"name":"goalId","type":"uint256","indexed":true,"internalType":"uint256"},{"name":"creator","type":"address","indexed":true,"internalType":"address"},{"name":"goalType","type":"uint8","indexed":false,"internalType":"enum ImpactPay.GoalType"},{"name":"targetAmount","type":"uint256","indexed":false,"internalType":"uint256"},{"name":"description","type":"bytes","indexed":false,"internalType":"bytes"},{"name":"serviceType","type":"string","indexed":false,"internalType":"string"},{"name":"billService","type":"address","indexed":false,"internalType":"address"},{"name":"extraInfo","type":"string","indexed":false,"internalType":"string"}],"anonymous":false},{"type":"event","name":"GoalFlagged","inputs":[{"name":"goalId","type":"uint256","indexed":true,"internalType":"uint256"},{"name":"donor","type":"address","indexed":true,"internalType":"address"},{"name":"flagsCount","type":"uint8","indexed":false,"internalType":"uint8"},{"name":"lockedForReview","type":"bool","indexed":false,"internalType":"bool"},{"name":"goalType","type":"uint8","indexed":false,"internalType":"enum ImpactPay.GoalType"},{"name":"creator","type":"address","indexed":true,"internalType":"address"},{"name":"reputationSlash","type":"int256","indexed":false,"internalType":"int256"},{"name":"comment","type":"string","indexed":false,"internalType":"string"}],"anonymous":false},{"type":"event","name":"OwnershipTransferred","inputs":[{"name":"previousOwner","type":"address","indexed":true,"internalType":"address"},{"name":"newOwner","type":"address","indexed":true,"internalType":"address"}],"anonymous":false},{"type":"event","name":"Paused","inputs":[{"name":"account","type":"address","indexed":false,"internalType":"address"}],"anonymous":false},{"type":"event","name":"Refunded","inputs":[{"name":"goalId","type":"uint256","indexed":true,"internalType":"uint256"},{"name":"donor","type":"address","indexed":true,"internalType":"address"},{"name":"amount","type":"uint256","indexed":false,"internalType":"uint256"},{"name":"creator","type":"address","indexed":true,"internalType":"address"},{"name":"reputationSlice","type":"int256","indexed":false,"internalType":"int256"},{"name":"comment","type":"string","indexed":false,"internalType":"string"}],"anonymous":false},{"type":"event","name":"ReputationUpdated","inputs":[{"name":"user","type":"address","indexed":true,"internalType":"address"},{"name":"change","type":"int256","indexed":false,"internalType":"int256"},{"name":"reason","type":"string","indexed":false,"internalType":"string"}],"anonymous":false},{"type":"event","name":"ScholarshipWithdrawal","inputs":[{"name":"goalId","type":"uint256","indexed":true,"internalType":"uint256"},{"name":"recipient","type":"address","indexed":true,"internalType":"address"},{"name":"creator","type":"address","indexed":true,"internalType":"address"},{"name":"amount","type":"uint256","indexed":false,"internalType":"uint256"},{"name":"reputation","type":"uint256","indexed":false,"internalType":"uint256"},{"name":"milestoneIndex","type":"uint8","indexed":false,"internalType":"uint8"},{"name":"goalType","type":"uint8","indexed":false,"internalType":"uint8"}],"anonymous":false},{"type":"event","name":"Unpaused","inputs":[{"name":"account","type":"address","indexed":false,"internalType":"address"}],"anonymous":false},{"type":"error","name":"AlreadyFinalized","inputs":[]},{"type":"error","name":"DeadlineNotMet","inputs":[]},{"type":"error","name":"EnforcedPause","inputs":[]},{"type":"error","name":"ExpectedPause","inputs":[]},{"type":"error","name":"GoalLocked","inputs":[]},{"type":"error","name":"GoalNotFound","inputs":[]},{"type":"error","name":"InvalidAmount","inputs":[]},{"type":"error","name":"Level3Required","inputs":[]},{"type":"error","name":"MaxGoalExceeded","inputs":[]},{"type":"error","name":"NotReleaseApprover","inputs":[]},{"type":"error","name":"OwnableInvalidOwner","inputs":[{"name":"owner","type":"address","internalType":"address"}]},{"type":"error","name":"OwnableUnauthorizedAccount","inputs":[{"name":"account","type":"address","internalType":"address"}]},{"type":"error","name":"ReentrancyGuardReentrantCall","inputs":[]},{"type":"error","name":"RefundNotAvailable","inputs":[]},{"type":"error","name":"SafeERC20FailedOperation","inputs":[{"name":"token","type":"address","internalType":"address"}]}],"bytecode":{"object":"0x60a03461029e57601f613c6438819003918201601f19168301916001600160401b038311848410176102a25780849260c09460405283398101031261029e57610047816102b6565b90610054602082016102b6565b610060604083016102b6565b61006c606084016102b6565b9160a0608085015194015194331561028b575f8054610100600160a81b0319811633600881811b610100600160a81b03169290921784559291901c6001600160a01b0316907f8be0079c531659141344cd1fd0a4f28419497f9722a3daafe3b4186f6b6457e09080a360017f9b779b17422d0df92223018b32b4d1fa46e071723d6817e2486d003becc55f0081905561012c60078190556008556001600160a01b0391821660805280549282166001600160a01b0319938416179055600280549382169383169390931790925560038054939092169216919091179055600490815560059190915560126020527f7e7fa33969761a458e04f477e039a608702b4f924981d6653935a8319a08ad7b805460ff199081169091557f71a67924699a20698523213e55fe499d539379d7769cd5567e2c45d583f815a3805460149083161790557f8e1fee8c88a9e04123b21e90cae2727a7715bf522a1e46eb5934ccd05203a6b28054602890831681179091557f0f36ad39aee03e7108cc48f54934702a5f0d4066f10344cebf8198978d86976a8054831690911790555f919091527fb4fcd034df3d20faa1c133b66d862ce92732727d40916b48ffb4020cb00fe0538054909116905560405161399990816102cb8239608051818181610c9601528181610cd2015281816110c60152818161150e01528181611c5d0152818161212b015281816124c10152818161250701528181612adb0152612e9d0152f35b631e4fbdf760e01b5f525f60045260245ffd5b5f80fd5b634e487b7160e01b5f52604160045260245ffd5b51906001600160a01b038216820361029e5756fe60806040526004361015610011575f80fd5b5f3560e01c80631a15cd4914612ff75780631adaa84d14612d265780632514f7e614612d095780632aa6e44b146127105780633e22ceb0146126f35780633f4ba83a1461268f57806345d391ea146122385780634e7a19f414611e455780634ef5128e14611e285780635790e6b314611de5578063587ff9ce14611d8b5780635c975abb14611d6a5780635c9c61a5146119bc57806361449ca21461194057806361d027b3146119185780636ec998d2146117f1578063715018a61461179657806372469777146117625780637ad22f44146116a35780637dd5e31f146116605780637fc57de3146116365780638456cb59146115df5780638d334529146115a25780638da5cb5b146115775780639242597c1461155a5780639c5029611461153d578063a9d75b2b146114f9578063b5fa0d6514611281578063b6510a3b14610eac578063bae073fa14610dfc578063be663ada14610dd4578063bf2cd2b814610daa578063c0e524b314610a87578063c435ae0c14610a66578063c82bd54b14610a29578063ca2a9dbd14610a0c578063cfa40d66146109d4578063d4afceb71461098b578063d81c47b714610844578063dce3b7841461081c578063df6ed6cb146103d5578063e1a45218146103b9578063e5c5945114610377578063e9cb86a2146102f5578063f2fde38b1461025c578063f71441a51461023f5763f9e9ad391461021e575f80fd5b3461023b575f36600319011261023b576020600a54604051908152f35b5f80fd5b3461023b575f36600319011261023b576020600b54604051908152f35b3461023b57602036600319011261023b57610275613064565b61027d6136fd565b6001600160a01b0381169081156102e2575f8054610100600160a81b03198116600893841b610100600160a81b031617825590911c6001600160a01b0316907f8be0079c531659141344cd1fd0a4f28419497f9722a3daafe3b4186f6b6457e09080a3005b631e4fbdf760e01b5f525f60045260245ffd5b3461023b57602036600319011261023b5761030e613064565b6003546001600160a01b0316801515908161036d575b508015610354575b1561023b576001600160a01b03165f908152601160205260409020805460ff19166001179055005b505f543360089190911c6001600160a01b03161461032c565b9050331482610324565b3461023b57602036600319011261023b57600435600c5481101561023b576103a06020916134e9565b905460405160039290921b1c6001600160a01b03168152f35b3461023b575f36600319011261023b5760206040516127108152f35b3461023b57602036600319011261023b5760606101c06040516103f781613159565b60405161040381613107565b8381525f6020820152815260405161041a8161313e565b5f81525f60208201525f60408201525f84820152602082015260405161043f81613122565b5f81525f60208201525f60408201525f848201525f60808201528360a08201525f60c08201525f60e08201525f6101008201525f610120820152604082015282808201525f60808201525f60a08201525f60c08201525f60e08201525f6101008201525f6101208201525f6101408201525f6101608201525f6101808201525f6101a082015201526004355f52600d60205260405f20600b81019060018060a01b036001541660018060a01b036002541660018060a01b0360035416600454600554600654906007549260085494600a5496600b549861054a6040519b6105258d613159565b610531600782016132d6565b8d528c602061054260098401613304565b910152613236565b9b60408c019c8d52805461055d81613476565b9161056b6040519384613175565b81835260208301905f5260205f205f915b8383106107fe575050505060608c015260808b015260a08a015260c089015260e08801526101008701526101208601526101408501526101608401526101808301526101a0820152604051806020600c54918281520190600c5f527fdf6966c971051c3d54ec59162606531493a51404a002842f56009d7e5cf4a8c7905f5b8181106107df5761066187878761061481890382613175565b6101c08201526040519283926020845261063c83516102406020870152610260860190613416565b9061064f6020850151604087019061343f565b51848203601f190160c0860152613381565b90606081015191601f198482030160e0850152825180825260208201916020808360051b8301019501925f915b838310610775578780886101c08960018060a01b0360808201511661010085015260018060a01b0360a08201511661012085015260018060a01b0360c08201511661014085015260e08101516101608501526101008101516101808501526101208101516101a0850152610140810151828501526101608101516101e08501526101808101516102008501526101a0810151610220850152015190601f1983820301610240840152602080835192838152019201905f5b818110610753575050500390f35b82516001600160a01b0316845285945060209384019390920191600101610745565b91939650919394602080600192601f1985820301865289519081518152848060a01b0383830151168382015260606001600160401b03816107c56040860151608060408701526080860190613350565b94015116910152980193019301909287969594929361068e565b82546001600160a01b03168452602090930192600192830192016105fb565b6004602060019261080e856135a8565b81520192019201919061057c565b3461023b575f36600319011261023b576003546040516001600160a01b039091168152602090f35b3461023b57604036600319011261023b57602435600481101561023b57610869613726565b335f52600f60205261088260ff60405f20541615613515565b61089561088d6136d7565b600435613876565b9060018060a01b035f5460081c16331480159081610975575b15610942576108cf575b60066108c49201613656565b602060405160018152f35b60ff600683015416600481101561092e5760ff8216116108b85760405162461bcd60e51b815260206004820152601960248201527f4261636b77617264206d6f7665206e6f7420616c6c6f776564000000000000006044820152606490fd5b634e487b7160e01b5f52602160045260245ffd5b60405162461bcd60e51b815260206004820152600b60248201526a139bdd08185b1b1bddd95960aa1b6044820152606490fd5b5060018301546001600160a01b031633146108ae565b3461023b57604036600319011261023b576109a461304e565b6004355f52601060205260405f209060018060a01b03165f52602052602060ff60405f2054166040519015158152f35b3461023b57602036600319011261023b576001600160a01b036109f5613064565b165f52600e602052602060405f2054604051908152f35b3461023b575f36600319011261023b576020600554604051908152f35b3461023b57602036600319011261023b576001600160a01b03610a4a613064565b165f526011602052602060ff60405f2054166040519015158152f35b3461023b57602036600319011261023b57610a7f6136fd565b600435600b55005b3461023b57604036600319011261023b576004356024359060018060a01b035f5460081c1633141580610d95575b610d8657610ac1613726565b610ac9613740565b610ada610ad461366e565b82613807565b600681019260ff845460181c16610d78576003820154936004830194855495610b038783613636565b8411610d6957610b2d612710610b1b60085487613643565b0494610b278682613636565b986135f2565b809155818111610d355714610cfc575b5080610cbf575b5082610c80575b600881015460018201546040519485526060602086015260079290920180546001600160a01b039384169492909316925f91610b86826130cf565b918260608901526001811690815f14610c5b5750600114610c23575b505084807f4e1aa4804e627c98062ebca603e658b532a44f47ac8a208be80b30ee7d8c16829260646040889901520390a45f5160206139245f395f51905f5260806040516064815260406020820152600e60408201526d19dbd85b17d8dbdb5c1b195d195960921b6060820152a260015f5160206139445f395f51905f5255005b5f908152602081209092505b818310610c4457505084016080018484610ba2565b805460808489010152602090920191600101610c2f565b60ff19166080808a019190915292151560051b88019092019250869150859050610ba2565b6008810154610cba9084906001600160a01b03167f0000000000000000000000000000000000000000000000000000000000000000613778565b610b4b565b600154610cf691906001600160a01b03167f0000000000000000000000000000000000000000000000000000000000000000613778565b83610b44565b805460ff1916600217905560018201546001600160a01b03165f908152600e602052604090208054610d2d906136cb565b905584610b3d565b60405162461bcd60e51b815260206004820152600c60248201526b42616c20416e6f6d616c6c7960a01b6044820152606490fd5b63162908e360e11b5f5260045ffd5b62db9c8760e81b5f5260045ffd5b63766bacb760e11b5f5260045ffd5b506002546001600160a01b0316331415610ab5565b3461023b57602036600319011261023b57610dc36136fd565b600435600555602060405160018152f35b3461023b575f36600319011261023b576002546040516001600160a01b039091168152602090f35b3461023b57602036600319011261023b57610e156136fd565b6004355f52600d60205260405f2080548015908115610ea0575b50610e915760060160ff815416600481101561092e5715610e5d5760ff198154169055602060405160018152f35b60405162461bcd60e51b815260206004820152600c60248201526b23b7b0b61034b99037b832b760a11b6044820152606490fd5b633eb8f83f60e21b5f5260045ffd5b9050600a541082610e2f565b3461023b57606036600319011261023b576024356004356044356001600160401b03811161023b573660238201121561023b57610ef39036906024816004013591016134a4565b91610efc613726565b610f04613740565b335f52600f602052610f1d60ff60405f20541615613515565b610f2e610f286136d7565b83613876565b8115610d695760038101610f438382546135f2565b8155600b820160405190602080830152610f7282610f64604082018a613350565b03601f198101845283613175565b60405191610f7f8361313e565b858352602083013381526040840191825260608401926001600160401b03421684528054600160401b81101561125a57610fbe9160018201815561358f565b94909461126e57518455516001840180546001600160a01b0319166001600160a01b039290921691909117905551805160028401916001600160401b03821161125a5761100b83546130cf565b601f8111611215575b50602090601f831160011461117a5760036001600160401b0360ff96600696866111089b977f526e99da98d1e5db898b172482f116099160448335b858a184f216e8267f865c9e9d9b9785975f9261116f575b50508160011b915f1990871b1c19161790555b5116920191166001600160401b0319825416179055600c840160018060a01b0333165f52806020528360405f20541615611150575b5080546002850154111561113e575b6110ea8630337f00000000000000000000000000000000000000000000000000000000000000006138ba565b5492015460081c169060405193845260208401526040830190613374565b608060608201528061111f33956080830190613350565b0390a360015f5160206139445f395f51905f5255602060405160018152f35b818401600184198254161790556110be565b335f9081526020919091526040902080548419166001179055896110af565b015190505f80611067565b90601f19831691845f52815f20925f5b8181106111fd575060ff966006966001877f526e99da98d1e5db898b172482f116099160448335b858a184f216e8267f865c9e9d9b976001600160401b03976003976111089f9b8a98106111e6575b505050811b01905561107a565b01515f1983891b60f8161c191690555f80806111d9565b9293602060018192878601518155019501930161118a565b835f5260205f20601f840160051c81019160208510611250575b601f0160051c01905b8181106112455750611014565b5f8155600101611238565b909150819061122f565b634e487b7160e01b5f52604160045260245ffd5b634e487b7160e01b5f525f60045260245ffd5b3461023b57602036600319011261023b5760043561129d613726565b805f52600d60205260405f20908154156114c557335f908152600c830160205260409020546112ce9060ff166135ff565b5f81815260106020908152604080832033845290915290205460ff1661148f57805f52601060205260405f2060018060a01b0333165f5260205260405f20600160ff198254161790556006820161134661132e60ff835460101c16613696565b825462ff0000191660109190911b62ff000016178255565b8054600360ff8260101c161015611441575b5054916001808060a01b03910154169182916113986040519260ff8160101c16845260ff8160181c161515602085015260ff604085019160081c16613374565b6101f319606083015260a060808301527f5e89c1ce52aedbe30f3e8d300c44431bc42cb544ab7f3b3f85383380e925d3c73392806113f360a08201604090600c81526b19dbd85b17d99b1859d9d95960a21b60208201520190565b0390a45f5160206139245f395f51905f526040516101f3198152604060208201528061143c60408201604090600c81526b19dbd85b17d99b1859d9d95960a21b60208201520190565b0390a2005b60ff8160081c16600381101561092e5760020361147b5750600a8301805460ff60481b191669010000000000000000001790555b83611358565b63ff00000019166301000000178155611475565b60405162461bcd60e51b815260206004820152600e60248201526d105b1c9958591e519b1859d9d95960921b6044820152606490fd5b60405162461bcd60e51b815260206004820152600c60248201526b11dbd85b139bdd119bdd5b9960a21b6044820152606490fd5b3461023b575f36600319011261023b576040517f00000000000000000000000000000000000000000000000000000000000000006001600160a01b03168152602090f35b3461023b575f36600319011261023b576020600754604051908152f35b3461023b575f36600319011261023b576020600454604051908152f35b3461023b575f36600319011261023b575f5460405160089190911c6001600160a01b03168152602090f35b3461023b57602036600319011261023b576001600160a01b036115c3613064565b165f52600f602052602060ff60405f2054166040519015158152f35b3461023b575f36600319011261023b576115f76136fd565b6115ff613726565b600160ff195f5416175f557f62e78cea01bee320cd4e420270b5ea74000d11b0c9f74754ebdbfc544b05a2586020604051338152a1005b3461023b57602036600319011261023b5761164f6136fd565b600435600455602060405160018152f35b3461023b57602036600319011261023b57611679613064565b6116816136fd565b600380546001600160a01b0319166001600160a01b0392909216919091179055005b3461023b57602036600319011261023b576116bc613064565b6116c46136fd565b600c546001600160a01b03909116905f805b82811061172f5750156116ee57602060405160018152f35b600160401b81101561125a5780600161170a9201600c556134e9565b81546001600160a01b0360039290921b91821b191692901b91909117905580806108c4565b83611739826134e9565b905460039190911b1c6001600160a01b031614611759575b6001016116d6565b60019150611751565b3461023b57602036600319011261023b57600435600581101561023b5760ff61178c60209261348d565b5416604051908152f35b3461023b575f36600319011261023b576117ae6136fd565b5f8054610100600160a81b03198116825560081c6001600160a01b03167f8be0079c531659141344cd1fd0a4f28419497f9722a3daafe3b4186f6b6457e08280a3005b3461023b57602036600319011261023b576004356001600160401b03811161023b573660238201121561023b5780600401359061182d82613476565b9161183b6040519384613175565b8083526024602084019160051b8301019136831161023b57602401905b828210611908578360018060a01b035f5460081c16331415806118f3575b610d8657611882613726565b335f52600f60205261189b60ff60405f20541615613515565b5f5b81518110156108c45760019060208160051b84010151801515806118e7575b6118c8575b500161189d565b5f52600d602052600660405f200163ff000000198154169055836118c1565b50600a548111156118bc565b506002546001600160a01b0316331415611876565b8135815260209182019101611858565b3461023b575f36600319011261023b576001546040516001600160a01b039091168152602090f35b3461023b57602036600319011261023b576004355f52600d60205261199f60405f2061196b81613236565b906119b86119ad61198a6009611983600786016132d6565b9401613304565b9260405195869560c0875260c0870190613381565b908582036020870152613416565b91604084019061343f565b0390f35b3461023b576119f76119cd3661307a565b939294906119ef602096604051946119e58987613175565b5f865236916134a4565b9436916134a4565b92611a00613726565b335f52600f8552611a1860ff60405f20541615613515565b8215610d6957600b5480611d43575b50335f52600e855260405f20611a3d81546137f9565b9055611a4a600a546137f9565b9283600a556006549260405193611a6085613122565b85855287850133815260408601848152606087015f815260808801905f825260a08901928884525f60c08b01525f60e08b01525f6101008b01525f6101208b01528a5f52600d8d5260405f20948a51865560018060a01b03905116600186019060018060a01b03166001600160601b0360a01b825416179055516002850155516003840155516004830155518051906001600160401b03821161125a57611b0a60058401546130cf565b601f8111611d01575b508a90601f8311600114611c925760069392915f9183611c87575b50508160011b915f199060031b1c19161760058201555b019160c0860151600481101561092e57611b5f9084613656565b60e086015191600383101561092e57611bf2611c3d946101207fb56f2eb3d94244c9d2377a4085d352f94764e838ffecb5964c77db3e98859d4299611c289661ff0084549160081b169061ff001916178355611bd660ff61010083015116849062ff000082549160101b169062ff00001916179055565b0151815463ff000000191690151560181b63ff00000016179055565b80611c49575b50611c1a6040519586955f87528b87015260c0604087015260c0860190613350565b908482036060860152613350565b5f608084015282810360a08401523396613350565b0390a360405160018152f35b600154611c8191906001600160a01b0316337f00000000000000000000000000000000000000000000000000000000000000006138ba565b89611bf8565b015190508c80611b2e565b90601f19831691600585015f528c5f20928d5f905b828210611ce9575050916001939185600697969410611cd1575b505050811b016005820155611b45565b01515f1960f88460031b161c191690558c8080611cc1565b80600186978294978701518155019601940190611ca7565b600584015f528b5f20601f840160051c81018d8510611d3c575b601f830160051c82018110611d31575050611b13565b5f8155600101611d1b565b5080611d1b565b335f52600e865260405f20541015611d5b5785611a27565b63d8191f1160e01b5f5260045ffd5b3461023b575f36600319011261023b57602060ff5f54166040519015158152f35b3461023b57604036600319011261023b57611da4613064565b6024359081151580920361023b57611dba6136fd565b60018060a01b03165f52600f60205260405f209060ff80198354169116179055602060405160018152f35b3461023b57602036600319011261023b57611dfe613064565b611e066136fd565b600280546001600160a01b0319166001600160a01b0392909216919091179055005b3461023b575f36600319011261023b576020600954604051908152f35b3461023b57611e533661307a565b92939190335f52601160205260ff60405f2054161561222957611e84906119ef602096604051946119e58987613175565b92611e8d613726565b335f52600f8552611ea560ff60405f20541615613515565b8215610d6957600b5480612211575b50335f52600e855260405f20611eca81546137f9565b9055611ed7600a546137f9565b9283600a5560055492604051611eec8161313e565b5f815287808201915f83526001600160401b0380600a60408401935f8552600d60608201965f88528d5f525260405f209051600982015501945116166001600160401b031984541617835551600581101561092e57611f4b90836136a8565b51815460ff60481b191690151560481b69ff0000000000000000001617905560405193611f7785613122565b85855287850133815260408601848152606087015f815260808801905f825260a08901928884525f60c08b0152600260e08b01525f6101008b01525f6101208b01528a5f52600d8d5260405f20948a51865560018060a01b03905116600186019060018060a01b03166001600160601b0360a01b825416179055516002850155516003840155516004830155518051906001600160401b03821161125a5761202260058401546130cf565b601f81116121cf575b508a90601f83116001146121605760069392915f9183612155575b50508160011b915f199060031b1c19161760058201555b019160c0860151600481101561092e576120779084613656565b60e086015191600383101561092e576120ee611c3d946101207fb56f2eb3d94244c9d2377a4085d352f94764e838ffecb5964c77db3e98859d4299611c289661ff0084549160081b169061ff001916178355611bd660ff61010083015116849062ff000082549160101b169062ff00001916179055565b80612117575b50611c1a604051958695600287528b87015260c0604087015260c0860190613350565b60015461214f91906001600160a01b0316337f00000000000000000000000000000000000000000000000000000000000000006138ba565b896120f4565b015190508c80612046565b90601f19831691600585015f528c5f20928d5f905b8282106121b757505091600193918560069796941061219f575b505050811b01600582015561205d565b01515f1960f88460031b161c191690558c808061218f565b80600186978294978701518155019601940190612175565b600584015f528b5f20601f840160051c81018d851061220a575b601f830160051c820181106121ff57505061202b565b5f81556001016121e9565b50806121e9565b335f52600e865260405f20541015611d5b5785611eb4565b636c7272bb60e11b5f5260045ffd5b3461023b57604036600319011261023b5760043561225461304e565b90335f52600f60205261226e60ff60405f20541615613515565b612276613726565b61227e613740565b612289610ad461366e565b600a810180549093919290916001600160a01b03811615604884901c60ff1661265f57600685019384549060ff8260081c16600381101561092e576002036126275782156125dd575b60ff8260181c166125a457630100000060ff9263ff000000191617865560401c16600581101561092e5761230760ff91613696565b16600581101561092e5761231b90876136a8565b6003850154865494606461234360ff8860401c169360ff61233b8661348d565b541690613643565b049561271061235460075489613643565b04926123608489613636565b9761237060048b019182546135f2565b9055600581101561092e57600314612545575b50506276a700420180421161253157875467ffffffffffffffff19166001600160401b0391909116178755806124f4575b50836124a4575b1561249b575060018301546001600160a01b03169260ff905b6001015494546001600160a01b039095169460401c1692600584101561092e5760807f50701bf5795537c78664849abce15716702c26e91b2625f11537bccda4eae92b9186956040519586526064602087015260408601526002606086015260018060a01b031693a45f5160206139245f395f51905f526080604051606481526040602082015260136040820152721b5a5b195cdd1bdb9957d8dbdb5c1b195d1959606a1b6060820152a260015f5160206139445f395f51905f5255602060405160018152f35b60ff90936123d4565b80156124ea5760018501546124e59085906001600160a01b03165b7f0000000000000000000000000000000000000000000000000000000000000000613778565b6123bb565b6124e584836124bf565b60015461252b91906001600160a01b03167f0000000000000000000000000000000000000000000000000000000000000000613778565b866123b4565b634e487b7160e01b5f52601160045260245ffd5b6001600160401b031642111561259557600260ff198254161790556804000000000000000060ff60401b19885416178755335f52600e60205260405f2061258c81546136cb565b90558780612383565b6330fa6ee560e11b5f5260045ffd5b60405162461bcd60e51b81526020600482015260116024820152704c6f636b656420666f722072657669657760781b6044820152606490fd5b60018701546001600160a01b031633146122d25760405162461bcd60e51b815260206004820152600e60248201526d24b73b30b634b21031b0b63632b960911b6044820152606490fd5b60405162461bcd60e51b815260206004820152601060248201526f04f6e6c79205363686f6c6172736869760841b6044820152606490fd5b60405162461bcd60e51b8152602060048201526008602482015267111a5cdc1d5d195960c21b6044820152606490fd5b3461023b575f36600319011261023b576126a76136fd565b5f5460ff8116156126e45760ff19165f557f5db9ee0a495bf2e6ff9c91a7834c1ba4fdd244a5e8aa4e537bd38aeae4b073aa6020604051338152a1005b638dfc202b60e01b5f5260045ffd5b3461023b575f36600319011261023b576020600654604051908152f35b3461023b5760a036600319011261023b576004356024356001600160401b03811161023b57612743903690600401613021565b916044356001600160401b03811161023b57612763903690600401613021565b9390926064356001600160401b03811161023b57612785903690600401613021565b9460843560ff81169081810361023b57600c545f9281612c95575b506127ca956119ef9490938593509091506001600160a01b038116612c8f575033995b36916134a4565b926127d3613726565b335f52600f6020526127ec60ff60405f20541615613515565b8215610d6957600b5480612c76575b50335f52600e60205260405f2061281281546137f9565b905561281f600a546137f9565b9283600a55600454956040519661283588613107565b848852602088019160018060a01b031691828152865f52600d60205260405f2090600782019951998a516001600160401b03811161125a5761287782546130cf565b9b601f8d11612c31575b8a9b9c505f9a9798999a50602090601f8311600114612bc7576008949392915f9183612bbc575b50508160011b915f199060031b1c19161790555b51910180546001600160a01b0319166001600160a01b0392909216919091179055604051956128ea87613122565b83875260208701913383526040880186815260608901985f8a52608081015f815260a08201908a825260c083019b5f8d5260e0840194600186526101008501985f8a5261012086019b5f8d525f52600d60205260405f209551865560018060a01b03905116600186019060018060a01b03166001600160601b0360a01b8254161790555160028501555160038401555160048301556005820190518051906001600160401b03821161125a576129a083546130cf565b601f8111612b77575b50602090601f8311600114612b10576006949392915f9183612b05575b50508160011b915f199060031b1c19161790555b019851600481101561092e576129f0908a613656565b51600381101561092e578854935162ffff001990941660089190911b61ff00161760109390931b62ff0000169290921787557fb56f2eb3d94244c9d2377a4085d352f94764e838ffecb5964c77db3e98859d4296612ab994612aa49391612a6c9151815463ff000000191690151560181b63ff00000016179055565b80612ac7575b50612a9660405196879660018852602088015260c0604088015260c0870190613350565b908582036060870152613350565b90608084015282810360a08401523396613350565b0390a3602060405160018152f35b600154612aff91906001600160a01b0316337f00000000000000000000000000000000000000000000000000000000000000006138ba565b89612a72565b015190505f806129c6565b90601f19831691845f52815f20925f5b818110612b5f575091600193918560069897969410612b47575b505050811b0190556129da565b01515f1960f88460031b161c191690555f8080612b3a565b92936020600181928786015181550195019301612b20565b835f5260205f20601f840160051c81019160208510612bb2575b601f0160051c01905b818110612ba757506129a9565b5f8155600101612b9a565b9091508190612b91565b015190508e806128a8565b90601f19831691845f52815f20925f5b818110612c16575091600193918560089897969410612bfe575b505050811b0190556128bc565b01515f1960f88460031b161c191690558e8080612bf1565b8284015185558f9b5060019094019360209384019301612bd7565b825f5260205f20601f830160051c81019d60208410612c6c575b601f0160051c019c5b8d8110612c615750612881565b5f8155600101612c54565b909d508d90612c4b565b335f52600e60205260405f20541015611d5b57856127fb565b996127c3565b90919592501015612ccc576119ef6119ef92612cb36127ca966134e9565b60018060a01b0391549060031b1c1692958194506127a0565b60405162461bcd60e51b8152602060048201526015602482015274092dcecc2d8d2c840e6cae4ecd2c6ca40d2dcc8caf605b1b6044820152606490fd5b3461023b575f36600319011261023b576020600854604051908152f35b3461023b57602036600319011261023b57600435335f52600f602052612d5360ff60405f20541615613515565b612d5b613726565b612d63613740565b805f52600d60205260405f20805415610e915760098101600a82015460ff8160401c16600581101561092e57612dbc91612da860046001600160401b0393141561354e565b168015159081612fed575b5092919261354e565b5f92600b820191845b8354811015612e2257612de1612ddb828661358f565b506135a8565b60208101516001600160a01b03163314612dff575b50600101612dc5565b60019196612e0e9151906135f2565b955f612e1a828761358f565b505590612df6565b50915091612e318415156135ff565b6003820154600483015494612e51612e4b845480986135f2565b83613636565b8015612fbb57612e6091613643565b8115612fa757819004948515612f985785612e7a916135f2565b8092556050810290810460500361253157606490041115612f84575b612ec183337f0000000000000000000000000000000000000000000000000000000000000000613778565b600101546040805193845260c71960208501526060908401819052600b908401526a1c1c9bdbd997dd5b9b595d60aa1b60808401526001600160a01b031691829133917fbfce0dbbcb5fa76b86c14279c6335dfc06a3900509b9236bd0c4a9209a8f7d049060a090a45f5160206139245f395f51905f5260405160c71981526040602082015280612f6e60408201604090600b81526a1c1c9bdbd997dd5b9b595d60aa1b60208201520190565b0390a260015f5160206139445f395f51905f5255005b60068101805460ff19166003179055612e96565b630b4d698160e01b5f5260045ffd5b634e487b7160e01b5f52601260045260245ffd5b60405162461bcd60e51b815260206004820152600a602482015269506f6f6c20656d70747960b01b6044820152606490fd5b9050421185612db3565b3461023b57602036600319011261023b576130106136fd565b600435600655602060405160018152f35b9181601f8401121561023b578235916001600160401b03831161023b576020838186019501011161023b57565b602435906001600160a01b038216820361023b57565b600435906001600160a01b038216820361023b57565b90606060031983011261023b57600435916024356001600160401b03811161023b57816130a991600401613021565b92909291604435906001600160401b03821161023b576130cb91600401613021565b9091565b90600182811c921680156130fd575b60208310146130e957565b634e487b7160e01b5f52602260045260245ffd5b91607f16916130de565b604081019081106001600160401b0382111761125a57604052565b61014081019081106001600160401b0382111761125a57604052565b608081019081106001600160401b0382111761125a57604052565b6101e081019081106001600160401b0382111761125a57604052565b90601f801991011681019081106001600160401b0382111761125a57604052565b9060405191825f8254926131a9846130cf565b808452936001811690811561321457506001146131d0575b506131ce92500383613175565b565b90505f9291925260205f20905f915b8183106131f85750509060206131ce928201015f6131c1565b60209193508060019154838589010152019101909184926131df565b9050602092506131ce94915060ff191682840152151560051b8201015f6131c1565b9060405161324381613122565b8254815260018301546001600160a01b0316602082015260028301546040820152600383015460608201526004830154608082015291829060069061328a60058201613196565b60a0840152015460ff8116600481101561092e5760c083015260ff8160081c16600381101561092e576101209160ff9160e0850152818160101c1661010085015260181c161515910152565b906040516132e381613107565b602081936132f081613196565b8352600101546001600160a01b0316910152565b906040516133118161313e565b600181938054835201546001600160401b038116602083015260ff8160401c16600581101561092e5760609160ff91604085015260481c161515910152565b805180835260209291819084018484015e5f828201840152601f01601f1916010190565b90600382101561092e5752565b908151815260018060a01b0360208301511660208201526040820151604082015260608201516060820152608082015160808201526133d160a083015161014060a0840152610140830190613350565b9160c0810151600481101561092e5761012091829160c08501526133fd60e082015160e0860190613374565b60ff610100820151166101008501520151151591015290565b90602061342c8351604084526040840190613350565b928101516001600160a01b031691015290565b805182526001600160401b0360208201511660208301526040810151600581101561092e5760408301526060908101511515910152565b6001600160401b03811161125a5760051b60200190565b600581101561092e575f52601260205260405f2090565b9291926001600160401b03821161125a57604051916134cd601f8201601f191660200184613175565b82948184528183011161023b578281602093845f960137010152565b600c5481101561350157600c5f5260205f2001905f90565b634e487b7160e01b5f52603260045260245ffd5b1561351c57565b60405162461bcd60e51b815260206004820152600a60248201526914995cdd1c9a58dd195960b21b6044820152606490fd5b1561355557565b60405162461bcd60e51b8152602060048201526012602482015271526566756e644e6f74417661696c61626c6560701b6044820152606490fd5b8054821015613501575f5260205f209060021b01905f90565b906040516135b58161313e565b60606001600160401b03600383958054855260018060a01b0360018201541660208601526135e560028201613196565b6040860152015416910152565b9190820180921161253157565b1561360657565b60405162461bcd60e51b81526020600482015260086024820152672737ba2237b737b960c11b6044820152606490fd5b9190820391821161253157565b8181029291811591840414171561253157565b90600481101561092e5760ff80198354169116179055565b6040519061367d604083613175565b600a825269139bdd08119d5b99195960b21b6020830152565b60ff60019116019060ff821161253157565b90600581101561092e5760ff60401b82549160401b169060ff60401b1916179055565b8015612531575f190190565b604051906136e6604083613175565b60088252672737ba1027b832b760c11b6020830152565b5f5460081c6001600160a01b0316330361371357565b63118cdaa760e01b5f523360045260245ffd5b60ff5f541661373157565b63d93c066560e01b5f5260045ffd5b60025f5160206139445f395f51905f5254146137695760025f5160206139445f395f51905f5255565b633ee5aeb560e01b5f5260045ffd5b916040519163a9059cbb60e01b5f5260018060a01b031660045260245260205f60448180865af19060015f51148216156137d8575b604052156137b85750565b635274afe760e01b5f9081526001600160a01b0391909116600452602490fd5b9060018115166137f057823b15153d151616906137ad565b503d5f823e3d90fd5b5f1981146125315760010190565b9190915f52600d60205260405f20918254801590811561386a575b50610e915760ff600684015416600481101561092e576001036138425750565b60405162461bcd60e51b815260206004820152908190613866906024830190613350565b0390fd5b9050600a54105f613822565b9190915f52600d60205260405f2091825480159081156138ae575b50610e915760ff600684015416600481101561092e576138425750565b9050600a54105f613891565b6040516323b872dd60e01b5f9081526001600160a01b039384166004529290931660245260449390935260209060648180865af19060015f511482161561390b575b6040525f606052156137b85750565b9060018115166137f057823b15153d151616906138fc56fe98e7125ffa91f30e48c41d89cafc2d5a18816934ae0f4c4c1346ef926add2f789b779b17422d0df92223018b32b4d1fa46e071723d6817e2486d003becc55f00a26469706673582212207998de460203ac0360860ced3e83c5a8e1b0875689518e1c7755ee3c9a7cf9aa64736f6c634300081c0033","linkReferences":{}},"methodIdentifiers":{"BPS_DENOMINATOR()":"e1a45218","approveScholarshipRelease(uint256[])":"6ec998d2","backendFulfillmentSigner()":"dce3b784","billListingFee()":"9242597c","billServices(uint256)":"e5c59451","billSuccessFeeBP()":"2514f7e6","claimScholarshipFunds(uint256,address)":"45d391ea","createBillGoal(uint256,string,string,string,uint8)":"2aa6e44b","createGoal(uint256,string,string)":"5c9c61a5","createScholarshipGoal(uint256,string,string)":"4e7a19f4","defaultListingFee()":"3e22ceb0","flagGoal(uint256)":"b5fa0d65","fulfillGoal(uint256,uint8)":"d81c47b7","fundGoal(uint256,uint256,string)":"b6510a3b","getGoal(uint256)":"df6ed6cb","goalCount(address)":"cfa40d66","goalCounter()":"f9e9ad39","goals(uint256)":"61449ca2","hasFlagged(uint256,address)":"d4afceb7","level3Verified(address)":"c82bd54b","maxGoal()":"f71441a5","milestoneDeadline()":"4ef5128e","milestonePercent(uint8)":"72469777","onVerificationSuccess(address)":"e9cb86a2","owner()":"8da5cb5b","pause()":"8456cb59","paused()":"5c975abb","reactivateGoal(uint256)":"bae073fa","refundScholarship(uint256)":"1adaa84d","relayBillFundsToService(uint256,uint256)":"c0e524b3","releaseApprover()":"be663ada","renounceOwnership()":"715018a6","restriction(address,bool)":"587ff9ce","restrictions(address)":"8d334529","scholarshipFeeBP()":"9c502961","scholarshipListingFee()":"ca2a9dbd","setBackendFulfillmentSigner(address)":"7dd5e31f","setBillListingFee(uint256)":"7fc57de3","setBillService(address)":"7ad22f44","setDefaultListingFee(uint256)":"1a15cd49","setMaxGoal(uint256)":"c435ae0c","setReleaseApprover(address)":"5790e6b3","setScolarshipListingFee(uint256)":"bf2cd2b8","stableToken()":"a9d75b2b","transferOwnership(address)":"f2fde38b","treasury()":"61d027b3","unpause()":"3f4ba83a"},"id":30}