{"abi":[{"type":"constructor","inputs":[{"name":"stableToken_","type":"address","internalType":"address"},{"name":"treasury_","type":"address","internalType":"address"},{"name":"releaseApprover_","type":"address","internalType":"address"},{"name":"backendFulfillmentSigner_","type":"address","internalType":"address"},{"name":"billListingFee_","type":"uint256","internalType":"uint256"},{"name":"scholarshipListingFee_","type":"uint256","internalType":"uint256"}],"stateMutability":"nonpayable"},{"type":"function","name":"BPS_DENOMINATOR","inputs":[],"outputs":[{"name":"","type":"uint256","internalType":"uint256"}],"stateMutability":"view"},{"type":"function","name":"SUCCESS_FEE_BPS","inputs":[],"outputs":[{"name":"","type":"uint256","internalType":"uint256"}],"stateMutability":"view"},{"type":"function","name":"approveRelease","inputs":[{"name":"goalId","type":"uint256","internalType":"uint256"}],"outputs":[],"stateMutability":"nonpayable"},{"type":"function","name":"backendFulfillmentSigner","inputs":[],"outputs":[{"name":"","type":"address","internalType":"address"}],"stateMutability":"view"},{"type":"function","name":"billListingFee","inputs":[],"outputs":[{"name":"","type":"uint256","internalType":"uint256"}],"stateMutability":"view"},{"type":"function","name":"claimFunds","inputs":[{"name":"goalId","type":"uint256","internalType":"uint256"}],"outputs":[],"stateMutability":"nonpayable"},{"type":"function","name":"createGoal","inputs":[{"name":"targetAmount","type":"uint256","internalType":"uint256"},{"name":"category","type":"uint8","internalType":"enum ImpactPay.Category"},{"name":"description","type":"string","internalType":"string"}],"outputs":[],"stateMutability":"nonpayable"},{"type":"function","name":"donationsByDonor","inputs":[{"name":"","type":"uint256","internalType":"uint256"},{"name":"","type":"address","internalType":"address"}],"outputs":[{"name":"","type":"uint256","internalType":"uint256"}],"stateMutability":"view"},{"type":"function","name":"flagGoal","inputs":[{"name":"goalId","type":"uint256","internalType":"uint256"}],"outputs":[],"stateMutability":"nonpayable"},{"type":"function","name":"fundGoal","inputs":[{"name":"goalId","type":"uint256","internalType":"uint256"},{"name":"amount","type":"uint256","internalType":"uint256"}],"outputs":[],"stateMutability":"nonpayable"},{"type":"function","name":"goals","inputs":[{"name":"","type":"uint256","internalType":"uint256"}],"outputs":[{"name":"id","type":"uint256","internalType":"uint256"},{"name":"creator","type":"address","internalType":"address"},{"name":"targetAmount","type":"uint256","internalType":"uint256"},{"name":"raisedAmount","type":"uint256","internalType":"uint256"},{"name":"withdrawnAmount","type":"uint256","internalType":"uint256"},{"name":"description","type":"string","internalType":"string"},{"name":"category","type":"uint8","internalType":"enum ImpactPay.Category"},{"name":"status","type":"uint8","internalType":"enum ImpactPay.GoalStatus"},{"name":"milestoneIndex","type":"uint8","internalType":"uint8"},{"name":"flagsCount","type":"uint8","internalType":"uint8"},{"name":"lockedForReview","type":"bool","internalType":"bool"}],"stateMutability":"view"},{"type":"function","name":"hasFlagged","inputs":[{"name":"","type":"uint256","internalType":"uint256"},{"name":"","type":"address","internalType":"address"}],"outputs":[{"name":"","type":"bool","internalType":"bool"}],"stateMutability":"view"},{"type":"function","name":"markBillFulfilled","inputs":[{"name":"goalId","type":"uint256","internalType":"uint256"}],"outputs":[],"stateMutability":"nonpayable"},{"type":"function","name":"nextGoalId","inputs":[],"outputs":[{"name":"","type":"uint256","internalType":"uint256"}],"stateMutability":"view"},{"type":"function","name":"owner","inputs":[],"outputs":[{"name":"","type":"address","internalType":"address"}],"stateMutability":"view"},{"type":"function","name":"releaseApprover","inputs":[],"outputs":[{"name":"","type":"address","internalType":"address"}],"stateMutability":"view"},{"type":"function","name":"scholarshipListingFee","inputs":[],"outputs":[{"name":"","type":"uint256","internalType":"uint256"}],"stateMutability":"view"},{"type":"function","name":"setBackendFulfillmentSigner","inputs":[{"name":"newSigner","type":"address","internalType":"address"}],"outputs":[],"stateMutability":"nonpayable"},{"type":"function","name":"setReleaseApprover","inputs":[{"name":"newApprover","type":"address","internalType":"address"}],"outputs":[],"stateMutability":"nonpayable"},{"type":"function","name":"stableToken","inputs":[],"outputs":[{"name":"","type":"address","internalType":"contract IERC20Like"}],"stateMutability":"view"},{"type":"function","name":"treasury","inputs":[],"outputs":[{"name":"","type":"address","internalType":"address"}],"stateMutability":"view"},{"type":"event","name":"Completed","inputs":[{"name":"goalId","type":"uint256","indexed":true,"internalType":"uint256"},{"name":"donor","type":"address","indexed":true,"internalType":"address"},{"name":"amountReleased","type":"uint256","indexed":false,"internalType":"uint256"},{"name":"milestoneIndex","type":"uint8","indexed":false,"internalType":"uint8"}],"anonymous":false},{"type":"event","name":"Funded","inputs":[{"name":"goalId","type":"uint256","indexed":true,"internalType":"uint256"},{"name":"donor","type":"address","indexed":true,"internalType":"address"},{"name":"amount","type":"uint256","indexed":false,"internalType":"uint256"},{"name":"totalRaised","type":"uint256","indexed":false,"internalType":"uint256"}],"anonymous":false},{"type":"event","name":"GoalCreated","inputs":[{"name":"goalId","type":"uint256","indexed":true,"internalType":"uint256"},{"name":"creator","type":"address","indexed":true,"internalType":"address"},{"name":"donor","type":"address","indexed":true,"internalType":"address"},{"name":"category","type":"uint8","indexed":false,"internalType":"enum ImpactPay.Category"},{"name":"targetAmount","type":"uint256","indexed":false,"internalType":"uint256"},{"name":"description","type":"string","indexed":false,"internalType":"string"}],"anonymous":false},{"type":"event","name":"GoalFlagged","inputs":[{"name":"goalId","type":"uint256","indexed":true,"internalType":"uint256"},{"name":"donor","type":"address","indexed":true,"internalType":"address"},{"name":"flagsCount","type":"uint8","indexed":false,"internalType":"uint8"},{"name":"lockedForReview","type":"bool","indexed":false,"internalType":"bool"}],"anonymous":false},{"type":"event","name":"GoalFulfilled","inputs":[{"name":"goalId","type":"uint256","indexed":true,"internalType":"uint256"}],"anonymous":false},{"type":"error","name":"AlreadyFinalized","inputs":[]},{"type":"error","name":"AlreadyFlagged","inputs":[]},{"type":"error","name":"BillOnly","inputs":[]},{"type":"error","name":"GoalLocked","inputs":[]},{"type":"error","name":"GoalNotFound","inputs":[]},{"type":"error","name":"GoalNotFunded","inputs":[]},{"type":"error","name":"GoalNotOpen","inputs":[]},{"type":"error","name":"InvalidAmount","inputs":[]},{"type":"error","name":"NotCreator","inputs":[]},{"type":"error","name":"NotDonor","inputs":[]},{"type":"error","name":"NotOwner","inputs":[]},{"type":"error","name":"NotReleaseApprover","inputs":[]},{"type":"error","name":"ScholarshipOnly","inputs":[]},{"type":"error","name":"TransferFailed","inputs":[]},{"type":"error","name":"WrongListingFee","inputs":[]}],"bytecode":{"object":"0x60e06040526001600455348015610014575f5ffd5b50604051612f6b380380612f6b83398181016040528101906100369190610215565b8573ffffffffffffffffffffffffffffffffffffffff1660808173ffffffffffffffffffffffffffffffffffffffff1681525050335f5f6101000a81548173ffffffffffffffffffffffffffffffffffffffff021916908373ffffffffffffffffffffffffffffffffffffffff1602179055508460015f6101000a81548173ffffffffffffffffffffffffffffffffffffffff021916908373ffffffffffffffffffffffffffffffffffffffff1602179055508360025f6101000a81548173ffffffffffffffffffffffffffffffffffffffff021916908373ffffffffffffffffffffffffffffffffffffffff1602179055508260035f6101000a81548173ffffffffffffffffffffffffffffffffffffffff021916908373ffffffffffffffffffffffffffffffffffffffff1602179055508160a081815250508060c0818152505050505050505061029e565b5f5ffd5b5f73ffffffffffffffffffffffffffffffffffffffff82169050919050565b5f6101b182610188565b9050919050565b6101c1816101a7565b81146101cb575f5ffd5b50565b5f815190506101dc816101b8565b92915050565b5f819050919050565b6101f4816101e2565b81146101fe575f5ffd5b50565b5f8151905061020f816101eb565b92915050565b5f5f5f5f5f5f60c0878903121561022f5761022e610184565b5b5f61023c89828a016101ce565b965050602061024d89828a016101ce565b955050604061025e89828a016101ce565b945050606061026f89828a016101ce565b935050608061028089828a01610201565b92505060a061029189828a01610201565b9150509295509295509295565b60805160a05160c051612c6b6103005f395f81816118f70152611fc601525f818161162f015261191d01525f818161069d0152818161078f0152818161098201528181610edd0152818161112f0152818161184e01526119410152612c6b5ff3fe608060405234801561000f575f5ffd5b5060043610610135575f3560e01c80639a706fff116100b6578063be663ada1161007a578063be663ada14610319578063ca2a9dbd14610337578063d4afceb714610355578063d72c564714610385578063dce3b784146103a3578063e1a45218146103c157610135565b80639a706fff14610277578063a9d75b2b14610293578063abb57f44146102b1578063ae78d495146102e1578063b5fa0d65146102fd57610135565b806361d027b3116100fd57806361d027b3146101e35780637dd5e31f146102015780638045b3bd1461021d5780638da5cb5b1461023b5780639242597c1461025957610135565b80631b55e338146101395780631bd2cea1146101555780633ebfd100146101715780635790e6b31461018d57806361449ca2146101a9575b5f5ffd5b610153600480360381019061014e919061207e565b6103df565b005b61016f600480360381019061016a919061207e565b610acc565b005b61018b600480360381019061018691906120a9565b611036565b005b6101a760048036038101906101a29190612141565b611313565b005b6101c360048036038101906101be919061207e565b6113db565b6040516101da9b9a999897969594939291906122e8565b60405180910390f35b6101eb611516565b6040516101f89190612398565b60405180910390f35b61021b60048036038101906102169190612141565b61153b565b005b610225611603565b60405161023291906123b1565b60405180910390f35b610243611609565b6040516102509190612398565b60405180910390f35b61026161162d565b60405161026e91906123b1565b60405180910390f35b610291600480360381019061028c919061207e565b611651565b005b61029b61184c565b6040516102a89190612425565b60405180910390f35b6102cb60048036038101906102c6919061243e565b611870565b6040516102d891906123b1565b60405180910390f35b6102fb60048036038101906102f69190612500565b611890565b005b6103176004803603810190610312919061207e565b611ceb565b005b610321611f9f565b60405161032e9190612398565b60405180910390f35b61033f611fc4565b60405161034c91906123b1565b60405180910390f35b61036f600480360381019061036a919061243e565b611fe8565b60405161037c9190612571565b60405180910390f35b61038d612012565b60405161039a91906123b1565b60405180910390f35b6103ab612018565b6040516103b89190612398565b60405180910390f35b6103c961203d565b6040516103d691906123b1565b60405180910390f35b5f60055f8381526020019081526020015f2090505f815f01540361042f576040517ffae3e0fc00000000000000000000000000000000000000000000000000000000815260040160405180910390fd5b3373ffffffffffffffffffffffffffffffffffffffff16816001015f9054906101000a900473ffffffffffffffffffffffffffffffffffffffff1673ffffffffffffffffffffffffffffffffffffffff16146104b7576040517f93687c0b00000000000000000000000000000000000000000000000000000000815260040160405180910390fd5b8060060160049054906101000a900460ff1615610500576040517fdb9c870000000000000000000000000000000000000000000000000000000000815260040160405180910390fd5b60016003811115610514576105136121fa565b5b8160060160019054906101000a900460ff166003811115610538576105376121fa565b5b1415801561057c575060026003811115610555576105546121fa565b5b8160060160019054906101000a900460ff166003811115610579576105786121fa565b5b14155b156105b3576040517f2b0d75f700000000000000000000000000000000000000000000000000000000815260040160405180910390fd5b5f60018111156105c6576105c56121fa565b5b816006015f9054906101000a900460ff1660018111156105e9576105e86121fa565b5b036108db575f8160040154111561062c576040517f475a253500000000000000000000000000000000000000000000000000000000815260040160405180910390fd5b5f61271061012c836003015461064291906125b7565b61064c9190612625565b90505f81836003015461065f9190612655565b90508260030154836004018190555060028360060160016101000a81548160ff02191690836003811115610696576106956121fa565b5b02179055507f000000000000000000000000000000000000000000000000000000000000000073ffffffffffffffffffffffffffffffffffffffff1663a9059cbb60015f9054906101000a900473ffffffffffffffffffffffffffffffffffffffff16846040518363ffffffff1660e01b8152600401610717929190612688565b6020604051808303815f875af1158015610733573d5f5f3e3d5ffd5b505050506040513d601f19601f8201168201806040525081019061075791906126d9565b61078d576040517f90b8ec1800000000000000000000000000000000000000000000000000000000815260040160405180910390fd5b7f000000000000000000000000000000000000000000000000000000000000000073ffffffffffffffffffffffffffffffffffffffff1663a9059cbb846001015f9054906101000a900473ffffffffffffffffffffffffffffffffffffffff16836040518363ffffffff1660e01b815260040161080b929190612688565b6020604051808303815f875af1158015610827573d5f5f3e3d5ffd5b505050506040513d601f19601f8201168201806040525081019061084b91906126d9565b610881576040517f90b8ec1800000000000000000000000000000000000000000000000000000000815260040160405180910390fd5b3373ffffffffffffffffffffffffffffffffffffffff16847fbb483dcfa903b1eabead85cf7ed8d90d681a859d7c84921ade57fa2bbce8fb568360016040516108cb92919061273d565b60405180910390a3505050610ac9565b5f8160060160029054906101000a900460ff1660ff1614610928576040517f475a253500000000000000000000000000000000000000000000000000000000815260040160405180910390fd5b5f60646014836003015461093c91906125b7565b6109469190612625565b905080826004015f82825461095b9190612764565b9250508190555060018260060160026101000a81548160ff021916908360ff1602179055507f000000000000000000000000000000000000000000000000000000000000000073ffffffffffffffffffffffffffffffffffffffff1663a9059cbb836001015f9054906101000a900473ffffffffffffffffffffffffffffffffffffffff16836040518363ffffffff1660e01b81526004016109fe929190612688565b6020604051808303815f875af1158015610a1a573d5f5f3e3d5ffd5b505050506040513d601f19601f82011682018060405250810190610a3e91906126d9565b610a74576040517f90b8ec1800000000000000000000000000000000000000000000000000000000815260040160405180910390fd5b3373ffffffffffffffffffffffffffffffffffffffff16837fbb483dcfa903b1eabead85cf7ed8d90d681a859d7c84921ade57fa2bbce8fb56836001604051610abe92919061273d565b60405180910390a350505b50565b5f5f9054906101000a900473ffffffffffffffffffffffffffffffffffffffff1673ffffffffffffffffffffffffffffffffffffffff163373ffffffffffffffffffffffffffffffffffffffff1614158015610b75575060025f9054906101000a900473ffffffffffffffffffffffffffffffffffffffff1673ffffffffffffffffffffffffffffffffffffffff163373ffffffffffffffffffffffffffffffffffffffff1614155b15610bac576040517fecd7596e00000000000000000000000000000000000000000000000000000000815260040160405180910390fd5b5f60055f8381526020019081526020015f2090505f815f015403610bfc576040517ffae3e0fc00000000000000000000000000000000000000000000000000000000815260040160405180910390fd5b8060060160049054906101000a900460ff1615610c45576040517fdb9c870000000000000000000000000000000000000000000000000000000000815260040160405180910390fd5b600180811115610c5857610c576121fa565b5b816006015f9054906101000a900460ff166001811115610c7b57610c7a6121fa565b5b14610cb2576040517fcdf3522a00000000000000000000000000000000000000000000000000000000815260040160405180910390fd5b60016003811115610cc657610cc56121fa565b5b8160060160019054906101000a900460ff166003811115610cea57610ce96121fa565b5b14158015610d2e575060026003811115610d0757610d066121fa565b5b8160060160019054906101000a900460ff166003811115610d2b57610d2a6121fa565b5b14155b15610d65576040517f2b0d75f700000000000000000000000000000000000000000000000000000000815260040160405180910390fd5b5f8160060160029054906101000a900460ff1660ff1603610db2576040517f2b0d75f700000000000000000000000000000000000000000000000000000000815260040160405180910390fd5b60038160060160029054906101000a900460ff1660ff1610610e00576040517f475a253500000000000000000000000000000000000000000000000000000000815260040160405180910390fd5b5f60018260060160029054906101000a900460ff1660ff1603610e5f57606460288360030154610e3091906125b7565b610e3a9190612625565b905060028260060160026101000a81548160ff021916908360ff160217905550610ec1565b81600401548260030154610e739190612655565b905060038260060160026101000a81548160ff021916908360ff16021790555060028260060160016101000a81548160ff02191690836003811115610ebb57610eba6121fa565b5b02179055505b80826004015f828254610ed49190612764565b925050819055507f000000000000000000000000000000000000000000000000000000000000000073ffffffffffffffffffffffffffffffffffffffff1663a9059cbb836001015f9054906101000a900473ffffffffffffffffffffffffffffffffffffffff16836040518363ffffffff1660e01b8152600401610f59929190612688565b6020604051808303815f875af1158015610f75573d5f5f3e3d5ffd5b505050506040513d601f19601f82011682018060405250810190610f9991906126d9565b610fcf576040517f90b8ec1800000000000000000000000000000000000000000000000000000000815260040160405180910390fd5b3373ffffffffffffffffffffffffffffffffffffffff16837fbb483dcfa903b1eabead85cf7ed8d90d681a859d7c84921ade57fa2bbce8fb56838560060160029054906101000a900460ff16604051611029929190612797565b60405180910390a3505050565b5f60055f8481526020019081526020015f2090505f815f015403611086576040517ffae3e0fc00000000000000000000000000000000000000000000000000000000815260040160405180910390fd5b5f6003811115611099576110986121fa565b5b8160060160019054906101000a900460ff1660038111156110bd576110bc6121fa565b5b146110f4576040517f50b684b900000000000000000000000000000000000000000000000000000000815260040160405180910390fd5b5f820361112d576040517f2c5211c600000000000000000000000000000000000000000000000000000000815260040160405180910390fd5b7f000000000000000000000000000000000000000000000000000000000000000073ffffffffffffffffffffffffffffffffffffffff166323b872dd3330856040518463ffffffff1660e01b815260040161118a939291906127be565b6020604051808303815f875af11580156111a6573d5f5f3e3d5ffd5b505050506040513d601f19601f820116820180604052508101906111ca91906126d9565b611200576040517f90b8ec1800000000000000000000000000000000000000000000000000000000815260040160405180910390fd5b81816003015f8282546112139190612764565b925050819055508160065f8581526020019081526020015f205f3373ffffffffffffffffffffffffffffffffffffffff1673ffffffffffffffffffffffffffffffffffffffff1681526020019081526020015f205f8282546112759190612764565b9250508190555080600201548160030154106112b95760018160060160016101000a81548160ff021916908360038111156112b3576112b26121fa565b5b02179055505b3373ffffffffffffffffffffffffffffffffffffffff16837f9a98994924b3f454e430a7e3c884aa145467ff2913f30a4b4c428a25797c79758484600301546040516113069291906127f3565b60405180910390a3505050565b5f5f9054906101000a900473ffffffffffffffffffffffffffffffffffffffff1673ffffffffffffffffffffffffffffffffffffffff163373ffffffffffffffffffffffffffffffffffffffff1614611398576040517f30cd747100000000000000000000000000000000000000000000000000000000815260040160405180910390fd5b8060025f6101000a81548173ffffffffffffffffffffffffffffffffffffffff021916908373ffffffffffffffffffffffffffffffffffffffff16021790555050565b6005602052805f5260405f205f91509050805f015490806001015f9054906101000a900473ffffffffffffffffffffffffffffffffffffffff169080600201549080600301549080600401549080600501805461143790612847565b80601f016020809104026020016040519081016040528092919081815260200182805461146390612847565b80156114ae5780601f10611485576101008083540402835291602001916114ae565b820191905f5260205f20905b81548152906001019060200180831161149157829003601f168201915b505050505090806006015f9054906101000a900460ff16908060060160019054906101000a900460ff16908060060160029054906101000a900460ff16908060060160039054906101000a900460ff16908060060160049054906101000a900460ff1690508b565b60015f9054906101000a900473ffffffffffffffffffffffffffffffffffffffff1681565b5f5f9054906101000a900473ffffffffffffffffffffffffffffffffffffffff1673ffffffffffffffffffffffffffffffffffffffff163373ffffffffffffffffffffffffffffffffffffffff16146115c0576040517f30cd747100000000000000000000000000000000000000000000000000000000815260040160405180910390fd5b8060035f6101000a81548173ffffffffffffffffffffffffffffffffffffffff021916908373ffffffffffffffffffffffffffffffffffffffff16021790555050565b61012c81565b5f5f9054906101000a900473ffffffffffffffffffffffffffffffffffffffff1681565b7f000000000000000000000000000000000000000000000000000000000000000081565b60035f9054906101000a900473ffffffffffffffffffffffffffffffffffffffff1673ffffffffffffffffffffffffffffffffffffffff163373ffffffffffffffffffffffffffffffffffffffff16141580156116fa57505f5f9054906101000a900473ffffffffffffffffffffffffffffffffffffffff1673ffffffffffffffffffffffffffffffffffffffff163373ffffffffffffffffffffffffffffffffffffffff1614155b15611731576040517f30cd747100000000000000000000000000000000000000000000000000000000815260040160405180910390fd5b5f60055f8381526020019081526020015f2090505f815f015403611781576040517ffae3e0fc00000000000000000000000000000000000000000000000000000000815260040160405180910390fd5b5f6001811115611794576117936121fa565b5b816006015f9054906101000a900460ff1660018111156117b7576117b66121fa565b5b146117ee576040517f30a236da00000000000000000000000000000000000000000000000000000000815260040160405180910390fd5b60028160060160016101000a81548160ff02191690836003811115611816576118156121fa565b5b0217905550817f45cde17f8d0eb9b41667a9d70a5046de3e0fcaecd491ec2aa5bd2dcc100930d460405160405180910390a25050565b7f000000000000000000000000000000000000000000000000000000000000000081565b6006602052815f5260405f20602052805f5260405f205f91509150505481565b5f84036118c9576040517f2c5211c600000000000000000000000000000000000000000000000000000000815260040160405180910390fd5b5f5f60018111156118dd576118dc6121fa565b5b8460018111156118f0576118ef6121fa565b5b1461191b577f000000000000000000000000000000000000000000000000000000000000000061193d565b7f00000000000000000000000000000000000000000000000000000000000000005b90507f000000000000000000000000000000000000000000000000000000000000000073ffffffffffffffffffffffffffffffffffffffff166323b872dd3360015f9054906101000a900473ffffffffffffffffffffffffffffffffffffffff16846040518463ffffffff1660e01b81526004016119bd939291906127be565b6020604051808303815f875af11580156119d9573d5f5f3e3d5ffd5b505050506040513d601f19601f820116820180604052508101906119fd91906126d9565b611a33576040517f90b8ec1800000000000000000000000000000000000000000000000000000000815260040160405180910390fd5b5f60045f815480929190611a4690612877565b9190505590506040518061016001604052808281526020013373ffffffffffffffffffffffffffffffffffffffff1681526020018781526020015f81526020015f815260200185858080601f0160208091040260200160405190810160405280939291908181526020018383808284375f81840152601f19601f820116905080830192505050505050508152602001866001811115611ae857611ae76121fa565b5b81526020015f6003811115611b0057611aff6121fa565b5b81526020015f60ff1681526020015f60ff1681526020015f151581525060055f8381526020019081526020015f205f820151815f01556020820151816001015f6101000a81548173ffffffffffffffffffffffffffffffffffffffff021916908373ffffffffffffffffffffffffffffffffffffffff16021790555060408201518160020155606082015181600301556080820151816004015560a0820151816005019081611baf9190612a93565b5060c0820151816006015f6101000a81548160ff02191690836001811115611bda57611bd96121fa565b5b021790555060e08201518160060160016101000a81548160ff02191690836003811115611c0a57611c096121fa565b5b02179055506101008201518160060160026101000a81548160ff021916908360ff1602179055506101208201518160060160036101000a81548160ff021916908360ff1602179055506101408201518160060160046101000a81548160ff0219169083151502179055509050505f73ffffffffffffffffffffffffffffffffffffffff163373ffffffffffffffffffffffffffffffffffffffff16827f49dde96853ddabf9e9c0d44c89c2fa61ae4942d24710ad87ad97b39b89302801888a8989604051611cdb9493929190612b9c565b60405180910390a4505050505050565b5f60055f8381526020019081526020015f2090505f815f015403611d3b576040517ffae3e0fc00000000000000000000000000000000000000000000000000000000815260040160405180910390fd5b5f60065f8481526020019081526020015f205f3373ffffffffffffffffffffffffffffffffffffffff1673ffffffffffffffffffffffffffffffffffffffff1681526020019081526020015f205403611dc0576040517f439aada100000000000000000000000000000000000000000000000000000000815260040160405180910390fd5b60075f8381526020019081526020015f205f3373ffffffffffffffffffffffffffffffffffffffff1673ffffffffffffffffffffffffffffffffffffffff1681526020019081526020015f205f9054906101000a900460ff1615611e50576040517f031eeff200000000000000000000000000000000000000000000000000000000815260040160405180910390fd5b600160075f8481526020019081526020015f205f3373ffffffffffffffffffffffffffffffffffffffff1673ffffffffffffffffffffffffffffffffffffffff1681526020019081526020015f205f6101000a81548160ff02191690831515021790555060018160060160038282829054906101000a900460ff16611ed59190612bda565b92506101000a81548160ff021916908360ff16021790555060038160060160039054906101000a900460ff1660ff161115611f285760018160060160046101000a81548160ff0219169083151502179055505b3373ffffffffffffffffffffffffffffffffffffffff16827f9a3b55d0bc7b095b84a1a1562261f2804217ec73c71863976d1b8afa549453188360060160039054906101000a900460ff168460060160049054906101000a900460ff16604051611f93929190612c0e565b60405180910390a35050565b60025f9054906101000a900473ffffffffffffffffffffffffffffffffffffffff1681565b7f000000000000000000000000000000000000000000000000000000000000000081565b6007602052815f5260405f20602052805f5260405f205f915091509054906101000a900460ff1681565b60045481565b60035f9054906101000a900473ffffffffffffffffffffffffffffffffffffffff1681565b61271081565b5f5ffd5b5f5ffd5b5f819050919050565b61205d8161204b565b8114612067575f5ffd5b50565b5f8135905061207881612054565b92915050565b5f6020828403121561209357612092612043565b5b5f6120a08482850161206a565b91505092915050565b5f5f604083850312156120bf576120be612043565b5b5f6120cc8582860161206a565b92505060206120dd8582860161206a565b9150509250929050565b5f73ffffffffffffffffffffffffffffffffffffffff82169050919050565b5f612110826120e7565b9050919050565b61212081612106565b811461212a575f5ffd5b50565b5f8135905061213b81612117565b92915050565b5f6020828403121561215657612155612043565b5b5f6121638482850161212d565b91505092915050565b6121758161204b565b82525050565b61218481612106565b82525050565b5f81519050919050565b5f82825260208201905092915050565b8281835e5f83830152505050565b5f601f19601f8301169050919050565b5f6121cc8261218a565b6121d68185612194565b93506121e68185602086016121a4565b6121ef816121b2565b840191505092915050565b7f4e487b71000000000000000000000000000000000000000000000000000000005f52602160045260245ffd5b60028110612238576122376121fa565b5b50565b5f81905061224882612227565b919050565b5f6122578261223b565b9050919050565b6122678161224d565b82525050565b6004811061227e5761227d6121fa565b5b50565b5f81905061228e8261226d565b919050565b5f61229d82612281565b9050919050565b6122ad81612293565b82525050565b5f60ff82169050919050565b6122c8816122b3565b82525050565b5f8115159050919050565b6122e2816122ce565b82525050565b5f610160820190506122fc5f83018e61216c565b612309602083018d61217b565b612316604083018c61216c565b612323606083018b61216c565b612330608083018a61216c565b81810360a083015261234281896121c2565b905061235160c083018861225e565b61235e60e08301876122a4565b61236c6101008301866122bf565b61237a6101208301856122bf565b6123886101408301846122d9565b9c9b505050505050505050505050565b5f6020820190506123ab5f83018461217b565b92915050565b5f6020820190506123c45f83018461216c565b92915050565b5f819050919050565b5f6123ed6123e86123e3846120e7565b6123ca565b6120e7565b9050919050565b5f6123fe826123d3565b9050919050565b5f61240f826123f4565b9050919050565b61241f81612405565b82525050565b5f6020820190506124385f830184612416565b92915050565b5f5f6040838503121561245457612453612043565b5b5f6124618582860161206a565b92505060206124728582860161212d565b9150509250929050565b60028110612488575f5ffd5b50565b5f813590506124998161247c565b92915050565b5f5ffd5b5f5ffd5b5f5ffd5b5f5f83601f8401126124c0576124bf61249f565b5b8235905067ffffffffffffffff8111156124dd576124dc6124a3565b5b6020830191508360018202830111156124f9576124f86124a7565b5b9250929050565b5f5f5f5f6060858703121561251857612517612043565b5b5f6125258782880161206a565b94505060206125368782880161248b565b935050604085013567ffffffffffffffff81111561255757612556612047565b5b612563878288016124ab565b925092505092959194509250565b5f6020820190506125845f8301846122d9565b92915050565b7f4e487b71000000000000000000000000000000000000000000000000000000005f52601160045260245ffd5b5f6125c18261204b565b91506125cc8361204b565b92508282026125da8161204b565b915082820484148315176125f1576125f061258a565b5b5092915050565b7f4e487b71000000000000000000000000000000000000000000000000000000005f52601260045260245ffd5b5f61262f8261204b565b915061263a8361204b565b92508261264a576126496125f8565b5b828204905092915050565b5f61265f8261204b565b915061266a8361204b565b92508282039050818111156126825761268161258a565b5b92915050565b5f60408201905061269b5f83018561217b565b6126a8602083018461216c565b9392505050565b6126b8816122ce565b81146126c2575f5ffd5b50565b5f815190506126d3816126af565b92915050565b5f602082840312156126ee576126ed612043565b5b5f6126fb848285016126c5565b91505092915050565b5f819050919050565b5f61272761272261271d84612704565b6123ca565b6122b3565b9050919050565b6127378161270d565b82525050565b5f6040820190506127505f83018561216c565b61275d602083018461272e565b9392505050565b5f61276e8261204b565b91506127798361204b565b92508282019050808211156127915761279061258a565b5b92915050565b5f6040820190506127aa5f83018561216c565b6127b760208301846122bf565b9392505050565b5f6060820190506127d15f83018661217b565b6127de602083018561217b565b6127eb604083018461216c565b949350505050565b5f6040820190506128065f83018561216c565b612813602083018461216c565b9392505050565b7f4e487b71000000000000000000000000000000000000000000000000000000005f52602260045260245ffd5b5f600282049050600182168061285e57607f821691505b6020821081036128715761287061281a565b5b50919050565b5f6128818261204b565b91507fffffffffffffffffffffffffffffffffffffffffffffffffffffffffffffffff82036128b3576128b261258a565b5b600182019050919050565b7f4e487b71000000000000000000000000000000000000000000000000000000005f52604160045260245ffd5b5f819050815f5260205f209050919050565b5f6020601f8301049050919050565b5f82821b905092915050565b5f600883026129477fffffffffffffffffffffffffffffffffffffffffffffffffffffffffffffffff8261290c565b612951868361290c565b95508019841693508086168417925050509392505050565b5f61298361297e6129798461204b565b6123ca565b61204b565b9050919050565b5f819050919050565b61299c83612969565b6129b06129a88261298a565b848454612918565b825550505050565b5f5f905090565b6129c76129b8565b6129d2818484612993565b505050565b5f5b828110156129f8576129ed5f8284016129bf565b6001810190506129d9565b505050565b601f821115612a4b5782821115612a4a57612a17816128eb565b612a20836128fd565b612a29856128fd565b6020861015612a36575f90505b808301612a45828403826129d7565b505050505b5b505050565b5f82821c905092915050565b5f612a6b5f1984600802612a50565b1980831691505092915050565b5f612a838383612a5c565b9150826002028217905092915050565b612a9c8261218a565b67ffffffffffffffff811115612ab557612ab46128be565b5b612abf8254612847565b612aca8282856129fd565b5f60209050601f831160018114612afb575f8415612ae9578287015190505b612af38582612a78565b865550612b5a565b601f198416612b09866128eb565b5f5b82811015612b3057848901518255600182019150602085019450602081019050612b0b565b86831015612b4d5784890151612b49601f891682612a5c565b8355505b6001600288020188555050505b505050505050565b828183375f83830152505050565b5f612b7b8385612194565b9350612b88838584612b62565b612b91836121b2565b840190509392505050565b5f606082019050612baf5f83018761225e565b612bbc602083018661216c565b8181036040830152612bcf818486612b70565b905095945050505050565b5f612be4826122b3565b9150612bef836122b3565b9250828201905060ff811115612c0857612c0761258a565b5b92915050565b5f604082019050612c215f8301856122bf565b612c2e60208301846122d9565b939250505056fea2646970667358221220c930df3b23e0e185c87b9ea99a97b284c26749919f35bdc821bfae47ac8b83f864736f6c63430008220033","linkReferences":{}},"methodIdentifiers":{"BPS_DENOMINATOR()":"e1a45218","SUCCESS_FEE_BPS()":"8045b3bd","approveRelease(uint256)":"1bd2cea1","backendFulfillmentSigner()":"dce3b784","billListingFee()":"9242597c","claimFunds(uint256)":"1b55e338","createGoal(uint256,uint8,string)":"ae78d495","donationsByDonor(uint256,address)":"abb57f44","flagGoal(uint256)":"b5fa0d65","fundGoal(uint256,uint256)":"3ebfd100","goals(uint256)":"61449ca2","hasFlagged(uint256,address)":"d4afceb7","markBillFulfilled(uint256)":"9a706fff","nextGoalId()":"d72c5647","owner()":"8da5cb5b","releaseApprover()":"be663ada","scholarshipListingFee()":"ca2a9dbd","setBackendFulfillmentSigner(address)":"7dd5e31f","setReleaseApprover(address)":"5790e6b3","stableToken()":"a9d75b2b","treasury()":"61d027b3"},"id":20}