{"abi":[{"type":"constructor","inputs":[{"name":"stableToken_","type":"address","internalType":"address"},{"name":"treasury_","type":"address","internalType":"address"},{"name":"releaseApprover_","type":"address","internalType":"address"},{"name":"backendFulfillmentSigner_","type":"address","internalType":"address"},{"name":"billListingFee_","type":"uint256","internalType":"uint256"},{"name":"scholarshipListingFee_","type":"uint256","internalType":"uint256"}],"stateMutability":"nonpayable"},{"type":"function","name":"BPS_DENOMINATOR","inputs":[],"outputs":[{"name":"","type":"uint256","internalType":"uint256"}],"stateMutability":"view"},{"type":"function","name":"SUCCESS_FEE_BPS","inputs":[],"outputs":[{"name":"","type":"uint256","internalType":"uint256"}],"stateMutability":"view"},{"type":"function","name":"approveRelease","inputs":[{"name":"goalId","type":"uint256","internalType":"uint256"}],"outputs":[],"stateMutability":"nonpayable"},{"type":"function","name":"backendFulfillmentSigner","inputs":[],"outputs":[{"name":"","type":"address","internalType":"address"}],"stateMutability":"view"},{"type":"function","name":"billListingFee","inputs":[],"outputs":[{"name":"","type":"uint256","internalType":"uint256"}],"stateMutability":"view"},{"type":"function","name":"claimFunds","inputs":[{"name":"goalId","type":"uint256","internalType":"uint256"}],"outputs":[],"stateMutability":"nonpayable"},{"type":"function","name":"createGoal","inputs":[{"name":"targetAmount","type":"uint256","internalType":"uint256"},{"name":"category","type":"uint8","internalType":"enum ImpactPay.Category"},{"name":"description","type":"string","internalType":"string"}],"outputs":[],"stateMutability":"nonpayable"},{"type":"function","name":"donationsByDonor","inputs":[{"name":"","type":"uint256","internalType":"uint256"},{"name":"","type":"address","internalType":"address"}],"outputs":[{"name":"","type":"uint256","internalType":"uint256"}],"stateMutability":"view"},{"type":"function","name":"donorRefunded","inputs":[{"name":"","type":"uint256","internalType":"uint256"},{"name":"","type":"address","internalType":"address"}],"outputs":[{"name":"","type":"bool","internalType":"bool"}],"stateMutability":"view"},{"type":"function","name":"flagGoal","inputs":[{"name":"goalId","type":"uint256","internalType":"uint256"}],"outputs":[],"stateMutability":"nonpayable"},{"type":"function","name":"fundGoal","inputs":[{"name":"goalId","type":"uint256","internalType":"uint256"},{"name":"amount","type":"uint256","internalType":"uint256"}],"outputs":[],"stateMutability":"nonpayable"},{"type":"function","name":"goals","inputs":[{"name":"","type":"uint256","internalType":"uint256"}],"outputs":[{"name":"id","type":"uint256","internalType":"uint256"},{"name":"creator","type":"address","internalType":"address"},{"name":"targetAmount","type":"uint256","internalType":"uint256"},{"name":"raisedAmount","type":"uint256","internalType":"uint256"},{"name":"withdrawnAmount","type":"uint256","internalType":"uint256"},{"name":"refundedAmount","type":"uint256","internalType":"uint256"},{"name":"milestoneDeadline","type":"uint64","internalType":"uint64"},{"name":"description","type":"string","internalType":"string"},{"name":"category","type":"uint8","internalType":"enum ImpactPay.Category"},{"name":"status","type":"uint8","internalType":"enum ImpactPay.GoalStatus"},{"name":"milestoneIndex","type":"uint8","internalType":"uint8"},{"name":"flagsCount","type":"uint8","internalType":"uint8"},{"name":"lockedForReview","type":"bool","internalType":"bool"}],"stateMutability":"view"},{"type":"function","name":"hasFlagged","inputs":[{"name":"","type":"uint256","internalType":"uint256"},{"name":"","type":"address","internalType":"address"}],"outputs":[{"name":"","type":"bool","internalType":"bool"}],"stateMutability":"view"},{"type":"function","name":"level3Verified","inputs":[{"name":"","type":"address","internalType":"address"}],"outputs":[{"name":"","type":"bool","internalType":"bool"}],"stateMutability":"view"},{"type":"function","name":"markBillFulfilled","inputs":[{"name":"goalId","type":"uint256","internalType":"uint256"}],"outputs":[],"stateMutability":"nonpayable"},{"type":"function","name":"nextGoalId","inputs":[],"outputs":[{"name":"","type":"uint256","internalType":"uint256"}],"stateMutability":"view"},{"type":"function","name":"onVerificationSuccess","inputs":[{"name":"user","type":"address","internalType":"address"}],"outputs":[],"stateMutability":"nonpayable"},{"type":"function","name":"owner","inputs":[],"outputs":[{"name":"","type":"address","internalType":"address"}],"stateMutability":"view"},{"type":"function","name":"paused","inputs":[],"outputs":[{"name":"","type":"bool","internalType":"bool"}],"stateMutability":"view"},{"type":"function","name":"refund","inputs":[{"name":"goalId","type":"uint256","internalType":"uint256"}],"outputs":[],"stateMutability":"nonpayable"},{"type":"function","name":"releaseApprover","inputs":[],"outputs":[{"name":"","type":"address","internalType":"address"}],"stateMutability":"view"},{"type":"function","name":"scholarshipListingFee","inputs":[],"outputs":[{"name":"","type":"uint256","internalType":"uint256"}],"stateMutability":"view"},{"type":"function","name":"setBackendFulfillmentSigner","inputs":[{"name":"newSigner","type":"address","internalType":"address"}],"outputs":[],"stateMutability":"nonpayable"},{"type":"function","name":"setPaused","inputs":[{"name":"state","type":"bool","internalType":"bool"}],"outputs":[],"stateMutability":"nonpayable"},{"type":"function","name":"setReleaseApprover","inputs":[{"name":"newApprover","type":"address","internalType":"address"}],"outputs":[],"stateMutability":"nonpayable"},{"type":"function","name":"stableToken","inputs":[],"outputs":[{"name":"","type":"address","internalType":"contract IERC20Like"}],"stateMutability":"view"},{"type":"function","name":"treasury","inputs":[],"outputs":[{"name":"","type":"address","internalType":"address"}],"stateMutability":"view"},{"type":"event","name":"Completed","inputs":[{"name":"goalId","type":"uint256","indexed":true,"internalType":"uint256"},{"name":"donor","type":"address","indexed":true,"internalType":"address"},{"name":"amountReleased","type":"uint256","indexed":false,"internalType":"uint256"},{"name":"milestoneIndex","type":"uint8","indexed":false,"internalType":"uint8"}],"anonymous":false},{"type":"event","name":"Funded","inputs":[{"name":"goalId","type":"uint256","indexed":true,"internalType":"uint256"},{"name":"donor","type":"address","indexed":true,"internalType":"address"},{"name":"amount","type":"uint256","indexed":false,"internalType":"uint256"},{"name":"totalRaised","type":"uint256","indexed":false,"internalType":"uint256"}],"anonymous":false},{"type":"event","name":"GoalCreated","inputs":[{"name":"goalId","type":"uint256","indexed":true,"internalType":"uint256"},{"name":"creator","type":"address","indexed":true,"internalType":"address"},{"name":"donor","type":"address","indexed":true,"internalType":"address"},{"name":"category","type":"uint8","indexed":false,"internalType":"enum ImpactPay.Category"},{"name":"targetAmount","type":"uint256","indexed":false,"internalType":"uint256"},{"name":"description","type":"string","indexed":false,"internalType":"string"}],"anonymous":false},{"type":"event","name":"GoalFlagged","inputs":[{"name":"goalId","type":"uint256","indexed":true,"internalType":"uint256"},{"name":"donor","type":"address","indexed":true,"internalType":"address"},{"name":"flagsCount","type":"uint8","indexed":false,"internalType":"uint8"},{"name":"lockedForReview","type":"bool","indexed":false,"internalType":"bool"}],"anonymous":false},{"type":"event","name":"GoalFulfilled","inputs":[{"name":"goalId","type":"uint256","indexed":true,"internalType":"uint256"}],"anonymous":false},{"type":"event","name":"Paused","inputs":[{"name":"state","type":"bool","indexed":false,"internalType":"bool"}],"anonymous":false},{"type":"event","name":"Refunded","inputs":[{"name":"goalId","type":"uint256","indexed":true,"internalType":"uint256"},{"name":"donor","type":"address","indexed":true,"internalType":"address"},{"name":"amount","type":"uint256","indexed":false,"internalType":"uint256"}],"anonymous":false},{"type":"event","name":"ReputationUpdated","inputs":[{"name":"account","type":"address","indexed":true,"internalType":"address"},{"name":"delta","type":"int256","indexed":false,"internalType":"int256"},{"name":"reason","type":"string","indexed":false,"internalType":"string"}],"anonymous":false},{"type":"error","name":"AlreadyFinalized","inputs":[]},{"type":"error","name":"AlreadyFlagged","inputs":[]},{"type":"error","name":"AlreadyRefunded","inputs":[]},{"type":"error","name":"BillOnly","inputs":[]},{"type":"error","name":"GoalLocked","inputs":[]},{"type":"error","name":"GoalNotFound","inputs":[]},{"type":"error","name":"GoalNotFunded","inputs":[]},{"type":"error","name":"GoalNotOpen","inputs":[]},{"type":"error","name":"InvalidAmount","inputs":[]},{"type":"error","name":"Level3Required","inputs":[]},{"type":"error","name":"NotCreator","inputs":[]},{"type":"error","name":"NotDonor","inputs":[]},{"type":"error","name":"NotOwner","inputs":[]},{"type":"error","name":"NotReleaseApprover","inputs":[]},{"type":"error","name":"NotVerified","inputs":[]},{"type":"error","name":"PausedError","inputs":[]},{"type":"error","name":"RefundNotAvailable","inputs":[]},{"type":"error","name":"ScholarshipOnly","inputs":[]},{"type":"error","name":"TransferFailed","inputs":[]},{"type":"error","name":"WrongListingFee","inputs":[]}],"bytecode":{"object":"0x60e03461013d57601f611d3d38819003918201601f19168301916001600160401b038311848410176101415780849260c09460405283398101031261013d5761004781610155565b9061005460208201610155565b61006060408301610155565b61006c60608401610155565b60808481015160a09586015160016004819055600a8190556001600160a01b039889169093525f80546001600160a01b03199081163317909155835481169689169690961790925560028054861694881694909417909355600380549094169590911694909417909155905260c052604051611bd3908161016a82396080518181816105c601528181610aa001528181610f5301528181611225015281816114dc0152818161193d0152611a3f015260a0518181816105670152610bcc015260c05181818161028201526109ee0152f35b5f80fd5b634e487b7160e01b5f52604160045260245ffd5b51906001600160a01b038216820361013d5756fe6080806040526004361015610012575f80fd5b5f3560e01c90816316c38b3c14611686575080631b55e3381461164a5780631bd2cea114611375578063278ecde1146110985780633c6093fe1461104f5780633ebfd10014610eb85780635790e6b314610e6c5780635c975abb14610e4757806361449ca214610ca657806361d027b314610c7e5780637dd5e31f14610c325780638045b3bd14610c165780638da5cb5b14610bef5780639242597c14610bb55780639a706fff14610acf578063a9d75b2b14610a8b578063abb57f4414610a47578063ae78d495146104da578063b5fa0d651461030a578063be663ada146102e2578063c82bd54b146102a5578063ca2a9dbd1461026b578063d4afceb714610222578063d72c564714610205578063dce3b784146101dd578063e1a45218146101c15763e9cb86a214610145575f80fd5b346101bd5760203660031901126101bd5761015e61170e565b6003546001600160a01b0316331415806101a9575b61019a576001600160a01b03165f908152600960205260409020805460ff19166001179055005b6330cd747160e01b5f5260045ffd5b505f546001600160a01b0316331415610173565b5f80fd5b346101bd575f3660031901126101bd5760206040516127108152f35b346101bd575f3660031901126101bd576003546040516001600160a01b039091168152602090f35b346101bd575f3660031901126101bd576020600454604051908152f35b346101bd5760403660031901126101bd5761023b6116f8565b6004355f52600760205260405f209060018060a01b03165f52602052602060ff60405f2054166040519015158152f35b346101bd575f3660031901126101bd5760206040517f00000000000000000000000000000000000000000000000000000000000000008152f35b346101bd5760203660031901126101bd576001600160a01b036102c661170e565b165f526009602052602060ff60405f2054166040519015158152f35b346101bd575f3660031901126101bd576002546040516001600160a01b039091168152602090f35b346101bd5760203660031901126101bd5760043560ff60035460a01c166104cb57805f52600560205260405f20908154156104bc575f818152600660209081526040808320338452909152902054156104ad575f81815260076020908152604080832033845290915290205460ff1661049e57805f52600760205260405f2060018060a01b0333165f5260205260405f20600160ff1982541617905560088201600160ff825460181c160160ff811161048a57815463ff000000191660189190911b63ff000000161781558054600360ff8260181c1611610473575b50549060ff60405192818160181c16845260201c16151560208301527f9a3b55d0bc7b095b84a1a1562261f2804217ec73c71863976d1b8afa5494531860403393a36001808060a01b03910154165f516020611b7e5f395f51905f5260806040516101f319815260406020820152600c60408201526b19dbd85b17d99b1859d9d95960a21b6060820152a2005b64ff000000001916640100000000178155836103e6565b634e487b7160e01b5f52601160045260245ffd5b63018f77f960e11b5f5260045ffd5b63439aada160e01b5f5260045ffd5b633eb8f83f60e21b5f5260045ffd5b633b3b4caf60e21b5f5260045ffd5b346101bd5760603660031901126101bd57600260243510156101bd576044356001600160401b0381116101bd57366023820112156101bd576001600160401b038160040135116101bd573660248260040135830101116101bd5760ff60035460a01c166104cb5760043515610a385760016024351480610a21575b610a12576024356109e7576105c160207f00000000000000000000000000000000000000000000000000000000000000005b6001546040516323b872dd60e01b81523360048201526001600160a01b039091166024820152604481019190915291829081906064820190565b03815f7f00000000000000000000000000000000000000000000000000000000000000006001600160a01b03165af19081156109dc575f916109ad575b501561099e57600454905f19821461048a5760018201600455604051916101a083018381106001600160401b0382111761098a5760405280835233602084015260043560408401525f60608401525f60808401525f60a08401525f60c08401526040516106796020601f19601f86600401350116018261175c565b60048301358082526024840160208301375f602084600401358301015260e08401526024356101008401525f6101208401525f6101408401525f6101608401525f610180840152805f52600560205260405f20835181556001810160018060a01b036020860151166bffffffffffffffffffffffff60a01b82541617905560408401516002820155606084015160038201556080840151600482015560a084015160058201556001600160401b0360c0850151166001600160401b036006830191166001600160401b03198254161790556007810160e08501518051906001600160401b03821161098a5761076e8354611724565b601f8111610939575b50602090601f83116001146108d2576008949392915f91836108c7575b50508160011b915f199060031b1c19161790555b0161010084015160028110156108b35760ff8019835416911617815561012084015160048110156108b357815461014086015161016087015163ffffff001990921660089390931b61ff00169290921760109290921b62ff0000169190911760189190911b63ff000000161781555f936101800151815464ff00000000191690151560201b64ff00000000161790556040517f49dde96853ddabf9e9c0d44c89c2fa61ae4942d24710ad87ad97b39b89302801906108688160243561177d565b6004356020820152606060408201528360040135606082015283600401356024850160808301378460808560040135830101526080813395601f8019916004013501168101030190a4005b634e487b7160e01b5f52602160045260245ffd5b015190508880610794565b90601f19831691845f52815f20925f5b818110610921575091600193918560089897969410610909575b505050811b0190556107a8565b01515f1960f88460031b161c191690558880806108fc565b929360206001819287860151815501950193016108e2565b8281111561077757835f5260205f20601f840160051c9060208510610982575b81601f9101920160051c03905f5b828110610975575050610777565b5f82820155600101610967565b5f9150610959565b634e487b7160e01b5f52604160045260245ffd5b6312171d8360e31b5f5260045ffd5b6109cf915060203d6020116109d5575b6109c7818361175c565b8101906117d0565b826105fe565b503d6109bd565b6040513d5f823e3d90fd5b6105c160207f0000000000000000000000000000000000000000000000000000000000000000610587565b636c7272bb60e11b5f5260045ffd5b50335f52600960205260ff60405f20541615610555565b63162908e360e11b5f5260045ffd5b346101bd5760403660031901126101bd57610a606116f8565b6004355f52600660205260405f209060018060a01b03165f52602052602060405f2054604051908152f35b346101bd575f3660031901126101bd576040517f00000000000000000000000000000000000000000000000000000000000000006001600160a01b03168152602090f35b346101bd5760203660031901126101bd5760043560035460ff8160a01c166104cb576001600160a01b031633141580610ba1575b61019a57805f52600560205260405f208054156104bc57600881019060ff82541660028110156108b357610b92575f516020611b7e5f395f51905f529161020061ff0019825416179055604051927f45cde17f8d0eb9b41667a9d70a5046de3e0fcaecd491ec2aa5bd2dcc100930d45f80a2600101546001600160a01b03169180610b8d816117e8565b0390a2005b6318511b6d60e11b5f5260045ffd5b505f546001600160a01b0316331415610b03565b346101bd575f3660031901126101bd5760206040517f00000000000000000000000000000000000000000000000000000000000000008152f35b346101bd575f3660031901126101bd575f546040516001600160a01b039091168152602090f35b346101bd575f3660031901126101bd57602060405161012c8152f35b346101bd5760203660031901126101bd57610c4b61170e565b5f546001600160a01b0316330361019a57600380546001600160a01b0319166001600160a01b0392909216919091179055005b346101bd575f3660031901126101bd576001546040516001600160a01b039091168152602090f35b346101bd5760203660031901126101bd576004355f52600560205260405f2080549060018060a01b0360018201541690600281015490600381015490600481015460058201546001600160401b0360068401541691600784019460405194855f885498610d128a611724565b90818452602084019a6001811690815f14610e2a5750600114610deb575b505060089291610d4191038861175c565b01549660ff8860081c16986040519a8b5260208b015260408a01526060890152608088015260a087015260c08601526101a060e0860152518091816101a08701526101c086015e5f6101c08286010152610da2610100850160ff841661177d565b60048310156108b35760ff84926101c094610120850152818160101c16610140850152818160181c1661016085015260201c161515610180830152601f80199101168101030190f35b5f908152602081209092505b818310610e0e575050810160200181610d41610d30565b6020919350806001915483858d01015201910190918892610df7565b60ff19168c525050151560051b8201602001905081610d41610d30565b346101bd575f3660031901126101bd57602060ff60035460a01c166040519015158152f35b346101bd5760203660031901126101bd57610e8561170e565b5f546001600160a01b0316330361019a57600280546001600160a01b0319166001600160a01b0392909216919091179055005b346101bd5760403660031901126101bd576004356024359060ff60035460a01c166104cb57610eeb6001600a541461178a565b6002600a55805f52600560205260405f208054156104bc576008810160ff815460081c1660048110156108b357611040578315610a38576040516323b872dd60e01b8152336004820152306024820152604481018590526020816064815f6001600160a01b037f0000000000000000000000000000000000000000000000000000000000000000165af19081156109dc575f91611021575b501561099e576003820191610f99858454611818565b8355835f52600660205260405f2060018060a01b0333165f5260205260405f20610fc4868254611818565b905560028354910154111561100e575b505460405192835260208301527f9a98994924b3f454e430a7e3c884aa145467ff2913f30a4b4c428a25797c797560403393a36001600a55005b805461ff00191661010017905583610fd4565b61103a915060203d6020116109d5576109c7818361175c565b85610f83565b6350b684b960e01b5f5260045ffd5b346101bd5760403660031901126101bd576110686116f8565b6004355f52600860205260405f209060018060a01b03165f52602052602060ff60405f2054166040519015158152f35b346101bd5760203660031901126101bd5760043560ff60035460a01c166104cb576110c76001600a541461178a565b6002600a55805f52600560205260405f20908154156104bc576008820190815460ff811660028110156108b3576001036113665760101c60ff1680156113295760021115611329576001600160401b03600684015416801590811561135b575b50611329575f818152600660209081526040808320338452909152902054156104ad575f81815260086020908152604080832033845290915290205460ff1661134c5760038301918254926111806004860154856117c3565b9361119160058701958654906117c3565b5f85815260066020908152604080832033845290915290205481810291811591830414171561048a5781156113385704938415611329575f8481526008602090815260408083203384529091529020805460ff1916600117905580546111f8908690611818565b815560405163a9059cbb60e01b8152336004820152602481018690526020816044815f6001600160a01b037f0000000000000000000000000000000000000000000000000000000000000000165af19081156109dc575f9161130a575b501561099e5754905460508102908082046050149015171561048a576064900411156112f7575b506040519182527f7ca5472b7ea78c2c0141c5a12ee6d170cf4ce8ed06be3d22c8252ddfc7a6a2c460203393a36001808060a01b03910154165f516020611b7e5f395f51905f52608060405160c719815260406020820152600b60408201526a1c1c9bdbd997dd5b9b595d60aa1b6060820152a26001600a55005b805461ff0019166103001790558361127c565b611323915060203d6020116109d5576109c7818361175c565b87611255565b630b4d698160e01b5f5260045ffd5b634e487b7160e01b5f52601260045260245ffd5b63542f378d60e11b5f5260045ffd5b905042111584611127565b6366f9a91560e11b5f5260045ffd5b346101bd5760203660031901126101bd5760043560018060a01b035f541633141580611635575b6116265760ff60035460a01c166104cb576113bb6001600a541461178a565b6002600a55805f52600560205260405f20908154156104bc576008820190815460ff8160201c166116185760ff811660028110156108b3576001036113665760ff8160081c1660048110156108b3576001811415908161160c575b506115fd5760101c60ff1680156115fd5760038110156115ee576001036115b157600383015460288102908082046028149015171561048a5760649004926202000062ff0000198454161783556276a70042019081421161048a576001916001600160401b0380600684019216166001600160401b03198254161790555b600481016114a3868254611818565b905501805460405163a9059cbb60e01b81526001600160a01b03909116600482015260248101859052909390602081806044810103815f7f00000000000000000000000000000000000000000000000000000000000000006001600160a01b03165af19081156109dc575f91611592575b501561099e5760ff6003935460101c16916040519182528260208301527fbb483dcfa903b1eabead85cf7ed8d90d681a859d7c84921ade57fa2bbce8fb5660403393a314611564575b6001600a55005b60018060a01b039054165f516020611b7e5f395f51905f5260405180611589816117e8565b0390a28061155d565b6115ab915060203d6020116109d5576109c7818361175c565b85611514565b60016115c660038501546004860154906117c3565b835462ffff0019166203020017845560068501805467ffffffffffffffff1916905593611494565b63475a253560e01b5f5260045ffd5b632b0d75f760e01b5f5260045ffd5b60029150141585611416565b62db9c8760e81b5f5260045ffd5b63766bacb760e11b5f5260045ffd5b506002546001600160a01b031633141561139c565b346101bd5760203660031901126101bd5760ff60035460a01c166104cb576116766001600a541461178a565b6002600a5561155d600435611825565b346101bd5760203660031901126101bd576004358015158091036101bd575f546001600160a01b0316330361019a576003805460ff60a01b191660a083901b60ff60a01b1617905581527f0e2fb031ee032dc02d8011dc50b816eb450cf856abd8261680dac74f72165bd290602090a1005b602435906001600160a01b03821682036101bd57565b600435906001600160a01b03821682036101bd57565b90600182811c92168015611752575b602083101461173e57565b634e487b7160e01b5f52602260045260245ffd5b91607f1691611733565b90601f801991011681019081106001600160401b0382111761098a57604052565b9060028210156108b35752565b1561179157565b60405162461bcd60e51b815260206004820152600a6024820152695245454e5452414e435960b01b6044820152606490fd5b9190820391821161048a57565b908160209103126101bd575180151581036101bd5790565b6080906064815260406020820152600e60408201526d19dbd85b17d99d5b199a5b1b195960921b60608201520190565b9190820180921161048a57565b805f52600560205260405f20908154156104bc576001820180546001600160a01b03163303611b6e576008830192835460ff8160201c166116185760ff8160081c1660048110156108b35760018114159081611b62575b506115fd5760ff1660028110156108b357156119cf5760ff845460101c166115ee57600381015460148102908082046014149015171561048a576064900493600482016118ca868254611818565b90556201000062ff0000198254161790556276a70042019081421161048a57600601805467ffffffffffffffff19166001600160401b039092169190911790555460405163a9059cbb60e01b81526001600160a01b0391909116600482015260248101839052602081806044810103815f7f00000000000000000000000000000000000000000000000000000000000000006001600160a01b03165af19081156109dc575f916119b0575b501561099e57604051918252600160208301527fbb483dcfa903b1eabead85cf7ed8d90d681a859d7c84921ade57fa2bbce8fb5660403393a3565b6119c9915060203d6020116109d5576109c7818361175c565b5f611975565b919092600483019283546115ee57600301549061012c820282810461012c148315171561048a57612710900491611a0683826117c3565b9455805461ff00191661020017905560015460405163a9059cbb60e01b81526001600160a01b03918216600482015260248101929092527f000000000000000000000000000000000000000000000000000000000000000016906020816044815f865af19081156109dc575f91611b43575b501561099e57835460405163a9059cbb60e01b81526001600160a01b0390911660048201526024810184905290602090829060449082905f905af19081156109dc575f91611b24575b501561099e57604051918252600160208301527fbb483dcfa903b1eabead85cf7ed8d90d681a859d7c84921ade57fa2bbce8fb5660403393a360018060a01b039054165f516020611b7e5f395f51905f5260405180611b1f816117e8565b0390a2565b611b3d915060203d6020116109d5576109c7818361175c565b5f611ac1565b611b5c915060203d6020116109d5576109c7818361175c565b5f611a78565b6002915014155f61187c565b6393687c0b60e01b5f5260045ffdfe98e7125ffa91f30e48c41d89cafc2d5a18816934ae0f4c4c1346ef926add2f78a26469706673582212207f5f75368ef49e3857886f5b576f40491f497b782a5f7ed5a74b86669cdb056764736f6c63430008220033","linkReferences":{}},"methodIdentifiers":{"BPS_DENOMINATOR()":"e1a45218","SUCCESS_FEE_BPS()":"8045b3bd","approveRelease(uint256)":"1bd2cea1","backendFulfillmentSigner()":"dce3b784","billListingFee()":"9242597c","claimFunds(uint256)":"1b55e338","createGoal(uint256,uint8,string)":"ae78d495","donationsByDonor(uint256,address)":"abb57f44","donorRefunded(uint256,address)":"3c6093fe","flagGoal(uint256)":"b5fa0d65","fundGoal(uint256,uint256)":"3ebfd100","goals(uint256)":"61449ca2","hasFlagged(uint256,address)":"d4afceb7","level3Verified(address)":"c82bd54b","markBillFulfilled(uint256)":"9a706fff","nextGoalId()":"d72c5647","onVerificationSuccess(address)":"e9cb86a2","owner()":"8da5cb5b","paused()":"5c975abb","refund(uint256)":"278ecde1","releaseApprover()":"be663ada","scholarshipListingFee()":"ca2a9dbd","setBackendFulfillmentSigner(address)":"7dd5e31f","setPaused(bool)":"16c38b3c","setReleaseApprover(address)":"5790e6b3","stableToken()":"a9d75b2b","treasury()":"61d027b3"},"id":20}