{"abi":[{"type":"constructor","inputs":[{"name":"stableToken_","type":"address","internalType":"address"},{"name":"treasury_","type":"address","internalType":"address"},{"name":"releaseApprover_","type":"address","internalType":"address"},{"name":"backendFulfillmentSigner_","type":"address","internalType":"address"}],"stateMutability":"nonpayable"},{"type":"function","name":"BPS_DENOMINATOR","inputs":[],"outputs":[{"name":"","type":"uint256","internalType":"uint256"}],"stateMutability":"view"},{"type":"function","name":"activeGoals","inputs":[{"name":"","type":"address","internalType":"address"}],"outputs":[{"name":"","type":"uint256","internalType":"uint256"}],"stateMutability":"view"},{"type":"function","name":"approveScholarshipRelease","inputs":[{"name":"goalIds","type":"uint256[]","internalType":"uint256[]"}],"outputs":[{"name":"","type":"bool","internalType":"bool"}],"stateMutability":"nonpayable"},{"type":"function","name":"backendFulfillmentSigner","inputs":[],"outputs":[{"name":"","type":"address","internalType":"address"}],"stateMutability":"view"},{"type":"function","name":"billListingFee","inputs":[],"outputs":[{"name":"","type":"uint256","internalType":"uint256"}],"stateMutability":"view"},{"type":"function","name":"billServices","inputs":[{"name":"","type":"uint256","internalType":"uint256"}],"outputs":[{"name":"","type":"address","internalType":"address"}],"stateMutability":"view"},{"type":"function","name":"billSuccessFeeBP","inputs":[],"outputs":[{"name":"","type":"uint256","internalType":"uint256"}],"stateMutability":"view"},{"type":"function","name":"claimFund","inputs":[{"name":"goalId","type":"uint256","internalType":"uint256"}],"outputs":[{"name":"","type":"bool","internalType":"bool"}],"stateMutability":"nonpayable"},{"type":"function","name":"claimScholarshipFunds","inputs":[{"name":"goalId","type":"uint256","internalType":"uint256"},{"name":"recipient","type":"address","internalType":"address"}],"outputs":[{"name":"","type":"bool","internalType":"bool"}],"stateMutability":"nonpayable"},{"type":"function","name":"createBillGoal","inputs":[{"name":"targetAmount","type":"uint256","internalType":"uint256"},{"name":"description","type":"string","internalType":"string"},{"name":"serviceType","type":"string","internalType":"string"},{"name":"extraInfo","type":"string","internalType":"string"},{"name":"billServiceIndex","type":"uint8","internalType":"uint8"}],"outputs":[{"name":"","type":"bool","internalType":"bool"}],"stateMutability":"nonpayable"},{"type":"function","name":"createGoal","inputs":[{"name":"targetAmount","type":"uint256","internalType":"uint256"},{"name":"description","type":"string","internalType":"string"},{"name":"extraInfo","type":"string","internalType":"string"}],"outputs":[{"name":"","type":"bool","internalType":"bool"}],"stateMutability":"nonpayable"},{"type":"function","name":"createScholarshipGoal","inputs":[{"name":"targetAmount","type":"uint256","internalType":"uint256"},{"name":"description","type":"string","internalType":"string"},{"name":"extraInfo","type":"string","internalType":"string"}],"outputs":[{"name":"","type":"bool","internalType":"bool"}],"stateMutability":"nonpayable"},{"type":"function","name":"defaultListingFee","inputs":[],"outputs":[{"name":"","type":"uint256","internalType":"uint256"}],"stateMutability":"view"},{"type":"function","name":"fulfillGoal","inputs":[{"name":"goalId","type":"uint256","internalType":"uint256"},{"name":"status","type":"uint8","internalType":"enum ImpactPay.GoalStatus"}],"outputs":[{"name":"","type":"bool","internalType":"bool"}],"stateMutability":"nonpayable"},{"type":"function","name":"fundGoal","inputs":[{"name":"goalId","type":"uint256","internalType":"uint256"},{"name":"amount","type":"uint256","internalType":"uint256"},{"name":"extraInfo","type":"string","internalType":"string"}],"outputs":[{"name":"","type":"bool","internalType":"bool"}],"stateMutability":"nonpayable"},{"type":"function","name":"getGoal","inputs":[{"name":"goalId","type":"uint256","internalType":"uint256"}],"outputs":[{"name":"data","type":"tuple","internalType":"struct ImpactPay.GetGoal","components":[{"name":"bill","type":"tuple","internalType":"struct ImpactPay.BillGoal","components":[{"name":"serviceType","type":"bytes","internalType":"bytes"},{"name":"billService","type":"address","internalType":"address"}]},{"name":"scholarship","type":"tuple","internalType":"struct ImpactPay.ScholarshipGoal","components":[{"name":"refundedAmount","type":"uint256","internalType":"uint256"},{"name":"milestoneDeadline","type":"uint64","internalType":"uint64"},{"name":"milestone","type":"uint8","internalType":"enum ImpactPay.Milestone"},{"name":"disputed","type":"bool","internalType":"bool"}]},{"name":"common","type":"tuple","internalType":"struct ImpactPay.CommonData","components":[{"name":"id","type":"uint256","internalType":"uint256"},{"name":"creator","type":"address","internalType":"address"},{"name":"targetAmount","type":"uint256","internalType":"uint256"},{"name":"raisedAmount","type":"uint256","internalType":"uint256"},{"name":"withdrawnAmount","type":"uint256","internalType":"uint256"},{"name":"description","type":"bytes","internalType":"bytes"},{"name":"status","type":"uint8","internalType":"enum ImpactPay.GoalStatus"},{"name":"goalType","type":"uint8","internalType":"enum ImpactPay.GoalType"},{"name":"flagsCount","type":"uint8","internalType":"uint8"},{"name":"lockedForReview","type":"bool","internalType":"bool"}]},{"name":"funders","type":"tuple[]","internalType":"struct ImpactPay.Funder[]","components":[{"name":"amount","type":"uint256","internalType":"uint256"},{"name":"id","type":"address","internalType":"address"},{"name":"extraInfo","type":"bytes","internalType":"bytes"},{"name":"fundedAt","type":"uint64","internalType":"uint64"},{"name":"hasFlagged","type":"bool","internalType":"bool"}]}]}],"stateMutability":"view"},{"type":"function","name":"getGoalIdAndState","inputs":[{"name":"user","type":"address","internalType":"address"}],"outputs":[{"name":"data","type":"tuple","internalType":"struct ImpactPay.GetGoalIdAndState","components":[{"name":"goalIds","type":"uint256[]","internalType":"uint256[]"},{"name":"treasury","type":"address","internalType":"address"},{"name":"releaseApprover","type":"address","internalType":"address"},{"name":"backendFulfillmentSigner","type":"address","internalType":"address"},{"name":"billListingFee","type":"uint256","internalType":"uint256"},{"name":"scholarshipListingFee","type":"uint256","internalType":"uint256"},{"name":"defaultListingFee","type":"uint256","internalType":"uint256"},{"name":"scholarshipFeeBP","type":"uint256","internalType":"uint256"},{"name":"billSuccessFeeBP","type":"uint256","internalType":"uint256"},{"name":"goalCounter","type":"uint256","internalType":"uint256"},{"name":"maxGoal","type":"uint256","internalType":"uint256"},{"name":"billServices","type":"address[]","internalType":"address[]"},{"name":"verifications","type":"tuple","internalType":"struct ImpactPay.Verification","components":[{"name":"lvl1","type":"bool","internalType":"bool"},{"name":"lvl2","type":"bool","internalType":"bool"},{"name":"lvl3","type":"bool","internalType":"bool"}]},{"name":"restricted","type":"bool","internalType":"bool"},{"name":"reputation","type":"uint256","internalType":"uint256"}]}],"stateMutability":"view"},{"type":"function","name":"goalCounter","inputs":[],"outputs":[{"name":"","type":"uint256","internalType":"uint256"}],"stateMutability":"view"},{"type":"function","name":"goalIDs","inputs":[{"name":"","type":"address","internalType":"address"},{"name":"","type":"uint256","internalType":"uint256"}],"outputs":[{"name":"","type":"uint256","internalType":"uint256"}],"stateMutability":"view"},{"type":"function","name":"goals","inputs":[{"name":"","type":"uint256","internalType":"uint256"}],"outputs":[{"name":"cData","type":"tuple","internalType":"struct ImpactPay.CommonData","components":[{"name":"id","type":"uint256","internalType":"uint256"},{"name":"creator","type":"address","internalType":"address"},{"name":"targetAmount","type":"uint256","internalType":"uint256"},{"name":"raisedAmount","type":"uint256","internalType":"uint256"},{"name":"withdrawnAmount","type":"uint256","internalType":"uint256"},{"name":"description","type":"bytes","internalType":"bytes"},{"name":"status","type":"uint8","internalType":"enum ImpactPay.GoalStatus"},{"name":"goalType","type":"uint8","internalType":"enum ImpactPay.GoalType"},{"name":"flagsCount","type":"uint8","internalType":"uint8"},{"name":"lockedForReview","type":"bool","internalType":"bool"}]},{"name":"bill","type":"tuple","internalType":"struct ImpactPay.BillGoal","components":[{"name":"serviceType","type":"bytes","internalType":"bytes"},{"name":"billService","type":"address","internalType":"address"}]},{"name":"scholarship","type":"tuple","internalType":"struct ImpactPay.ScholarshipGoal","components":[{"name":"refundedAmount","type":"uint256","internalType":"uint256"},{"name":"milestoneDeadline","type":"uint64","internalType":"uint64"},{"name":"milestone","type":"uint8","internalType":"enum ImpactPay.Milestone"},{"name":"disputed","type":"bool","internalType":"bool"}]}],"stateMutability":"view"},{"type":"function","name":"levels","inputs":[{"name":"","type":"address","internalType":"address"},{"name":"","type":"uint8","internalType":"enum ImpactPay.Level"}],"outputs":[{"name":"","type":"bool","internalType":"bool"}],"stateMutability":"view"},{"type":"function","name":"maxGoal","inputs":[],"outputs":[{"name":"","type":"uint256","internalType":"uint256"}],"stateMutability":"view"},{"type":"function","name":"milestonePercent","inputs":[{"name":"","type":"uint8","internalType":"enum ImpactPay.Milestone"}],"outputs":[{"name":"","type":"uint8","internalType":"uint8"}],"stateMutability":"view"},{"type":"function","name":"onVerificationSuccess","inputs":[{"name":"user","type":"address","internalType":"address"},{"name":"lvl","type":"uint8","internalType":"enum ImpactPay.Level"}],"outputs":[],"stateMutability":"nonpayable"},{"type":"function","name":"owner","inputs":[],"outputs":[{"name":"","type":"address","internalType":"address"}],"stateMutability":"view"},{"type":"function","name":"pause","inputs":[],"outputs":[],"stateMutability":"nonpayable"},{"type":"function","name":"paused","inputs":[],"outputs":[{"name":"","type":"bool","internalType":"bool"}],"stateMutability":"view"},{"type":"function","name":"reactivateGoal","inputs":[{"name":"goalId","type":"uint256","internalType":"uint256"}],"outputs":[{"name":"","type":"bool","internalType":"bool"}],"stateMutability":"nonpayable"},{"type":"function","name":"refundScholarship","inputs":[{"name":"goalId","type":"uint256","internalType":"uint256"}],"outputs":[],"stateMutability":"nonpayable"},{"type":"function","name":"relayBillFundsToService","inputs":[{"name":"goalId","type":"uint256","internalType":"uint256"},{"name":"amount","type":"uint256","internalType":"uint256"}],"outputs":[],"stateMutability":"nonpayable"},{"type":"function","name":"releaseApprover","inputs":[],"outputs":[{"name":"","type":"address","internalType":"address"}],"stateMutability":"view"},{"type":"function","name":"renounceOwnership","inputs":[],"outputs":[],"stateMutability":"nonpayable"},{"type":"function","name":"reputationScores","inputs":[{"name":"","type":"address","internalType":"address"}],"outputs":[{"name":"","type":"uint256","internalType":"uint256"}],"stateMutability":"view"},{"type":"function","name":"restrictions","inputs":[{"name":"","type":"address","internalType":"address"}],"outputs":[{"name":"","type":"bool","internalType":"bool"}],"stateMutability":"view"},{"type":"function","name":"scholarshipFeeBP","inputs":[],"outputs":[{"name":"","type":"uint256","internalType":"uint256"}],"stateMutability":"view"},{"type":"function","name":"scholarshipListingFee","inputs":[],"outputs":[{"name":"","type":"uint256","internalType":"uint256"}],"stateMutability":"view"},{"type":"function","name":"setBackendFulfillmentSigner","inputs":[{"name":"newSigner","type":"address","internalType":"address"}],"outputs":[],"stateMutability":"nonpayable"},{"type":"function","name":"setBillListingFee","inputs":[{"name":"newListingFee","type":"uint256","internalType":"uint256"}],"outputs":[{"name":"","type":"bool","internalType":"bool"}],"stateMutability":"nonpayable"},{"type":"function","name":"setBillService","inputs":[{"name":"newBillService","type":"address","internalType":"address"}],"outputs":[{"name":"","type":"bool","internalType":"bool"}],"stateMutability":"nonpayable"},{"type":"function","name":"setDefaultListingFee","inputs":[{"name":"newListingFee","type":"uint256","internalType":"uint256"}],"outputs":[{"name":"","type":"bool","internalType":"bool"}],"stateMutability":"nonpayable"},{"type":"function","name":"setMaxGoal","inputs":[{"name":"max","type":"uint256","internalType":"uint256"}],"outputs":[],"stateMutability":"nonpayable"},{"type":"function","name":"setReleaseApprover","inputs":[{"name":"newApprover","type":"address","internalType":"address"}],"outputs":[],"stateMutability":"nonpayable"},{"type":"function","name":"setRestriction","inputs":[{"name":"target","type":"address","internalType":"address"},{"name":"status","type":"bool","internalType":"bool"}],"outputs":[{"name":"","type":"bool","internalType":"bool"}],"stateMutability":"nonpayable"},{"type":"function","name":"setScolarshipListingFee","inputs":[{"name":"newListingFee","type":"uint256","internalType":"uint256"}],"outputs":[{"name":"","type":"bool","internalType":"bool"}],"stateMutability":"nonpayable"},{"type":"function","name":"stableToken","inputs":[],"outputs":[{"name":"","type":"address","internalType":"contract IERC20"}],"stateMutability":"view"},{"type":"function","name":"toggleFlagGoal","inputs":[{"name":"goalId","type":"uint256","internalType":"uint256"}],"outputs":[],"stateMutability":"nonpayable"},{"type":"function","name":"toggleUseBillService","inputs":[],"outputs":[{"name":"","type":"bool","internalType":"bool"}],"stateMutability":"nonpayable"},{"type":"function","name":"toggleUseVerifier","inputs":[],"outputs":[{"name":"","type":"bool","internalType":"bool"}],"stateMutability":"nonpayable"},{"type":"function","name":"transferOwnership","inputs":[{"name":"newOwner","type":"address","internalType":"address"}],"outputs":[],"stateMutability":"nonpayable"},{"type":"function","name":"treasury","inputs":[],"outputs":[{"name":"","type":"address","internalType":"address"}],"stateMutability":"view"},{"type":"function","name":"unpause","inputs":[],"outputs":[],"stateMutability":"nonpayable"},{"type":"event","name":"BillGoalFulfilled","inputs":[{"name":"goalId","type":"uint256","indexed":true,"internalType":"uint256"},{"name":"service","type":"address","indexed":true,"internalType":"address"},{"name":"creator","type":"address","indexed":true,"internalType":"address"},{"name":"amount","type":"uint256","indexed":false,"internalType":"uint256"},{"name":"serviceType","type":"bytes","indexed":false,"internalType":"bytes"},{"name":"reputation","type":"uint256","indexed":false,"internalType":"uint256"}],"anonymous":false},{"type":"event","name":"Funded","inputs":[{"name":"goalId","type":"uint256","indexed":true,"internalType":"uint256"},{"name":"donor","type":"address","indexed":true,"internalType":"address"},{"name":"amount","type":"uint256","indexed":false,"internalType":"uint256"},{"name":"totalRaised","type":"uint256","indexed":false,"internalType":"uint256"},{"name":"goalType","type":"uint8","indexed":false,"internalType":"enum ImpactPay.GoalType"},{"name":"extraInfo","type":"string","indexed":false,"internalType":"string"}],"anonymous":false},{"type":"event","name":"GoalCreated","inputs":[{"name":"goalId","type":"uint256","indexed":true,"internalType":"uint256"},{"name":"creator","type":"address","indexed":true,"internalType":"address"},{"name":"goalType","type":"uint8","indexed":false,"internalType":"enum ImpactPay.GoalType"},{"name":"targetAmount","type":"uint256","indexed":false,"internalType":"uint256"},{"name":"description","type":"bytes","indexed":false,"internalType":"bytes"},{"name":"serviceType","type":"string","indexed":false,"internalType":"string"},{"name":"billService","type":"address","indexed":false,"internalType":"address"},{"name":"extraInfo","type":"string","indexed":false,"internalType":"string"}],"anonymous":false},{"type":"event","name":"GoalFlagged","inputs":[{"name":"goalId","type":"uint256","indexed":true,"internalType":"uint256"},{"name":"donor","type":"address","indexed":true,"internalType":"address"},{"name":"flagsCount","type":"uint8","indexed":false,"internalType":"uint8"},{"name":"lockedForReview","type":"bool","indexed":false,"internalType":"bool"},{"name":"goalType","type":"uint8","indexed":false,"internalType":"enum ImpactPay.GoalType"},{"name":"creator","type":"address","indexed":true,"internalType":"address"},{"name":"reputationSlash","type":"int256","indexed":false,"internalType":"int256"},{"name":"comment","type":"string","indexed":false,"internalType":"string"}],"anonymous":false},{"type":"event","name":"OwnershipTransferred","inputs":[{"name":"previousOwner","type":"address","indexed":true,"internalType":"address"},{"name":"newOwner","type":"address","indexed":true,"internalType":"address"}],"anonymous":false},{"type":"event","name":"Paused","inputs":[{"name":"account","type":"address","indexed":false,"internalType":"address"}],"anonymous":false},{"type":"event","name":"Refunded","inputs":[{"name":"goalId","type":"uint256","indexed":true,"internalType":"uint256"},{"name":"donor","type":"address","indexed":true,"internalType":"address"},{"name":"amount","type":"uint256","indexed":false,"internalType":"uint256"},{"name":"creator","type":"address","indexed":true,"internalType":"address"},{"name":"reputationSlice","type":"int256","indexed":false,"internalType":"int256"},{"name":"comment","type":"string","indexed":false,"internalType":"string"}],"anonymous":false},{"type":"event","name":"ReputationUpdated","inputs":[{"name":"user","type":"address","indexed":true,"internalType":"address"},{"name":"change","type":"uint16","indexed":false,"internalType":"uint16"},{"name":"reason","type":"string","indexed":false,"internalType":"string"}],"anonymous":false},{"type":"event","name":"ScholarshipWithdrawal","inputs":[{"name":"goalId","type":"uint256","indexed":true,"internalType":"uint256"},{"name":"recipient","type":"address","indexed":true,"internalType":"address"},{"name":"creator","type":"address","indexed":true,"internalType":"address"},{"name":"amount","type":"uint256","indexed":false,"internalType":"uint256"},{"name":"reputation","type":"uint256","indexed":false,"internalType":"uint256"},{"name":"milestoneIndex","type":"uint8","indexed":false,"internalType":"uint8"},{"name":"goalType","type":"uint8","indexed":false,"internalType":"uint8"}],"anonymous":false},{"type":"event","name":"Unpaused","inputs":[{"name":"account","type":"address","indexed":false,"internalType":"address"}],"anonymous":false},{"type":"error","name":"AlreadyFinalized","inputs":[]},{"type":"error","name":"DeadlineNotMet","inputs":[]},{"type":"error","name":"EnforcedPause","inputs":[]},{"type":"error","name":"ExpectedPause","inputs":[]},{"type":"error","name":"GoalLocked","inputs":[]},{"type":"error","name":"GoalNotFound","inputs":[]},{"type":"error","name":"InvalidAmount","inputs":[]},{"type":"error","name":"MaxGoalExceeded","inputs":[]},{"type":"error","name":"NotReleaseApprover","inputs":[]},{"type":"error","name":"OwnableInvalidOwner","inputs":[{"name":"owner","type":"address","internalType":"address"}]},{"type":"error","name":"OwnableUnauthorizedAccount","inputs":[{"name":"account","type":"address","internalType":"address"}]},{"type":"error","name":"ReentrancyGuardReentrantCall","inputs":[]},{"type":"error","name":"RefundNotAvailable","inputs":[]},{"type":"error","name":"SafeERC20FailedOperation","inputs":[{"name":"token","type":"address","internalType":"address"}]}],"bytecode":{"object":"0x60a060405261012c60075561012c60085534801561001b575f5ffd5b5060405161901a38038061901a833981810160405281019061003d919061052b565b61004b6103d160201b60201c565b5f73ffffffffffffffffffffffffffffffffffffffff168173ffffffffffffffffffffffffffffffffffffffff16036100bb575f6040517f1e4fbdf70000000000000000000000000000000000000000000000000000000081526004016100b2919061059e565b60405180910390fd5b6100ca816103d860201b60201c565b5060016100e96100de61049b60201b60201c565b6104c460201b60201c565b5f01819055508373ffffffffffffffffffffffffffffffffffffffff1660808173ffffffffffffffffffffffffffffffffffffffff16815250508260015f6101000a81548173ffffffffffffffffffffffffffffffffffffffff021916908373ffffffffffffffffffffffffffffffffffffffff1602179055508160025f6101000a81548173ffffffffffffffffffffffffffffffffffffffff021916908373ffffffffffffffffffffffffffffffffffffffff1602179055508060035f6101000a81548173ffffffffffffffffffffffffffffffffffffffff021916908373ffffffffffffffffffffffffffffffffffffffff1602179055505f600c5f6101000a81548160ff0219169083151502179055505f600c60016101000a81548160ff021916908315150217905550662386f26fc1000060048190555066038d7ea4c6800060068190555067016345785d8a00006005819055505f60135f5f6004811115610258576102576105b7565b5b600481111561026a576102696105b7565b5b81526020019081526020015f205f6101000a81548160ff021916908360ff160217905550601460135f600160048111156102a7576102a66105b7565b5b60048111156102b9576102b86105b7565b5b81526020019081526020015f205f6101000a81548160ff021916908360ff160217905550602860135f600260048111156102f6576102f56105b7565b5b6004811115610308576103076105b7565b5b81526020019081526020015f205f6101000a81548160ff021916908360ff160217905550602860135f60036004811115610345576103446105b7565b5b6004811115610357576103566105b7565b5b81526020019081526020015f205f6101000a81548160ff021916908360ff1602179055505f60135f600480811115610392576103916105b7565b5b60048111156103a4576103a36105b7565b5b81526020019081526020015f205f6101000a81548160ff021916908360ff160217905550505050506105e4565b5f33905090565b5f5f60019054906101000a900473ffffffffffffffffffffffffffffffffffffffff169050815f60016101000a81548173ffffffffffffffffffffffffffffffffffffffff021916908373ffffffffffffffffffffffffffffffffffffffff1602179055508173ffffffffffffffffffffffffffffffffffffffff168173ffffffffffffffffffffffffffffffffffffffff167f8be0079c531659141344cd1fd0a4f28419497f9722a3daafe3b4186f6b6457e060405160405180910390a35050565b5f7f9b779b17422d0df92223018b32b4d1fa46e071723d6817e2486d003becc55f005f1b905090565b5f819050919050565b5f5ffd5b5f73ffffffffffffffffffffffffffffffffffffffff82169050919050565b5f6104fa826104d1565b9050919050565b61050a816104f0565b8114610514575f5ffd5b50565b5f8151905061052581610501565b92915050565b5f5f5f5f60808587031215610543576105426104cd565b5b5f61055087828801610517565b945050602061056187828801610517565b935050604061057287828801610517565b925050606061058387828801610517565b91505092959194509250565b610598816104f0565b82525050565b5f6020820190506105b15f83018461058f565b92915050565b7f4e487b71000000000000000000000000000000000000000000000000000000005f52602160045260245ffd5b6080516189e66106345f395f8181610ffe015281816120080152818161208b0152818161397901528181613d5d01528181614cde0152818161550b015281816159bc0152615a1001526189e65ff3fe608060405234801561000f575f5ffd5b50600436106102ef575f3560e01c80638d3345291161019b578063ca2a9dbd116100e7578063df6ed6cb116100a0578063f2fde38b1161007a578063f2fde38b146109cb578063f71441a5146109e7578063f9e9ad3914610a05578063fe0438b214610a23576102ef565b8063df6ed6cb1461094d578063e1a452181461097d578063e5c594511461099b576102ef565b8063ca2a9dbd14610865578063cd74be7914610883578063d47e673e1461089f578063d7b4206a146108cf578063d81c47b7146108ff578063dce3b7841461092f576102ef565b8063a9d75b2b11610154578063be663ada1161012e578063be663ada146107df578063bf2cd2b8146107fd578063c0e524b31461082d578063c435ae0c14610849576102ef565b8063a9d75b2b14610761578063b6510a3b1461077f578063bae073fa146107af576102ef565b80638d334529146106775780638da5cb5b146106a75780639242597c146106c5578063992c3a07146106e35780639c50296114610713578063a4e14acd14610731576102ef565b80635c975abb1161025a578063715018a6116102135780637dd5e31f116101ed5780637dd5e31f146106055780637fc57de31461062157806383c8cae9146106515780638456cb591461066d576102ef565b8063715018a61461059b57806372469777146105a55780637ad22f44146105d5576102ef565b80635c975abb146104af5780635c9c61a5146104cd57806361449ca2146104fd57806361d027b31461052f5780636716192d1461054d5780636ec998d21461056b576102ef565b80633775e76f116102ac5780633775e76f146103db5780633e22ceb01461040b5780633f4ba83a1461042957806345d391ea146104335780634e7a19f4146104635780635790e6b314610493576102ef565b80631a15cd49146102f35780631adaa84d146103235780632514f7e61461033f5780632aa6e44b1461035d5780632ff9e7731461038d57806331c7364f146103ab575b5f5ffd5b61030d60048036038101906103089190616237565b610a53565b60405161031a919061627c565b60405180910390f35b61033d60048036038101906103389190616237565b610a6c565b005b610347611176565b60405161035491906162a4565b60405180910390f35b61037760048036038101906103729190616354565b61117c565b604051610384919061627c565b60405180910390f35b61039561141f565b6040516103a2919061627c565b60405180910390f35b6103c560048036038101906103c09190616237565b61145c565b6040516103d2919061627c565b60405180910390f35b6103f560048036038101906103f09190616485565b6118db565b60405161040291906162a4565b60405180910390f35b6104136118f0565b60405161042091906162a4565b60405180910390f35b6104316118f6565b005b61044d600480360381019061044891906164b0565b611908565b60405161045a919061627c565b60405180910390f35b61047d600480360381019061047891906164ee565b612252565b60405161048a919061627c565b60405180910390f35b6104ad60048036038101906104a89190616485565b6123e2565b005b6104b761242d565b6040516104c4919061627c565b60405180910390f35b6104e760048036038101906104e291906164ee565b612441565b6040516104f4919061627c565b60405180910390f35b61051760048036038101906105129190616237565b6125d0565b604051610526939291906168b0565b60405180910390f35b610537612942565b6040516105449190616902565b60405180910390f35b610555612967565b604051610562919061627c565b60405180910390f35b61058560048036038101906105809190616a53565b6129a6565b604051610592919061627c565b60405180910390f35b6105a3612ba3565b005b6105bf60048036038101906105ba9190616abd565b612bb6565b6040516105cc9190616af7565b60405180910390f35b6105ef60048036038101906105ea9190616485565b612bd3565b6040516105fc919061627c565b60405180910390f35b61061f600480360381019061061a9190616485565b612ce3565b005b61063b60048036038101906106369190616237565b612d2e565b604051610648919061627c565b60405180910390f35b61066b60048036038101906106669190616237565b612d47565b005b61067561348b565b005b610691600480360381019061068c9190616485565b61349d565b60405161069e919061627c565b60405180910390f35b6106af6134ba565b6040516106bc9190616902565b60405180910390f35b6106cd6134e2565b6040516106da91906162a4565b60405180910390f35b6106fd60048036038101906106f89190616b10565b6134e8565b60405161070a91906162a4565b60405180910390f35b61071b613513565b60405161072891906162a4565b60405180910390f35b61074b60048036038101906107469190616485565b613519565b6040516107589190616e25565b60405180910390f35b610769613977565b6040516107769190616ea0565b60405180910390f35b61079960048036038101906107949190616f69565b61399b565b6040516107a6919061627c565b60405180910390f35b6107c960048036038101906107c49190616237565b613e73565b6040516107d6919061627c565b60405180910390f35b6107e7613f94565b6040516107f49190616902565b60405180910390f35b61081760048036038101906108129190616237565b613fb9565b604051610824919061627c565b60405180910390f35b61084760048036038101906108429190616fd5565b613fd2565b005b610863600480360381019061085e9190616237565b6140da565b005b61086d6140ec565b60405161087a91906162a4565b60405180910390f35b61089d60048036038101906108989190617036565b6140f2565b005b6108b960048036038101906108b49190617036565b614278565b6040516108c6919061627c565b60405180910390f35b6108e960048036038101906108e4919061709e565b6142a2565b6040516108f6919061627c565b60405180910390f35b610919600480360381019061091491906170ff565b614309565b604051610926919061627c565b60405180910390f35b6109376145b3565b6040516109449190616902565b60405180910390f35b61096760048036038101906109629190616237565b6145d8565b604051610974919061743d565b60405180910390f35b610985614b04565b60405161099291906162a4565b60405180910390f35b6109b560048036038101906109b09190616237565b614b0a565b6040516109c29190616902565b60405180910390f35b6109e560048036038101906109e09190616485565b614b45565b005b6109ef614bc9565b6040516109fc91906162a4565b60405180910390f35b610a0d614bcf565b604051610a1a91906162a4565b60405180910390f35b610a3d6004803603810190610a389190616485565b614bd5565b604051610a4a91906162a4565b60405180910390f35b5f610a5c614bea565b8160068190555060019050919050565b610a74614c71565b60105f8273ffffffffffffffffffffffffffffffffffffffff1673ffffffffffffffffffffffffffffffffffffffff1681526020019081526020015f205f9054906101000a900460ff1615610afe576040517f08c379a0000000000000000000000000000000000000000000000000000000008152600401610af5906174b7565b60405180910390fd5b610b06614c78565b610b0e614cb9565b5f600d5f8481526020019081526020015f2090505f610b2b614c71565b90505f825f015f015403610b6b576040517ffae3e0fc00000000000000000000000000000000000000000000000000000000815260040160405180910390fd5b5f826009019050600480811115610b8557610b8461660d565b5b8160010160089054906101000a900460ff166004811115610ba957610ba861660d565b5b03610be9576040517f08c379a0000000000000000000000000000000000000000000000000000000008152600401610be09061751f565b60405180910390fd5b5f816001015f9054906101000a900467ffffffffffffffff1667ffffffffffffffff16118015610c395750806001015f9054906101000a900467ffffffffffffffff1667ffffffffffffffff1642115b610c78576040517f08c379a0000000000000000000000000000000000000000000000000000000008152600401610c6f9061751f565b60405180910390fd5b5f5f5f90505b84600b0180549050811015610e77575f85600b018281548110610ca457610ca361753d565b5b905f5260205f2090600402016040518060a00160405290815f8201548152602001600182015f9054906101000a900473ffffffffffffffffffffffffffffffffffffffff1673ffffffffffffffffffffffffffffffffffffffff1673ffffffffffffffffffffffffffffffffffffffff168152602001600282018054610d2990617597565b80601f0160208091040260200160405190810160405280929190818152602001828054610d5590617597565b8015610da05780601f10610d7757610100808354040283529160200191610da0565b820191905f5260205f20905b815481529060010190602001808311610d8357829003601f168201915b50505050508152602001600382015f9054906101000a900467ffffffffffffffff1667ffffffffffffffff1667ffffffffffffffff1681526020016003820160089054906101000a900460ff16151515158152505090508473ffffffffffffffffffffffffffffffffffffffff16816020015173ffffffffffffffffffffffffffffffffffffffff1603610e6957805f015183610e3d91906175f4565b92505f86600b018381548110610e5657610e5561753d565b5b905f5260205f2090600402015f01819055505b508080600101915050610c7e565b505f8111610eba576040517f08c379a0000000000000000000000000000000000000000000000000000000008152600401610eb190617671565b60405180910390fd5b5f845f0190505f835f01548260040154610ed491906175f4565b8260030154610ee3919061768f565b90505f8111610f27576040517f08c379a0000000000000000000000000000000000000000000000000000000008152600401610f1e9061770c565b60405180910390fd5b5f82600301548285610f39919061772a565b610f439190617798565b90505f8103610f7e576040517f0b4d698100000000000000000000000000000000000000000000000000000000815260040160405180910390fd5b610f8b5f5f886001614cdb565b80855f015f828254610f9d91906175f4565b92505081905550606460508460030154610fb7919061772a565b610fc19190617798565b855f015410610ff7576003836006015f6101000a81548160ff02191690836003811115610ff157610ff061660d565b5b02179055505b61104286827f000000000000000000000000000000000000000000000000000000000000000073ffffffffffffffffffffffffffffffffffffffff16614ea49092919063ffffffff16565b865f016001015f9054906101000a900473ffffffffffffffffffffffffffffffffffffffff1673ffffffffffffffffffffffffffffffffffffffff168673ffffffffffffffffffffffffffffffffffffffff168a7fbfce0dbbcb5fa76b86c14279c6335dfc06a3900509b9236bd0c4a9209a8f7d04847fffffffffffffffffffffffffffffffffffffffffffffffffffffffffffffff386040516110e7929190617854565b60405180910390a4865f016001015f9054906101000a900473ffffffffffffffffffffffffffffffffffffffff1673ffffffffffffffffffffffffffffffffffffffff167f566a46acc4d72477a0809103760bbffe65781480ede2c4a6d44219249467899360c860405161115b919061791e565b60405180910390a250505050505050611172614ef7565b5050565b60085481565b5f5f611186614c71565b600c60019054906101000a900460ff16156112585760115f8273ffffffffffffffffffffffffffffffffffffffff1673ffffffffffffffffffffffffffffffffffffffff1681526020019081526020015f205f8360028111156111ec576111eb61660d565b5b60028111156111fe576111fd61660d565b5b81526020019081526020015f205f9054906101000a900460ff16611257576040517f08c379a000000000000000000000000000000000000000000000000000000000815260040161124e90617994565b60405180910390fd5b5b5f600b8054905090505f5f8211156112f157818660ff16106112af576040517f08c379a00000000000000000000000000000000000000000000000000000000081526004016112a6906179fc565b60405180910390fd5b600b8660ff16815481106112c6576112c561753d565b5b905f5260205f20015f9054906101000a900473ffffffffffffffffffffffffffffffffffffffff1690505b61140a8d8b8b8080601f0160208091040260200160405190810160405280939291908181526020018383808284375f81840152601f19601f820116905080830192505050505050508e8e8080601f0160208091040260200160405190810160405280939291908181526020018383808284375f81840152601f19601f820116905080830192505050505050505f73ffffffffffffffffffffffffffffffffffffffff168573ffffffffffffffffffffffffffffffffffffffff16146113b657846113bf565b6113be614c71565b5b60018d8d8080601f0160208091040260200160405190810160405280939291908181526020018383808284375f81840152601f19601f82011690508083019250505050505050614f11565b50600194505050505098975050505050505050565b5f611428614bea565b5f600c5f9054906101000a900460ff1690508015600c5f6101000a81548160ff021916908315150217905550600191505090565b5f611465614c71565b60105f8273ffffffffffffffffffffffffffffffffffffffff1673ffffffffffffffffffffffffffffffffffffffff1681526020019081526020015f205f9054906101000a900460ff16156114ef576040517f08c379a00000000000000000000000000000000000000000000000000000000081526004016114e6906174b7565b60405180910390fd5b60016114f9614c71565b600c60019054906101000a900460ff16156115cb5760115f8273ffffffffffffffffffffffffffffffffffffffff1673ffffffffffffffffffffffffffffffffffffffff1681526020019081526020015f205f83600281111561155f5761155e61660d565b5b60028111156115715761157061660d565b5b81526020019081526020015f205f9054906101000a900460ff166115ca576040517f08c379a00000000000000000000000000000000000000000000000000000000081526004016115c190617994565b60405180910390fd5b5b6115d3614c78565b6115db614cb9565b5f600d5f8781526020019081526020015f2090505f815f016001015f9054906101000a900473ffffffffffffffffffffffffffffffffffffffff1690508073ffffffffffffffffffffffffffffffffffffffff163373ffffffffffffffffffffffffffffffffffffffff16148061168457506116556134ba565b73ffffffffffffffffffffffffffffffffffffffff163373ffffffffffffffffffffffffffffffffffffffff16145b6116c3576040517f08c379a00000000000000000000000000000000000000000000000000000000081526004016116ba90617a64565b60405180910390fd5b5f600c5f9054906101000a900460ff1690505f835f01604051806101400160405290815f8201548152602001600182015f9054906101000a900473ffffffffffffffffffffffffffffffffffffffff1673ffffffffffffffffffffffffffffffffffffffff1673ffffffffffffffffffffffffffffffffffffffff16815260200160028201548152602001600382015481526020016004820154815260200160058201805461177190617597565b80601f016020809104026020016040519081016040528092919081815260200182805461179d90617597565b80156117e85780601f106117bf576101008083540402835291602001916117e8565b820191905f5260205f20905b8154815290600101906020018083116117cb57829003601f168201915b50505050508152602001600682015f9054906101000a900460ff1660038111156118155761181461660d565b5b60038111156118275761182661660d565b5b81526020016006820160019054906101000a900460ff1660028111156118505761184f61660d565b5b60028111156118625761186161660d565b5b81526020016006820160029054906101000a900460ff1660ff1660ff1681526020016006820160039054906101000a900460ff16151515158152505090505f816080015182606001516118b5919061768f565b90506118c28a82856155b7565b6001985050505050506118d3614ef7565b505050919050565b600f602052805f5260405f205f915090505481565b60065481565b6118fe614bea565b611906615b65565b565b5f611911614c71565b60105f8273ffffffffffffffffffffffffffffffffffffffff1673ffffffffffffffffffffffffffffffffffffffff1681526020019081526020015f205f9054906101000a900460ff161561199b576040517f08c379a0000000000000000000000000000000000000000000000000000000008152600401611992906174b7565b60405180910390fd5b60026119a5614c71565b600c60019054906101000a900460ff1615611a775760115f8273ffffffffffffffffffffffffffffffffffffffff1673ffffffffffffffffffffffffffffffffffffffff1681526020019081526020015f205f836002811115611a0b57611a0a61660d565b5b6002811115611a1d57611a1c61660d565b5b81526020019081526020015f205f9054906101000a900460ff16611a76576040517f08c379a0000000000000000000000000000000000000000000000000000000008152600401611a6d90617994565b60405180910390fd5b5b611a7f614c78565b611a87614cb9565b5f611ac98760016040518060400160405280600a81526020017f4e6f742046756e64656400000000000000000000000000000000000000000000815250615bc5565b90505f8160090190505f825f0190505f5f73ffffffffffffffffffffffffffffffffffffffff168973ffffffffffffffffffffffffffffffffffffffff161490508260010160099054906101000a900460ff1615611b5c576040517f08c379a0000000000000000000000000000000000000000000000000000000008152600401611b5390617acc565b60405180910390fd5b600280811115611b6f57611b6e61660d565b5b8260060160019054906101000a900460ff166002811115611b9357611b9261660d565b5b14611bd3576040517f08c379a0000000000000000000000000000000000000000000000000000000008152600401611bca90617b34565b60405180910390fd5b80611c7157611be0614c71565b73ffffffffffffffffffffffffffffffffffffffff16826001015f9054906101000a900473ffffffffffffffffffffffffffffffffffffffff1673ffffffffffffffffffffffffffffffffffffffff1614611c70576040517f08c379a0000000000000000000000000000000000000000000000000000000008152600401611c6790617b9c565b60405180910390fd5b5b8160060160039054906101000a900460ff1615611cc3576040517f08c379a0000000000000000000000000000000000000000000000000000000008152600401611cba90617c04565b60405180910390fd5b60018260060160036101000a81548160ff02191690831515021790555060018360010160089054906101000a900460ff166004811115611d0657611d0561660d565b5b611d109190617c22565b60ff166004811115611d2557611d2461660d565b5b8360010160086101000a81548160ff02191690836004811115611d4b57611d4a61660d565b5b02179055505f60036004811115611d6557611d6461660d565b5b8460010160089054906101000a900460ff166004811115611d8957611d8861660d565b5b03611ed157836001015f9054906101000a900467ffffffffffffffff1667ffffffffffffffff164211611de8576040517f61f4ddca00000000000000000000000000000000000000000000000000000000815260040160405180910390fd5b82600401548360030154611dfc919061768f565b90506002836006015f6101000a81548160ff02191690836003811115611e2557611e2461660d565b5b021790555060048460010160086101000a81548160ff02191690836004811115611e5257611e5161660d565b5b0217905550600f5f846001015f9054906101000a900473ffffffffffffffffffffffffffffffffffffffff1673ffffffffffffffffffffffffffffffffffffffff1673ffffffffffffffffffffffffffffffffffffffff1681526020019081526020015f205f815480929190611ec790617c56565b9190505550611f45565b606460135f8660010160089054906101000a900460ff166004811115611efa57611ef961660d565b5b6004811115611f0c57611f0b61660d565b5b81526020019081526020015f205f9054906101000a900460ff1660ff168460030154611f38919061772a565b611f429190617798565b90505b5f61271060075483611f57919061772a565b611f619190617798565b90505f8183611f70919061768f565b905082856004015f828254611f8591906175f4565b925050819055506276a70042611f9b91906175f4565b866001015f6101000a81548167ffffffffffffffff021916908367ffffffffffffffff160217905550611fd860015f611fd2614c71565b5f614cdb565b5f82111561204d5761204c60015f9054906101000a900473ffffffffffffffffffffffffffffffffffffffff16837f000000000000000000000000000000000000000000000000000000000000000073ffffffffffffffffffffffffffffffffffffffff16614ea49092919063ffffffff16565b5b5f8111156120d0576120cf84612063578c612088565b856001015f9054906101000a900473ffffffffffffffffffffffffffffffffffffffff165b827f000000000000000000000000000000000000000000000000000000000000000073ffffffffffffffffffffffffffffffffffffffff16614ea49092919063ffffffff16565b5b846001015f9054906101000a900473ffffffffffffffffffffffffffffffffffffffff1673ffffffffffffffffffffffffffffffffffffffff1684612115578c61213a565b856001015f9054906101000a900473ffffffffffffffffffffffffffffffffffffffff165b73ffffffffffffffffffffffffffffffffffffffff168e7f50701bf5795537c78664849abce15716702c26e91b2625f11537bccda4eae92b8460648b60010160089054906101000a900460ff1660048111156121995761219861660d565b5b6002808111156121ac576121ab61660d565b5b6040516121bc9493929190617cb6565b60405180910390a4846001015f9054906101000a900473ffffffffffffffffffffffffffffffffffffffff1673ffffffffffffffffffffffffffffffffffffffff167f566a46acc4d72477a0809103760bbffe65781480ede2c4a6d442192494678993606460405161222e9190617d73565b60405180910390a260019a5050505050505050612249614ef7565b50505092915050565b5f600261225d614c71565b600c60019054906101000a900460ff161561232f5760115f8273ffffffffffffffffffffffffffffffffffffffff1673ffffffffffffffffffffffffffffffffffffffff1681526020019081526020015f205f8360028111156122c3576122c261660d565b5b60028111156122d5576122d461660d565b5b81526020019081526020015f205f9054906101000a900460ff1661232e576040517f08c379a000000000000000000000000000000000000000000000000000000000815260040161232590617994565b60405180910390fd5b5b6123d28860405180602001604052805f81525089898080601f0160208091040260200160405190810160405280939291908181526020018383808284375f81840152601f19601f820116905080830192505050505050505f60028a8a8080601f0160208091040260200160405190810160405280939291908181526020018383808284375f81840152601f19601f82011690508083019250505050505050614f11565b5060019250505095945050505050565b6123ea614bea565b8060025f6101000a81548173ffffffffffffffffffffffffffffffffffffffff021916908373ffffffffffffffffffffffffffffffffffffffff16021790555050565b5f5f5f9054906101000a900460ff16905090565b5f600161244c614c71565b600c60019054906101000a900460ff161561251e5760115f8273ffffffffffffffffffffffffffffffffffffffff1673ffffffffffffffffffffffffffffffffffffffff1681526020019081526020015f205f8360028111156124b2576124b161660d565b5b60028111156124c4576124c361660d565b5b81526020019081526020015f205f9054906101000a900460ff1661251d576040517f08c379a000000000000000000000000000000000000000000000000000000000815260040161251490617994565b60405180910390fd5b5b6125c08860405180602001604052805f81525089898080601f0160208091040260200160405190810160405280939291908181526020018383808284375f81840152601f19601f820116905080830192505050505050505f5f8a8a8080601f0160208091040260200160405190810160405280939291908181526020018383808284375f81840152601f19601f82011690508083019250505050505050614f11565b5060019250505095945050505050565b600d602052805f5260405f205f91509050805f01604051806101400160405290815f8201548152602001600182015f9054906101000a900473ffffffffffffffffffffffffffffffffffffffff1673ffffffffffffffffffffffffffffffffffffffff1673ffffffffffffffffffffffffffffffffffffffff16815260200160028201548152602001600382015481526020016004820154815260200160058201805461267c90617597565b80601f01602080910402602001604051908101604052809291908181526020018280546126a890617597565b80156126f35780601f106126ca576101008083540402835291602001916126f3565b820191905f5260205f20905b8154815290600101906020018083116126d657829003601f168201915b50505050508152602001600682015f9054906101000a900460ff1660038111156127205761271f61660d565b5b60038111156127325761273161660d565b5b81526020016006820160019054906101000a900460ff16600281111561275b5761275a61660d565b5b600281111561276d5761276c61660d565b5b81526020016006820160029054906101000a900460ff1660ff1660ff1681526020016006820160039054906101000a900460ff16151515158152505090806007016040518060400160405290815f820180546127c890617597565b80601f01602080910402602001604051908101604052809291908181526020018280546127f490617597565b801561283f5780601f106128165761010080835404028352916020019161283f565b820191905f5260205f20905b81548152906001019060200180831161282257829003601f168201915b50505050508152602001600182015f9054906101000a900473ffffffffffffffffffffffffffffffffffffffff1673ffffffffffffffffffffffffffffffffffffffff1673ffffffffffffffffffffffffffffffffffffffff168152505090806009016040518060800160405290815f8201548152602001600182015f9054906101000a900467ffffffffffffffff1667ffffffffffffffff1667ffffffffffffffff1681526020016001820160089054906101000a900460ff16600481111561290c5761290b61660d565b5b600481111561291e5761291d61660d565b5b81526020016001820160099054906101000a900460ff161515151581525050905083565b60015f9054906101000a900473ffffffffffffffffffffffffffffffffffffffff1681565b5f612970614bea565b5f600c60019054906101000a900460ff1690508015600c60016101000a81548160ff021916908315150217905550600191505090565b5f5f6129b0614c71565b90506129ba6134ba565b73ffffffffffffffffffffffffffffffffffffffff168173ffffffffffffffffffffffffffffffffffffffff1614158015612a42575060025f9054906101000a900473ffffffffffffffffffffffffffffffffffffffff1673ffffffffffffffffffffffffffffffffffffffff168173ffffffffffffffffffffffffffffffffffffffff1614155b15612a79576040517fecd7596e00000000000000000000000000000000000000000000000000000000815260040160405180910390fd5b612a81614c78565b612a89614c71565b60105f8273ffffffffffffffffffffffffffffffffffffffff1673ffffffffffffffffffffffffffffffffffffffff1681526020019081526020015f205f9054906101000a900460ff1615612b13576040517f08c379a0000000000000000000000000000000000000000000000000000000008152600401612b0a906174b7565b60405180910390fd5b5f5f90505b8451811015612b97575f858281518110612b3557612b3461753d565b5b602002602001015190505f81118015612b5057506009548111155b15612b89575f600d5f8381526020019081526020015f2090505f815f0160060160036101000a81548160ff021916908315150217905550505b508080600101915050612b18565b50600192505050919050565b612bab614bea565b612bb45f615cac565b565b6013602052805f5260405f205f915054906101000a900460ff1681565b5f612bdc614bea565b5f5f90505f5f90505b600b80549050811015612c72578373ffffffffffffffffffffffffffffffffffffffff16600b8281548110612c1d57612c1c61753d565b5b905f5260205f20015f9054906101000a900473ffffffffffffffffffffffffffffffffffffffff1673ffffffffffffffffffffffffffffffffffffffff1603612c6557600191505b8080600101915050612be5565b5080612cd957600b83908060018154018082558091505060019003905f5260205f20015f9091909190916101000a81548173ffffffffffffffffffffffffffffffffffffffff021916908373ffffffffffffffffffffffffffffffffffffffff1602179055505b6001915050919050565b612ceb614bea565b8060035f6101000a81548173ffffffffffffffffffffffffffffffffffffffff021916908373ffffffffffffffffffffffffffffffffffffffff16021790555050565b5f612d37614bea565b8160048190555060019050919050565b612d4f614c78565b5f600d5f8381526020019081526020015f2090505f815f015f015490505f8111612dae576040517f08c379a0000000000000000000000000000000000000000000000000000000008152600401612da590617de9565b60405180910390fd5b60026003811115612dc257612dc161660d565b5b60ff16825f016006015f9054906101000a900460ff166003811115612dea57612de961660d565b5b60ff1610612e2d576040517f08c379a0000000000000000000000000000000000000000000000000000000008152600401612e2490617e51565b60405180910390fd5b5f612e36614c71565b90505f83600c015f8373ffffffffffffffffffffffffffffffffffffffff1673ffffffffffffffffffffffffffffffffffffffff1681526020019081526020015f206040518060400160405290815f8201548152602001600182015f9054906101000a900460ff16151515158152505090508060200151612eec576040517f08c379a0000000000000000000000000000000000000000000000000000000008152600401612ee390617671565b60405180910390fd5b5f84600b01825f015181548110612f0657612f0561753d565b5b905f5260205f2090600402016040518060a00160405290815f8201548152602001600182015f9054906101000a900473ffffffffffffffffffffffffffffffffffffffff1673ffffffffffffffffffffffffffffffffffffffff1673ffffffffffffffffffffffffffffffffffffffff168152602001600282018054612f8b90617597565b80601f0160208091040260200160405190810160405280929190818152602001828054612fb790617597565b80156130025780601f10612fd957610100808354040283529160200191613002565b820191905f5260205f20905b815481529060010190602001808311612fe557829003601f168201915b50505050508152602001600382015f9054906101000a900467ffffffffffffffff1667ffffffffffffffff1667ffffffffffffffff1681526020016003820160089054906101000a900460ff16151515158152505090505f5f905081608001516130db57600190506001865f0160060160028282829054906101000a900460ff1661308d9190617c22565b92506101000a81548160ff021916908360ff1602179055506130d65f5f885f016001015f9054906101000a900473ffffffffffffffffffffffffffffffffffffffff165f614cdb565b613149565b6001865f0160060160028282829054906101000a900460ff166130fe9190617e6f565b92506101000a81548160ff021916908360ff16021790555061314860015f885f016001015f9054906101000a900473ffffffffffffffffffffffffffffffffffffffff165f614cdb565b5b8086600b01845f0151815481106131635761316261753d565b5b905f5260205f20906004020160030160086101000a81548160ff0219169083151502179055505f60028081111561319d5761319c61660d565b5b875f0160060160019054906101000a900460ff1660028111156131c3576131c261660d565b5b1490506003875f0160060160029054906101000a900460ff1660ff161061323057801561320f5760018760090160010160096101000a81548160ff02191690831515021790555061322f565b6001875f0160060160036101000a81548160ff0219169083151502179055505b5b865f016001015f9054906101000a900473ffffffffffffffffffffffffffffffffffffffff1673ffffffffffffffffffffffffffffffffffffffff168573ffffffffffffffffffffffffffffffffffffffff16897f5e89c1ce52aedbe30f3e8d300c44431bc42cb544ab7f3b3f85383380e925d3c78a5f0160060160029054906101000a900460ff16856132d7578b5f0160060160039054906101000a900460ff166132ed565b8b60090160010160099054906101000a900460ff165b8c5f0160060160019054906101000a900460ff1660058915613344576040518060400160405280600c81526020017f676f616c5f666c6167676564000000000000000000000000000000000000000081525061337b565b6040518060400160405280600e81526020017f676f616c5f756e666c61676765640000000000000000000000000000000000008152505b60405161338c959493929190617f2d565b60405180910390a4865f016001015f9054906101000a900473ffffffffffffffffffffffffffffffffffffffff1673ffffffffffffffffffffffffffffffffffffffff167f566a46acc4d72477a0809103760bbffe65781480ede2c4a6d44219249467899360328415613434576040518060400160405280600c81526020017f676f616c5f666c6167676564000000000000000000000000000000000000000081525061346b565b6040518060400160405280600e81526020017f676f616c5f756e666c61676765640000000000000000000000000000000000008152505b604051613479929190617fbe565b60405180910390a25050505050505050565b613493614bea565b61349b615d6f565b565b6010602052805f5260405f205f915054906101000a900460ff1681565b5f5f60019054906101000a900473ffffffffffffffffffffffffffffffffffffffff16905090565b60045481565b600e602052815f5260405f208181548110613501575f80fd5b905f5260205f20015f91509150505481565b60075481565b613521615fe7565b5f60115f8473ffffffffffffffffffffffffffffffffffffffff1673ffffffffffffffffffffffffffffffffffffffff1681526020019081526020015f205f5f60028111156135735761357261660d565b5b60028111156135855761358461660d565b5b81526020019081526020015f205f9054906101000a900460ff1690505f60115f8573ffffffffffffffffffffffffffffffffffffffff1673ffffffffffffffffffffffffffffffffffffffff1681526020019081526020015f205f600160028111156135f4576135f361660d565b5b60028111156136065761360561660d565b5b81526020019081526020015f205f9054906101000a900460ff1690505f60115f8673ffffffffffffffffffffffffffffffffffffffff1673ffffffffffffffffffffffffffffffffffffffff1681526020019081526020015f205f6002808111156136745761367361660d565b5b60028111156136865761368561660d565b5b81526020019081526020015f205f9054906101000a900460ff169050604051806101e00160405280600e5f8873ffffffffffffffffffffffffffffffffffffffff1673ffffffffffffffffffffffffffffffffffffffff1681526020019081526020015f2080548060200260200160405190810160405280929190818152602001828054801561373357602002820191905f5260205f20905b81548152602001906001019080831161371f575b5050505050815260200160015f9054906101000a900473ffffffffffffffffffffffffffffffffffffffff1673ffffffffffffffffffffffffffffffffffffffff16815260200160025f9054906101000a900473ffffffffffffffffffffffffffffffffffffffff1673ffffffffffffffffffffffffffffffffffffffff16815260200160035f9054906101000a900473ffffffffffffffffffffffffffffffffffffffff1673ffffffffffffffffffffffffffffffffffffffff168152602001600454815260200160055481526020016006548152602001600754815260200160085481526020016009548152602001600a548152602001600b8054806020026020016040519081016040528092919081815260200182805480156138ab57602002820191905f5260205f20905b815f9054906101000a900473ffffffffffffffffffffffffffffffffffffffff1673ffffffffffffffffffffffffffffffffffffffff1681526020019060010190808311613862575b50505050508152602001604051806060016040528086151581526020018515158152602001841515815250815260200160105f8873ffffffffffffffffffffffffffffffffffffffff1673ffffffffffffffffffffffffffffffffffffffff1681526020019081526020015f205f9054906101000a900460ff161515815260200160125f8873ffffffffffffffffffffffffffffffffffffffff1673ffffffffffffffffffffffffffffffffffffffff1681526020019081526020015f20548152509350505050919050565b7f000000000000000000000000000000000000000000000000000000000000000081565b5f6139a4614c78565b6139ac614cb9565b6139b4614c71565b60105f8273ffffffffffffffffffffffffffffffffffffffff1673ffffffffffffffffffffffffffffffffffffffff1681526020019081526020015f205f9054906101000a900460ff1615613a3e576040517f08c379a0000000000000000000000000000000000000000000000000000000008152600401613a35906174b7565b60405180910390fd5b5f613a47614c71565b90505f613a8a875f6040518060400160405280600881526020017f4e6f74204f70656e000000000000000000000000000000000000000000000000815250615bc5565b90505f8603613ac5576040517f2c5211c600000000000000000000000000000000000000000000000000000000815260040160405180910390fd5b5f815f01905086816003015f828254613ade91906175f4565b925050819055505f82600b0180549050905082600b016040518060a001604052808a81526020018673ffffffffffffffffffffffffffffffffffffffff16815260200189604051602001613b329190618034565b60405160208183030381529060405281526020014267ffffffffffffffff1681526020015f1515815250908060018154018082558091505060019003905f5260205f2090600402015f909190919091505f820151815f01556020820151816001015f6101000a81548173ffffffffffffffffffffffffffffffffffffffff021916908373ffffffffffffffffffffffffffffffffffffffff1602179055506040820151816002019081613be591906181eb565b506060820151816003015f6101000a81548167ffffffffffffffff021916908367ffffffffffffffff16021790555060808201518160030160086101000a81548160ff021916908315150217905550505082600c015f8573ffffffffffffffffffffffffffffffffffffffff1673ffffffffffffffffffffffffffffffffffffffff1681526020019081526020015f206001015f9054906101000a900460ff16613d0b5760405180604001604052808281526020016001151581525083600c015f8673ffffffffffffffffffffffffffffffffffffffff1673ffffffffffffffffffffffffffffffffffffffff1681526020019081526020015f205f820151815f01556020820151816001015f6101000a81548160ff0219169083151502179055509050505b8160020154826003015410613d47576001826006015f6101000a81548160ff02191690836003811115613d4157613d4061660d565b5b02179055505b613d55600189866001614cdb565b613da284308a7f000000000000000000000000000000000000000000000000000000000000000073ffffffffffffffffffffffffffffffffffffffff16615dd0909392919063ffffffff16565b8373ffffffffffffffffffffffffffffffffffffffff16897f526e99da98d1e5db898b172482f116099160448335b858a184f216e8267f865c8a85600301548660060160019054906101000a900460ff168c604051613e0494939291906182ba565b60405180910390a38373ffffffffffffffffffffffffffffffffffffffff167f566a46acc4d72477a0809103760bbffe65781480ede2c4a6d4421924946789936064604051613e53919061834e565b60405180910390a2600195505050505050613e6c614ef7565b9392505050565b5f613e7c614bea565b5f600d5f8481526020019081526020015f2090505f815f015f01541480613ea95750600954815f015f0154115b15613ee0576040517ffae3e0fc00000000000000000000000000000000000000000000000000000000815260040160405180910390fd5b5f5f9050806003811115613ef757613ef661660d565b5b825f016006015f9054906101000a900460ff166003811115613f1c57613f1b61660d565b5b03613f5c576040517f08c379a0000000000000000000000000000000000000000000000000000000008152600401613f53906183c4565b60405180910390fd5b80825f016006015f6101000a81548160ff02191690836003811115613f8457613f8361660d565b5b0217905550600192505050919050565b60025f9054906101000a900473ffffffffffffffffffffffffffffffffffffffff1681565b5f613fc2614bea565b8160058190555060019050919050565b5f613fdb614c71565b9050613fe56134ba565b73ffffffffffffffffffffffffffffffffffffffff168173ffffffffffffffffffffffffffffffffffffffff161415801561406d575060025f9054906101000a900473ffffffffffffffffffffffffffffffffffffffff1673ffffffffffffffffffffffffffffffffffffffff168173ffffffffffffffffffffffffffffffffffffffff1614155b156140a4576040517fecd7596e00000000000000000000000000000000000000000000000000000000815260040160405180910390fd5b6140ac614c78565b6140b4614cb9565b6140cd8383600c5f9054906101000a900460ff166155b7565b6140d5614ef7565b505050565b6140e2614bea565b80600a8190555050565b60055481565b5f6140fb614c71565b90505f73ffffffffffffffffffffffffffffffffffffffff1660035f9054906101000a900473ffffffffffffffffffffffffffffffffffffffff1673ffffffffffffffffffffffffffffffffffffffff16141580156141a6575060035f9054906101000a900473ffffffffffffffffffffffffffffffffffffffff1673ffffffffffffffffffffffffffffffffffffffff168173ffffffffffffffffffffffffffffffffffffffff16145b806141e357506141b46134ba565b73ffffffffffffffffffffffffffffffffffffffff168173ffffffffffffffffffffffffffffffffffffffff16145b6141eb575f5ffd5b600160115f8573ffffffffffffffffffffffffffffffffffffffff1673ffffffffffffffffffffffffffffffffffffffff1681526020019081526020015f205f84600281111561423e5761423d61660d565b5b60028111156142505761424f61660d565b5b81526020019081526020015f205f6101000a81548160ff021916908315150217905550505050565b6011602052815f5260405f20602052805f5260405f205f915091509054906101000a900460ff1681565b5f6142ab614bea565b8160105f8573ffffffffffffffffffffffffffffffffffffffff1673ffffffffffffffffffffffffffffffffffffffff1681526020019081526020015f205f6101000a81548160ff0219169083151502179055506001905092915050565b5f614312614c78565b61431a614c71565b60105f8273ffffffffffffffffffffffffffffffffffffffff1673ffffffffffffffffffffffffffffffffffffffff1681526020019081526020015f205f9054906101000a900460ff16156143a4576040517f08c379a000000000000000000000000000000000000000000000000000000000815260040161439b906174b7565b60405180910390fd5b5f6143ad614c71565b90505f6143f0865f6040518060400160405280600881526020017f4e6f74204f70656e000000000000000000000000000000000000000000000000815250615bc5565b90505f6143fb6134ba565b90508073ffffffffffffffffffffffffffffffffffffffff168373ffffffffffffffffffffffffffffffffffffffff1614806144875750815f016001015f9054906101000a900473ffffffffffffffffffffffffffffffffffffffff1673ffffffffffffffffffffffffffffffffffffffff168373ffffffffffffffffffffffffffffffffffffffff16145b6144c6576040517f08c379a00000000000000000000000000000000000000000000000000000000081526004016144bd9061842c565b60405180910390fd5b8073ffffffffffffffffffffffffffffffffffffffff168373ffffffffffffffffffffffffffffffffffffffff161461457857815f016006015f9054906101000a900460ff16600381111561451e5761451d61660d565b5b60ff168660038111156145345761453361660d565b5b60ff1611614577576040517f08c379a000000000000000000000000000000000000000000000000000000000815260040161456e90618494565b60405180910390fd5b5b85825f016006015f6101000a81548160ff021916908360038111156145a05761459f61660d565b5b0217905550600194505050505092915050565b60035f9054906101000a900473ffffffffffffffffffffffffffffffffffffffff1681565b6145e061609b565b5f600d5f8481526020019081526020015f2090506040518060800160405280826007016040518060400160405290815f8201805461461d90617597565b80601f016020809104026020016040519081016040528092919081815260200182805461464990617597565b80156146945780601f1061466b57610100808354040283529160200191614694565b820191905f5260205f20905b81548152906001019060200180831161467757829003601f168201915b50505050508152602001600182015f9054906101000a900473ffffffffffffffffffffffffffffffffffffffff1673ffffffffffffffffffffffffffffffffffffffff1673ffffffffffffffffffffffffffffffffffffffff16815250508152602001826009016040518060800160405290815f8201548152602001600182015f9054906101000a900467ffffffffffffffff1667ffffffffffffffff1667ffffffffffffffff1681526020016001820160089054906101000a900460ff1660048111156147655761476461660d565b5b60048111156147775761477661660d565b5b81526020016001820160099054906101000a900460ff1615151515815250508152602001825f01604051806101400160405290815f8201548152602001600182015f9054906101000a900473ffffffffffffffffffffffffffffffffffffffff1673ffffffffffffffffffffffffffffffffffffffff1673ffffffffffffffffffffffffffffffffffffffff16815260200160028201548152602001600382015481526020016004820154815260200160058201805461483690617597565b80601f016020809104026020016040519081016040528092919081815260200182805461486290617597565b80156148ad5780601f10614884576101008083540402835291602001916148ad565b820191905f5260205f20905b81548152906001019060200180831161489057829003601f168201915b50505050508152602001600682015f9054906101000a900460ff1660038111156148da576148d961660d565b5b60038111156148ec576148eb61660d565b5b81526020016006820160019054906101000a900460ff1660028111156149155761491461660d565b5b60028111156149275761492661660d565b5b81526020016006820160029054906101000a900460ff1660ff1660ff1681526020016006820160039054906101000a900460ff161515151581525050815260200182600b01805480602002602001604051908101604052809291908181526020015f905b82821015614af5578382905f5260205f2090600402016040518060a00160405290815f8201548152602001600182015f9054906101000a900473ffffffffffffffffffffffffffffffffffffffff1673ffffffffffffffffffffffffffffffffffffffff1673ffffffffffffffffffffffffffffffffffffffff168152602001600282018054614a1a90617597565b80601f0160208091040260200160405190810160405280929190818152602001828054614a4690617597565b8015614a915780601f10614a6857610100808354040283529160200191614a91565b820191905f5260205f20905b815481529060010190602001808311614a7457829003601f168201915b50505050508152602001600382015f9054906101000a900467ffffffffffffffff1667ffffffffffffffff1667ffffffffffffffff1681526020016003820160089054906101000a900460ff1615151515815250508152602001906001019061498b565b50505050815250915050919050565b61271081565b600b8181548110614b19575f80fd5b905f5260205f20015f915054906101000a900473ffffffffffffffffffffffffffffffffffffffff1681565b614b4d614bea565b5f73ffffffffffffffffffffffffffffffffffffffff168173ffffffffffffffffffffffffffffffffffffffff1603614bbd575f6040517f1e4fbdf7000000000000000000000000000000000000000000000000000000008152600401614bb49190616902565b60405180910390fd5b614bc681615cac565b50565b600a5481565b60095481565b6012602052805f5260405f205f915090505481565b614bf2614c71565b73ffffffffffffffffffffffffffffffffffffffff16614c106134ba565b73ffffffffffffffffffffffffffffffffffffffff1614614c6f57614c33614c71565b6040517f118cdaa7000000000000000000000000000000000000000000000000000000008152600401614c669190616902565b60405180910390fd5b565b5f33905090565b614c8061242d565b15614cb7576040517fd93c066500000000000000000000000000000000000000000000000000000000815260040160405180910390fd5b565b614cc1615e25565b6002614cd3614cce615e66565b615e8f565b5f0181905550565b5f7f000000000000000000000000000000000000000000000000000000000000000073ffffffffffffffffffffffffffffffffffffffff1663313ce5676040518163ffffffff1660e01b8152600401602060405180830381865afa158015614d45573d5f5f3e3d5ffd5b505050506040513d601f19601f82011682018060405250810190614d6991906184c6565b600a614d759190618620565b90508415614dfc5781614d89576005614da5565b808411614d97576001614da4565b8084614da39190617798565b5b5b60125f8573ffffffffffffffffffffffffffffffffffffffff1673ffffffffffffffffffffffffffffffffffffffff1681526020019081526020015f205f828254614df091906175f4565b92505081905550614e9d565b5f60125f8573ffffffffffffffffffffffffffffffffffffffff1673ffffffffffffffffffffffffffffffffffffffff1681526020019081526020015f205490506005811015614e4c575f614e5a565b600581614e59919061768f565b5b60125f8673ffffffffffffffffffffffffffffffffffffffff1673ffffffffffffffffffffffffffffffffffffffff1681526020019081526020015f2081905550505b5050505050565b614eb18383836001615e98565b614ef257826040517f5274afe7000000000000000000000000000000000000000000000000000000008152600401614ee99190616902565b60405180910390fd5b505050565b6001614f09614f04615e66565b615e8f565b5f0181905550565b5f614f1a614c78565b614f22614c71565b60105f8273ffffffffffffffffffffffffffffffffffffffff1673ffffffffffffffffffffffffffffffffffffffff1681526020019081526020015f205f9054906101000a900460ff1615614fac576040517f08c379a0000000000000000000000000000000000000000000000000000000008152600401614fa3906174b7565b60405180910390fd5b5f614fb5614c71565b90505f8903614ff0576040517f2c5211c600000000000000000000000000000000000000000000000000000000815260040160405180910390fd5b5f600a54111561507357600a54600f5f8373ffffffffffffffffffffffffffffffffffffffff1673ffffffffffffffffffffffffffffffffffffffff1681526020019081526020015f205410615072576040517fd8191f1100000000000000000000000000000000000000000000000000000000815260040160405180910390fd5b5b600f5f8273ffffffffffffffffffffffffffffffffffffffff1673ffffffffffffffffffffffffffffffffffffffff1681526020019081526020015f205f8154809291906150c09061866a565b91905055506150cd615efa565b9250600e5f8273ffffffffffffffffffffffffffffffffffffffff1673ffffffffffffffffffffffffffffffffffffffff1681526020019081526020015f2083908060018154018082558091505060019003905f5260205f20015f90919091909150555f600160028111156151455761514461660d565b5b8660028111156151585761515761660d565b5b0361520357600454905060405180604001604052808a81526020018873ffffffffffffffffffffffffffffffffffffffff16815250600d5f8681526020019081526020015f206007015f820151815f0190816151b491906181eb565b506020820151816001015f6101000a81548173ffffffffffffffffffffffffffffffffffffffff021916908373ffffffffffffffffffffffffffffffffffffffff16021790555090505061531b565b6002808111156152165761521561660d565b5b8660028111156152295761522861660d565b5b0361531457600554905060405180608001604052805f81526020015f67ffffffffffffffff1681526020015f60048111156152675761526661660d565b5b81526020015f1515815250600d5f8681526020019081526020015f206009015f820151815f01556020820151816001015f6101000a81548167ffffffffffffffff021916908367ffffffffffffffff16021790555060408201518160010160086101000a81548160ff021916908360048111156152e7576152e661660d565b5b021790555060608201518160010160096101000a81548160ff02191690831515021790555090505061531a565b60065490505b5b6040518061014001604052808581526020018373ffffffffffffffffffffffffffffffffffffffff1681526020018b81526020015f81526020015f81526020018981526020015f60038111156153745761537361660d565b5b815260200187600281111561538c5761538b61660d565b5b81526020015f60ff1681526020015f1515815250600d5f8681526020019081526020015f205f015f820151815f01556020820151816001015f6101000a81548173ffffffffffffffffffffffffffffffffffffffff021916908373ffffffffffffffffffffffffffffffffffffffff16021790555060408201518160020155606082015181600301556080820151816004015560a082015181600501908161543491906181eb565b5060c0820151816006015f6101000a81548160ff0219169083600381111561545f5761545e61660d565b5b021790555060e08201518160060160016101000a81548160ff0219169083600281111561548f5761548e61660d565b5b02179055506101008201518160060160026101000a81548160ff021916908360ff1602179055506101208201518160060160036101000a81548160ff0219169083151502179055509050505f811115615551576155508260015f9054906101000a900473ffffffffffffffffffffffffffffffffffffffff16837f000000000000000000000000000000000000000000000000000000000000000073ffffffffffffffffffffffffffffffffffffffff16615dd0909392919063ffffffff16565b5b8173ffffffffffffffffffffffffffffffffffffffff16847fb56f2eb3d94244c9d2377a4085d352f94764e838ffecb5964c77db3e98859d42888d8c8e8d8c6040516155a2969594939291906186b1565b60405180910390a35050509695505050505050565b5f6155f98460016040518060400160405280600a81526020017f4e6f742046756e64656400000000000000000000000000000000000000000000815250615bc5565b90505f815f0190508060060160039054906101000a900460ff161561564a576040517fdb9c870000000000000000000000000000000000000000000000000000000000815260040160405180910390fd5b6001600281111561565e5761565d61660d565b5b8160060160019054906101000a900460ff1660028111156156825761568161660d565b5b14806156c257505f600281111561569c5761569b61660d565b5b8160060160019054906101000a900460ff1660028111156156c0576156bf61660d565b5b145b615701576040517f08c379a00000000000000000000000000000000000000000000000000000000081526004016156f89061876f565b60405180910390fd5b5f81600401548260030154615716919061768f565b905080851115615752576040517f2c5211c600000000000000000000000000000000000000000000000000000000815260040160405180910390fd5b5f61271060085487615764919061772a565b61576e9190617798565b90505f818761577d919061768f565b905086846004015f82825461579291906175f4565b925050819055506157c960015f866001015f9054906101000a900473ffffffffffffffffffffffffffffffffffffffff165f614cdb565b836003015484600401541115615814576040517f08c379a000000000000000000000000000000000000000000000000000000000815260040161580b906187d7565b60405180910390fd5b83600301548460040154036158c5576002846006015f6101000a81548160ff0219169083600381111561584a5761584961660d565b5b0217905550600f5f856001015f9054906101000a900473ffffffffffffffffffffffffffffffffffffffff1673ffffffffffffffffffffffffffffffffffffffff1673ffffffffffffffffffffffffffffffffffffffff1681526020019081526020015f205f8154809291906158bf90617c56565b91905055505b5f866158f457846001015f9054906101000a900473ffffffffffffffffffffffffffffffffffffffff1661591c565b856007016001015f9054906101000a900473ffffffffffffffffffffffffffffffffffffffff165b90505f73ffffffffffffffffffffffffffffffffffffffff168173ffffffffffffffffffffffffffffffffffffffff160361598c576040517f08c379a00000000000000000000000000000000000000000000000000000000081526004016159839061883f565b60405180910390fd5b5f831115615a0157615a0060015f9054906101000a900473ffffffffffffffffffffffffffffffffffffffff16847f000000000000000000000000000000000000000000000000000000000000000073ffffffffffffffffffffffffffffffffffffffff16614ea49092919063ffffffff16565b5b5f821115615a5557615a5481837f000000000000000000000000000000000000000000000000000000000000000073ffffffffffffffffffffffffffffffffffffffff16614ea49092919063ffffffff16565b5b846001015f9054906101000a900473ffffffffffffffffffffffffffffffffffffffff1673ffffffffffffffffffffffffffffffffffffffff168173ffffffffffffffffffffffffffffffffffffffff168a7f4e1aa4804e627c98062ebca603e658b532a44f47ac8a208be80b30ee7d8c1682858a6007015f016064604051615ae0939291906188de565b60405180910390a4846001015f9054906101000a900473ffffffffffffffffffffffffffffffffffffffff1673ffffffffffffffffffffffffffffffffffffffff167f566a46acc4d72477a0809103760bbffe65781480ede2c4a6d4421924946789936064604051615b529190618964565b60405180910390a2505050505050505050565b615b6d615f1a565b5f5f5f6101000a81548160ff0219169083151502179055507f5db9ee0a495bf2e6ff9c91a7834c1ba4fdd244a5e8aa4e537bd38aeae4b073aa615bae614c71565b604051615bbb9190616902565b60405180910390a1565b5f600d5f8581526020019081526020015f2090505f815f015f015490505f811480615bf1575060095481115b15615c28576040517ffae3e0fc00000000000000000000000000000000000000000000000000000000815260040160405180910390fd5b836003811115615c3b57615c3a61660d565b5b825f016006015f9054906101000a900460ff166003811115615c6057615c5f61660d565b5b148390615ca3576040517f08c379a0000000000000000000000000000000000000000000000000000000008152600401615c9a9190618990565b60405180910390fd5b50509392505050565b5f5f60019054906101000a900473ffffffffffffffffffffffffffffffffffffffff169050815f60016101000a81548173ffffffffffffffffffffffffffffffffffffffff021916908373ffffffffffffffffffffffffffffffffffffffff1602179055508173ffffffffffffffffffffffffffffffffffffffff168173ffffffffffffffffffffffffffffffffffffffff167f8be0079c531659141344cd1fd0a4f28419497f9722a3daafe3b4186f6b6457e060405160405180910390a35050565b615d77614c78565b60015f5f6101000a81548160ff0219169083151502179055507f62e78cea01bee320cd4e420270b5ea74000d11b0c9f74754ebdbfc544b05a258615db9614c71565b604051615dc69190616902565b60405180910390a1565b615dde848484846001615f5a565b615e1f57836040517f5274afe7000000000000000000000000000000000000000000000000000000008152600401615e169190616902565b60405180910390fd5b50505050565b615e2d615fcb565b15615e64576040517f3ee5aeb500000000000000000000000000000000000000000000000000000000815260040160405180910390fd5b565b5f7f9b779b17422d0df92223018b32b4d1fa46e071723d6817e2486d003becc55f005f1b905090565b5f819050919050565b5f5f63a9059cbb60e01b9050604051815f525f1960601c86166004528460245260205f60445f5f8b5af1925060015f51148316615eec578383151615615ee0573d5f823e3d81fd5b5f873b113d1516831692505b806040525050949350505050565b5f60095f815480929190615f0d9061866a565b9190505550600954905090565b615f2261242d565b615f58576040517f8dfc202b00000000000000000000000000000000000000000000000000000000815260040160405180910390fd5b565b5f5f6323b872dd60e01b9050604051815f525f1960601c87166004525f1960601c86166024528460445260205f60645f5f8c5af1925060015f51148316615fb8578383151615615fac573d5f823e3d81fd5b5f883b113d1516831692505b806040525f606052505095945050505050565b5f6002615fde615fd9615e66565b615e8f565b5f015414905090565b604051806101e00160405280606081526020015f73ffffffffffffffffffffffffffffffffffffffff1681526020015f73ffffffffffffffffffffffffffffffffffffffff1681526020015f73ffffffffffffffffffffffffffffffffffffffff1681526020015f81526020015f81526020015f81526020015f81526020015f81526020015f81526020015f8152602001606081526020016160876160d5565b81526020015f151581526020015f81525090565b60405180608001604052806160ae6160f9565b81526020016160bb616128565b81526020016160c861616a565b8152602001606081525090565b60405180606001604052805f151581526020015f151581526020015f151581525090565b6040518060400160405280606081526020015f73ffffffffffffffffffffffffffffffffffffffff1681525090565b60405180608001604052805f81526020015f67ffffffffffffffff1681526020015f600481111561615c5761615b61660d565b5b81526020015f151581525090565b6040518061014001604052805f81526020015f73ffffffffffffffffffffffffffffffffffffffff1681526020015f81526020015f81526020015f8152602001606081526020015f60038111156161c4576161c361660d565b5b81526020015f60028111156161dc576161db61660d565b5b81526020015f60ff1681526020015f151581525090565b5f604051905090565b5f5ffd5b5f5ffd5b5f819050919050565b61621681616204565b8114616220575f5ffd5b50565b5f813590506162318161620d565b92915050565b5f6020828403121561624c5761624b6161fc565b5b5f61625984828501616223565b91505092915050565b5f8115159050919050565b61627681616262565b82525050565b5f60208201905061628f5f83018461626d565b92915050565b61629e81616204565b82525050565b5f6020820190506162b75f830184616295565b92915050565b5f5ffd5b5f5ffd5b5f5ffd5b5f5f83601f8401126162de576162dd6162bd565b5b8235905067ffffffffffffffff8111156162fb576162fa6162c1565b5b602083019150836001820283011115616317576163166162c5565b5b9250929050565b5f60ff82169050919050565b6163338161631e565b811461633d575f5ffd5b50565b5f8135905061634e8161632a565b92915050565b5f5f5f5f5f5f5f5f60a0898b0312156163705761636f6161fc565b5b5f61637d8b828c01616223565b985050602089013567ffffffffffffffff81111561639e5761639d616200565b5b6163aa8b828c016162c9565b9750975050604089013567ffffffffffffffff8111156163cd576163cc616200565b5b6163d98b828c016162c9565b9550955050606089013567ffffffffffffffff8111156163fc576163fb616200565b5b6164088b828c016162c9565b9350935050608061641b8b828c01616340565b9150509295985092959890939650565b5f73ffffffffffffffffffffffffffffffffffffffff82169050919050565b5f6164548261642b565b9050919050565b6164648161644a565b811461646e575f5ffd5b50565b5f8135905061647f8161645b565b92915050565b5f6020828403121561649a576164996161fc565b5b5f6164a784828501616471565b91505092915050565b5f5f604083850312156164c6576164c56161fc565b5b5f6164d385828601616223565b92505060206164e485828601616471565b9150509250929050565b5f5f5f5f5f60608688031215616507576165066161fc565b5b5f61651488828901616223565b955050602086013567ffffffffffffffff81111561653557616534616200565b5b616541888289016162c9565b9450945050604086013567ffffffffffffffff81111561656457616563616200565b5b616570888289016162c9565b92509250509295509295909350565b61658881616204565b82525050565b6165978161644a565b82525050565b5f81519050919050565b5f82825260208201905092915050565b8281835e5f83830152505050565b5f601f19601f8301169050919050565b5f6165df8261659d565b6165e981856165a7565b93506165f98185602086016165b7565b616602816165c5565b840191505092915050565b7f4e487b71000000000000000000000000000000000000000000000000000000005f52602160045260245ffd5b6004811061664b5761664a61660d565b5b50565b5f81905061665b8261663a565b919050565b5f61666a8261664e565b9050919050565b61667a81616660565b82525050565b600381106166915761669061660d565b5b50565b5f8190506166a182616680565b919050565b5f6166b082616694565b9050919050565b6166c0816166a6565b82525050565b6166cf8161631e565b82525050565b6166de81616262565b82525050565b5f61014083015f8301516166fa5f86018261657f565b50602083015161670d602086018261658e565b506040830151616720604086018261657f565b506060830151616733606086018261657f565b506080830151616746608086018261657f565b5060a083015184820360a086015261675e82826165d5565b91505060c083015161677360c0860182616671565b5060e083015161678660e08601826166b7565b5061010083015161679b6101008601826166c6565b506101208301516167b06101208601826166d5565b508091505092915050565b5f604083015f8301518482035f8601526167d582826165d5565b91505060208301516167ea602086018261658e565b508091505092915050565b5f67ffffffffffffffff82169050919050565b616811816167f5565b82525050565b600581106168285761682761660d565b5b50565b5f81905061683882616817565b919050565b5f6168478261682b565b9050919050565b6168578161683d565b82525050565b608082015f8201516168715f85018261657f565b5060208201516168846020850182616808565b506040820151616897604085018261684e565b5060608201516168aa60608501826166d5565b50505050565b5f60c0820190508181035f8301526168c881866166e4565b905081810360208301526168dc81856167bb565b90506168eb604083018461685d565b949350505050565b6168fc8161644a565b82525050565b5f6020820190506169155f8301846168f3565b92915050565b7f4e487b71000000000000000000000000000000000000000000000000000000005f52604160045260245ffd5b616951826165c5565b810181811067ffffffffffffffff821117156169705761696f61691b565b5b80604052505050565b5f6169826161f3565b905061698e8282616948565b919050565b5f67ffffffffffffffff8211156169ad576169ac61691b565b5b602082029050602081019050919050565b5f6169d06169cb84616993565b616979565b905080838252602082019050602084028301858111156169f3576169f26162c5565b5b835b81811015616a1c5780616a088882616223565b8452602084019350506020810190506169f5565b5050509392505050565b5f82601f830112616a3a57616a396162bd565b5b8135616a4a8482602086016169be565b91505092915050565b5f60208284031215616a6857616a676161fc565b5b5f82013567ffffffffffffffff811115616a8557616a84616200565b5b616a9184828501616a26565b91505092915050565b60058110616aa6575f5ffd5b50565b5f81359050616ab781616a9a565b92915050565b5f60208284031215616ad257616ad16161fc565b5b5f616adf84828501616aa9565b91505092915050565b616af18161631e565b82525050565b5f602082019050616b0a5f830184616ae8565b92915050565b5f5f60408385031215616b2657616b256161fc565b5b5f616b3385828601616471565b9250506020616b4485828601616223565b9150509250929050565b5f81519050919050565b5f82825260208201905092915050565b5f819050602082019050919050565b5f616b82838361657f565b60208301905092915050565b5f602082019050919050565b5f616ba482616b4e565b616bae8185616b58565b9350616bb983616b68565b805f5b83811015616be9578151616bd08882616b77565b9750616bdb83616b8e565b925050600181019050616bbc565b5085935050505092915050565b5f81519050919050565b5f82825260208201905092915050565b5f819050602082019050919050565b5f616c2a838361658e565b60208301905092915050565b5f602082019050919050565b5f616c4c82616bf6565b616c568185616c00565b9350616c6183616c10565b805f5b83811015616c91578151616c788882616c1f565b9750616c8383616c36565b925050600181019050616c64565b5085935050505092915050565b606082015f820151616cb25f8501826166d5565b506020820151616cc560208501826166d5565b506040820151616cd860408501826166d5565b50505050565b5f61022083015f8301518482035f860152616cf98282616b9a565b9150506020830151616d0e602086018261658e565b506040830151616d21604086018261658e565b506060830151616d34606086018261658e565b506080830151616d47608086018261657f565b5060a0830151616d5a60a086018261657f565b5060c0830151616d6d60c086018261657f565b5060e0830151616d8060e086018261657f565b50610100830151616d9561010086018261657f565b50610120830151616daa61012086018261657f565b50610140830151616dbf61014086018261657f565b50610160830151848203610160860152616dd98282616c42565b915050610180830151616df0610180860182616c9e565b506101a0830151616e056101e08601826166d5565b506101c0830151616e1a61020086018261657f565b508091505092915050565b5f6020820190508181035f830152616e3d8184616cde565b905092915050565b5f819050919050565b5f616e68616e63616e5e8461642b565b616e45565b61642b565b9050919050565b5f616e7982616e4e565b9050919050565b5f616e8a82616e6f565b9050919050565b616e9a81616e80565b82525050565b5f602082019050616eb35f830184616e91565b92915050565b5f5ffd5b5f67ffffffffffffffff821115616ed757616ed661691b565b5b616ee0826165c5565b9050602081019050919050565b828183375f83830152505050565b5f616f0d616f0884616ebd565b616979565b905082815260208101848484011115616f2957616f28616eb9565b5b616f34848285616eed565b509392505050565b5f82601f830112616f5057616f4f6162bd565b5b8135616f60848260208601616efb565b91505092915050565b5f5f5f60608486031215616f8057616f7f6161fc565b5b5f616f8d86828701616223565b9350506020616f9e86828701616223565b925050604084013567ffffffffffffffff811115616fbf57616fbe616200565b5b616fcb86828701616f3c565b9150509250925092565b5f5f60408385031215616feb57616fea6161fc565b5b5f616ff885828601616223565b925050602061700985828601616223565b9150509250929050565b6003811061701f575f5ffd5b50565b5f8135905061703081617013565b92915050565b5f5f6040838503121561704c5761704b6161fc565b5b5f61705985828601616471565b925050602061706a85828601617022565b9150509250929050565b61707d81616262565b8114617087575f5ffd5b50565b5f8135905061709881617074565b92915050565b5f5f604083850312156170b4576170b36161fc565b5b5f6170c185828601616471565b92505060206170d28582860161708a565b9150509250929050565b600481106170e8575f5ffd5b50565b5f813590506170f9816170dc565b92915050565b5f5f60408385031215617115576171146161fc565b5b5f61712285828601616223565b9250506020617133858286016170eb565b9150509250929050565b5f604083015f8301518482035f86015261715782826165d5565b915050602083015161716c602086018261658e565b508091505092915050565b608082015f82015161718b5f85018261657f565b50602082015161719e6020850182616808565b5060408201516171b1604085018261684e565b5060608201516171c460608501826166d5565b50505050565b5f61014083015f8301516171e05f86018261657f565b5060208301516171f3602086018261658e565b506040830151617206604086018261657f565b506060830151617219606086018261657f565b50608083015161722c608086018261657f565b5060a083015184820360a086015261724482826165d5565b91505060c083015161725960c0860182616671565b5060e083015161726c60e08601826166b7565b506101008301516172816101008601826166c6565b506101208301516172966101208601826166d5565b508091505092915050565b5f81519050919050565b5f82825260208201905092915050565b5f819050602082019050919050565b5f60a083015f8301516172df5f86018261657f565b5060208301516172f2602086018261658e565b506040830151848203604086015261730a82826165d5565b915050606083015161731f6060860182616808565b50608083015161733260808601826166d5565b508091505092915050565b5f61734883836172ca565b905092915050565b5f602082019050919050565b5f617366826172a1565b61737081856172ab565b935083602082028501617382856172bb565b805f5b858110156173bd578484038952815161739e858261733d565b94506173a983617350565b925060208a01995050600181019050617385565b50829750879550505050505092915050565b5f60e083015f8301518482035f8601526173e9828261713d565b91505060208301516173fe6020860182617177565b50604083015184820360a086015261741682826171ca565b915050606083015184820360c0860152617430828261735c565b9150508091505092915050565b5f6020820190508181035f83015261745581846173cf565b905092915050565b5f82825260208201905092915050565b7f52657374726963746564000000000000000000000000000000000000000000005f82015250565b5f6174a1600a8361745d565b91506174ac8261746d565b602082019050919050565b5f6020820190508181035f8301526174ce81617495565b9050919050565b7f526566756e644e6f74417661696c61626c6500000000000000000000000000005f82015250565b5f61750960128361745d565b9150617514826174d5565b602082019050919050565b5f6020820190508181035f830152617536816174fd565b9050919050565b7f4e487b71000000000000000000000000000000000000000000000000000000005f52603260045260245ffd5b7f4e487b71000000000000000000000000000000000000000000000000000000005f52602260045260245ffd5b5f60028204905060018216806175ae57607f821691505b6020821081036175c1576175c061756a565b5b50919050565b7f4e487b71000000000000000000000000000000000000000000000000000000005f52601160045260245ffd5b5f6175fe82616204565b915061760983616204565b9250828201905080821115617621576176206175c7565b5b92915050565b7f4e6f74446f6e6f720000000000000000000000000000000000000000000000005f82015250565b5f61765b60088361745d565b915061766682617627565b602082019050919050565b5f6020820190508181035f8301526176888161764f565b9050919050565b5f61769982616204565b91506176a483616204565b92508282039050818111156176bc576176bb6175c7565b5b92915050565b7f506f6f6c20656d707479000000000000000000000000000000000000000000005f82015250565b5f6176f6600a8361745d565b9150617701826176c2565b602082019050919050565b5f6020820190508181035f830152617723816176ea565b9050919050565b5f61773482616204565b915061773f83616204565b925082820261774d81616204565b91508282048414831517617764576177636175c7565b5b5092915050565b7f4e487b71000000000000000000000000000000000000000000000000000000005f52601260045260245ffd5b5f6177a282616204565b91506177ad83616204565b9250826177bd576177bc61776b565b5b828204905092915050565b5f819050919050565b5f819050919050565b5f6177f46177ef6177ea846177c8565b616e45565b6177d1565b9050919050565b617804816177da565b82525050565b7f70726f6f665f756e6d65740000000000000000000000000000000000000000005f82015250565b5f61783e600b8361745d565b91506178498261780a565b602082019050919050565b5f6060820190506178675f830185616295565b61787460208301846177fb565b818103604083015261788581617832565b90509392505050565b5f819050919050565b5f61ffff82169050919050565b5f6178be6178b96178b48461788e565b616e45565b617897565b9050919050565b6178ce816178a4565b82525050565b7f726566756e6465645f70726f6f665f756e6d65740000000000000000000000005f82015250565b5f61790860148361745d565b9150617913826178d4565b602082019050919050565b5f6040820190506179315f8301846178c5565b8181036020830152617942816178fc565b905092915050565b7f4e6f7420766572696669656400000000000000000000000000000000000000005f82015250565b5f61797e600c8361745d565b91506179898261794a565b602082019050919050565b5f6020820190508181035f8301526179ab81617972565b9050919050565b7f496e76616c6964207365727669636520696e64657800000000000000000000005f82015250565b5f6179e660158361745d565b91506179f1826179b2565b602082019050919050565b5f6020820190508181035f830152617a13816179da565b9050919050565b7f4e6f7420617574686f72697a65640000000000000000000000000000000000005f82015250565b5f617a4e600e8361745d565b9150617a5982617a1a565b602082019050919050565b5f6020820190508181035f830152617a7b81617a42565b9050919050565b7f44697370757465640000000000000000000000000000000000000000000000005f82015250565b5f617ab660088361745d565b9150617ac182617a82565b602082019050919050565b5f6020820190508181035f830152617ae381617aaa565b9050919050565b7f4f6e6c79205363686f6c617273686970000000000000000000000000000000005f82015250565b5f617b1e60108361745d565b9150617b2982617aea565b602082019050919050565b5f6020820190508181035f830152617b4b81617b12565b9050919050565b7f496e76616c69642063616c6c65720000000000000000000000000000000000005f82015250565b5f617b86600e8361745d565b9150617b9182617b52565b602082019050919050565b5f6020820190508181035f830152617bb381617b7a565b9050919050565b7f4c6f636b656420666f72207265766965770000000000000000000000000000005f82015250565b5f617bee60118361745d565b9150617bf982617bba565b602082019050919050565b5f6020820190508181035f830152617c1b81617be2565b9050919050565b5f617c2c8261631e565b9150617c378361631e565b9250828201905060ff811115617c5057617c4f6175c7565b5b92915050565b5f617c6082616204565b91505f8203617c7257617c716175c7565b5b600182039050919050565b5f819050919050565b5f617ca0617c9b617c9684617c7d565b616e45565b616204565b9050919050565b617cb081617c86565b82525050565b5f608082019050617cc95f830187616295565b617cd66020830186617ca7565b617ce36040830185616ae8565b617cf06060830184616ae8565b95945050505050565b5f617d13617d0e617d0984617c7d565b616e45565b617897565b9050919050565b617d2381617cf9565b82525050565b7f6d696c6573746f6e655f636f6d706c65746564000000000000000000000000005f82015250565b5f617d5d60138361745d565b9150617d6882617d29565b602082019050919050565b5f604082019050617d865f830184617d1a565b8181036020830152617d9781617d51565b905092915050565b7f476f616c4e6f74466f756e6400000000000000000000000000000000000000005f82015250565b5f617dd3600c8361745d565b9150617dde82617d9f565b602082019050919050565b5f6020820190508181035f830152617e0081617dc7565b9050919050565b7f46756c66696c6c65642f43616e63656c656400000000000000000000000000005f82015250565b5f617e3b60128361745d565b9150617e4682617e07565b602082019050919050565b5f6020820190508181035f830152617e6881617e2f565b9050919050565b5f617e798261631e565b9150617e848361631e565b9250828203905060ff811115617e9d57617e9c6175c7565b5b92915050565b617eac816166a6565b82525050565b5f819050919050565b5f617ed5617ed0617ecb84617eb2565b616e45565b6177d1565b9050919050565b617ee581617ebb565b82525050565b5f81519050919050565b5f617eff82617eeb565b617f09818561745d565b9350617f198185602086016165b7565b617f22816165c5565b840191505092915050565b5f60a082019050617f405f830188616ae8565b617f4d602083018761626d565b617f5a6040830186617ea3565b617f676060830185617edc565b8181036080830152617f798184617ef5565b90509695505050505050565b5f819050919050565b5f617fa8617fa3617f9e84617f85565b616e45565b617897565b9050919050565b617fb881617f8e565b82525050565b5f604082019050617fd15f830185617faf565b8181036020830152617fe38184617ef5565b90509392505050565b5f82825260208201905092915050565b5f6180068261659d565b6180108185617fec565b93506180208185602086016165b7565b618029816165c5565b840191505092915050565b5f6020820190508181035f83015261804c8184617ffc565b905092915050565b5f819050815f5260205f209050919050565b5f6020601f8301049050919050565b5f82821b905092915050565b5f600883026180b07fffffffffffffffffffffffffffffffffffffffffffffffffffffffffffffffff82618075565b6180ba8683618075565b95508019841693508086168417925050509392505050565b5f6180ec6180e76180e284616204565b616e45565b616204565b9050919050565b5f819050919050565b618105836180d2565b618119618111826180f3565b848454618081565b825550505050565b5f5f905090565b618130618121565b61813b8184846180fc565b505050565b5b8181101561815e576181535f82618128565b600181019050618141565b5050565b601f8211156181a35761817481618054565b61817d84618066565b8101602085101561818c578190505b6181a061819885618066565b830182618140565b50505b505050565b5f82821c905092915050565b5f6181c35f19846008026181a8565b1980831691505092915050565b5f6181db83836181b4565b9150826002028217905092915050565b6181f48261659d565b67ffffffffffffffff81111561820d5761820c61691b565b5b6182178254617597565b618222828285618162565b5f60209050601f831160018114618253575f8415618241578287015190505b61824b85826181d0565b8655506182b2565b601f19841661826186618054565b5f5b8281101561828857848901518255600182019150602085019450602081019050618263565b868310156182a557848901516182a1601f8916826181b4565b8355505b6001600288020188555050505b505050505050565b5f6080820190506182cd5f830187616295565b6182da6020830186616295565b6182e76040830185617ea3565b81810360608301526182f98184617ef5565b905095945050505050565b7f66756e64696e67207265636569766564000000000000000000000000000000005f82015250565b5f61833860108361745d565b915061834382618304565b602082019050919050565b5f6040820190506183615f830184617d1a565b81810360208301526183728161832c565b905092915050565b7f476f616c206973206f70656e00000000000000000000000000000000000000005f82015250565b5f6183ae600c8361745d565b91506183b98261837a565b602082019050919050565b5f6020820190508181035f8301526183db816183a2565b9050919050565b7f4e6f7420616c6c6f7765640000000000000000000000000000000000000000005f82015250565b5f618416600b8361745d565b9150618421826183e2565b602082019050919050565b5f6020820190508181035f8301526184438161840a565b9050919050565b7f4261636b77617264206d6f7665206e6f7420616c6c6f776564000000000000005f82015250565b5f61847e60198361745d565b91506184898261844a565b602082019050919050565b5f6020820190508181035f8301526184ab81618472565b9050919050565b5f815190506184c08161632a565b92915050565b5f602082840312156184db576184da6161fc565b5b5f6184e8848285016184b2565b91505092915050565b5f8160011c9050919050565b5f5f8291508390505b600185111561854657808604811115618522576185216175c7565b5b60018516156185315780820291505b808102905061853f856184f1565b9450618506565b94509492505050565b5f8261855e5760019050618619565b8161856b575f9050618619565b8160018114618581576002811461858b576185ba565b6001915050618619565b60ff84111561859d5761859c6175c7565b5b8360020a9150848211156185b4576185b36175c7565b5b50618619565b5060208310610133831016604e8410600b84101617156185ef5782820a9050838111156185ea576185e96175c7565b5b618619565b6185fc84848460016184fd565b92509050818404811115618613576186126175c7565b5b81810290505b9392505050565b5f61862a82616204565b91506186358361631e565b92506186627fffffffffffffffffffffffffffffffffffffffffffffffffffffffffffffffff848461854f565b905092915050565b5f61867482616204565b91507fffffffffffffffffffffffffffffffffffffffffffffffffffffffffffffffff82036186a6576186a56175c7565b5b600182019050919050565b5f60c0820190506186c45f830189617ea3565b6186d16020830188616295565b81810360408301526186e38187617ffc565b905081810360608301526186f78186617ef5565b905061870660808301856168f3565b81810360a08301526187188184617ef5565b9050979650505050505050565b7f5363686f6c617273686970204e6f7420616c6c6f7765640000000000000000005f82015250565b5f61875960178361745d565b915061876482618725565b602082019050919050565b5f6020820190508181035f8301526187868161874d565b9050919050565b7f42616c20416e6f6d616c6c7900000000000000000000000000000000000000005f82015250565b5f6187c1600c8361745d565b91506187cc8261878d565b602082019050919050565b5f6020820190508181035f8301526187ee816187b5565b9050919050565b7f42696c6c207365727669636520756e646566696e6564000000000000000000005f82015250565b5f61882960168361745d565b9150618834826187f5565b602082019050919050565b5f6020820190508181035f8301526188568161881d565b9050919050565b5f815461886981617597565b6188738186617fec565b9450600182165f811461888d57600181146188a3576188d5565b60ff1983168652811515602002860193506188d5565b6188ac85618054565b5f5b838110156188cd578154818901526001820191506020810190506188ae565b808801955050505b50505092915050565b5f6060820190506188f15f830186616295565b8181036020830152618903818561885d565b90506189126040830184617ca7565b949350505050565b7f676f616c5f636f6d706c657465640000000000000000000000000000000000005f82015250565b5f61894e600e8361745d565b91506189598261891a565b602082019050919050565b5f6040820190506189775f830184617d1a565b818103602083015261898881618942565b905092915050565b5f6020820190508181035f8301526189a88184617ef5565b90509291505056fea2646970667358221220f7d4bdc27dc41cbb642d939605a83d8d6ea7c35a957a19ae395880129516dac664736f6c634300081c0033","linkReferences":{}},"methodIdentifiers":{"BPS_DENOMINATOR()":"e1a45218","activeGoals(address)":"3775e76f","approveScholarshipRelease(uint256[])":"6ec998d2","backendFulfillmentSigner()":"dce3b784","billListingFee()":"9242597c","billServices(uint256)":"e5c59451","billSuccessFeeBP()":"2514f7e6","claimFund(uint256)":"31c7364f","claimScholarshipFunds(uint256,address)":"45d391ea","createBillGoal(uint256,string,string,string,uint8)":"2aa6e44b","createGoal(uint256,string,string)":"5c9c61a5","createScholarshipGoal(uint256,string,string)":"4e7a19f4","defaultListingFee()":"3e22ceb0","fulfillGoal(uint256,uint8)":"d81c47b7","fundGoal(uint256,uint256,string)":"b6510a3b","getGoal(uint256)":"df6ed6cb","getGoalIdAndState(address)":"a4e14acd","goalCounter()":"f9e9ad39","goalIDs(address,uint256)":"992c3a07","goals(uint256)":"61449ca2","levels(address,uint8)":"d47e673e","maxGoal()":"f71441a5","milestonePercent(uint8)":"72469777","onVerificationSuccess(address,uint8)":"cd74be79","owner()":"8da5cb5b","pause()":"8456cb59","paused()":"5c975abb","reactivateGoal(uint256)":"bae073fa","refundScholarship(uint256)":"1adaa84d","relayBillFundsToService(uint256,uint256)":"c0e524b3","releaseApprover()":"be663ada","renounceOwnership()":"715018a6","reputationScores(address)":"fe0438b2","restrictions(address)":"8d334529","scholarshipFeeBP()":"9c502961","scholarshipListingFee()":"ca2a9dbd","setBackendFulfillmentSigner(address)":"7dd5e31f","setBillListingFee(uint256)":"7fc57de3","setBillService(address)":"7ad22f44","setDefaultListingFee(uint256)":"1a15cd49","setMaxGoal(uint256)":"c435ae0c","setReleaseApprover(address)":"5790e6b3","setRestriction(address,bool)":"d7b4206a","setScolarshipListingFee(uint256)":"bf2cd2b8","stableToken()":"a9d75b2b","toggleFlagGoal(uint256)":"83c8cae9","toggleUseBillService()":"2ff9e773","toggleUseVerifier()":"6716192d","transferOwnership(address)":"f2fde38b","treasury()":"61d027b3","unpause()":"3f4ba83a"},"id":0}